:1000000018F09FE518F09FE518F09FE518F09FE5C0
:1000100018F09FE5606FA0B814F09FE514F09FE51D
:100020001CED0000C8530000C8530000C853000076
:0C003000C853000068140000F413000026
:100044008400000050415442000000000000000001
:100054000000000043504C2D424C2D5553420000EB
:10006400000000004E41564C2D43504C000000004F
:10007400000000004100000000000000000000003B
:100084000000000076312E33362E312E3000000071
:10009400000000000124010008000000000000002E
:1000A400000000000000000000000000000000004C
:1000B400000000000000000000000000000000003C
:0400C4000000000038
:1001000008B4024B9C4608BC6047C046001500007E
:1001100008B4024B9C4608BC6047C046F41400007B
:1001200008B4024B9C4608BC6047C046F020000063
:1001300008B4024B9C4608BC6047C0467C220000C5
:1001400008B4024B9C4608BC6047C0460824000027
:100150000A6802604A6842608A688260C968C16051
:100160007047F3B589B0FFF7CBFF002802D0FF211D
:100170002C3105E0FFF7CCFF002804D1962149007F
:100180009D4801F0D1F901F0CFFC02AA03C29B4FB8
:1001900038004C3009998900401801909848009027
:1001A00002E0009801F049FE009801F031FE0600DF
:1001B00000D1A0E00124306A2040F2D102A80CC88E
:1001C00003CE083E121A8B410198006800218B4231
:1001D00001D882422BD39B484156002905D0416863
:1001E000622902D0FF215231CAE73021415600294D
:1001F00002D0416B6229F5D160214156002902D01D
:10020000406E6228EED1B46904A831000831102292
:10021000FFF786FFF569009801F00FFE2000C3D0BC
:100220002B0004AA0999622001F038F8BCE786483F
:100230000A994A00511809014018A421C90045181B
:1002400028202856002802D0FF216A3198E728008C
:1002500031002822FFF764FF002029002831486080
:1002600028216C54009801F0E8FD7878A968FF22F5
:1002700091430143A960401C787008352900099812
:10028000002838D10A98002803D002281FD00FD3A5
:1002900031E0994DA8698008044002D1FF217E31E8
:1002A0006EE79648FFF754FF01F07AFF21201CE02B
:1002B000914DA869800A044002D1FF2188315FE78F
:1002C0008F48FFF745FF01F06BFF41200DE08A4D9D
:1002D000A869800C044002D1FF21923150E789487F
:1002E000FFF736FF01F05CFF812028600320FFF755
:1002F0001FFF01F0E1FF0BB0F0BD10B50400FFF7E8
:10030000FFFE002802D0FF21CE3105E0FFF700FFFD
:10031000002804D1E7214900374801F005F9494890
:1003200000214156002904D077494978002908D195
:1003300010BD302141560029F6D1602141560029D7
:10034000F2D160214056002803D102212000FFF79E
:1003500008FF10BDF8B507000C001600FFF7D0FE2F
:10036000002802D08C21890004E0FFF7D1FE00288C
:1003700003D16649204801F0D7F8002E01D1644925
:10038000F8E731486100091909014018A421C900A2
:10039000451828202856012803D0022801D05D499D
:1003A000E8E7E86A002801D05B49E3E7EE62002F46
:1003B00017D1002C03D0022C09D004D311E001F096
:1003C000EFFE222006E001F0EBFE422002E001F009
:1003D000E7FE8220484908600320FFF7A9FE01F0EC
:1003E0006BFFAC69200006D0EB6908352A003900A4
:1003F000300000F053FFF1BD2C120000805100408E
:100400007848004038B584683F4D286D002803D1F6
:100410004249434801F088F801F05AFB0020286562
:10042000200000F0F1FC01F051FF002C03D13D4809
:100430000068800402D4200000F01BFE01F050FF91
:1004400031BD0000C048004078430040F8B50400CA
:100450000D00FFF755FE002802D0AC21890004E012
:10046000FFF756FE002803D12F492D4801F05CF814
:100470002E48416900910023234A111D01E05B1CB5
:100480001031009EB3421AD26F680E683E404F682A
:10049000BE42F4D18E6832002CD08268521C826039
:1004A0002B680F221F0C3A40D200DB0F036901D0EA
:1004B000403200E02C329A180261CB6815E0A100AE
:1004C00051184E6C320015D08268521C82602B6825
:1004D0000F221F0C3A40D200DB0F036901D04032DB
:1004E00000E02C329A1802618B6C2A002100002057
:1004F00001F000FFF1BD0000044004E0304004E0E2
:10050000404004E0504004E08051004031020000CF
:10051000320200003A0200003D0200009D0200008D
:100520002C120000C4C01FE0B1020000C403004050
:10053000F0B591B000269B4801909B4803909B48E2
:1005400002909B48049002E0002E00D0F7E099480A
:100550000068800400D4F2E001F022FE01980078E7
:10056000002854D000200199087001F0A5FE370042
:10057000FFF7C6FD002801D08F4904E0FFF7C8FD52
:10058000002819D18D498E4800F0CEFF06A82822F8
:10059000FFF7C6FD049801F050FC0C9C20000BD026
:1005A00006A820300078C00706D40D9B06AA0832A2
:1005B0003900612000F072FE049801F029FC01006E
:1005C000E4D100257F4C28202056012801D00228A4
:1005D00007D1E06A002804D1612229003800FFF722
:1005E000B9FE6D1C3034032DEDD36E48006D00282C
:1005F00001D07549C7E7754800903300744A00215F
:10060000FA20800001F00CFA6649086501E001F06B
:1006100053FE704C20004069C04600282BD0FFF7E5
:100620006FFD002801D06C49ADE7FFF771FD002890
:1006300001D16A49A7E70398056806E00100300088
:10064000FFF704FF200001F0F8FB20004069C046DE
:10065000002810D0200001F0DBFB002DEED0029925
:100660002A0047680B683B404F68BB42E6D0083120
:10067000521EE7D0F5E700245948009007000020FB
:100680003856022857D12500FFF73AFD002801D03F
:10069000544978E7FFF73CFD002801D1524972E741
:1006A00052486900491909014018A421C90042189B
:1006B0001000183010214156022901D04C4962E740
:1006C0004169002902D00021017409E00174056824
:1006D000290005D0436808323100002001F00BFEEC
:1006E0003500FFF70DFD002802D0FF21CE314AE78B
:1006F000FFF70EFD002802D1E721490043E70098EB
:1007000000214056002809D1009830214056002889
:1007100004D1009860214056002803D02148407839
:10072000002808D0009860214056002803D10221FB
:100730002800FFF716FD641C3037032C9FD3761C6E
:100740000298403002900398001D03900198401CCD
:100750000190012E00DAF7E601F022FD154800684D
:10076000800418D50F480078002817D1194840692F
:10077000C046002812D11A48009000214056022895
:100780000CD0009830214056022807D000986021F4
:100790004056022802D002209D49086001F08CFDDD
:1007A00011B0F0BD8051004000040040D451004021
:1007B00078480040C4C01FE0F5070000F6070000BD
:1007C0002C12000098480040110300003412000071
:1007D0000504000014540040DD020000DE020000A9
:1007E000C0480040010200000202000078430040BF
:1007F00006020000F0B583B086488068C102CE0EC4
:100800008449CC680440E0073CD5FFF779FC002818
:1008100001D08149A8E0FFF77BFC002801D07F4987
:10082000A2E07F4D280001F0C2FA00280AD07D49DD
:100830001022FFF775FC280001F0CDFA02207A495A
:10084000086017E0794D280001F056FD2A000023CA
:10085000401C594101F070FD2800083001F04CFDAA
:1008600008352A000023401C594101F065FD7048FD
:1008700001F082FD0420674908600320FFF758FC5F
:1008800001208443200626D5684DA00205D5280006
:10089000583001F031FD583504E02800503001F0A7
:1008A0002BFD50352A000023401C594101F044FD26
:1008B0002000954C0440192E19D194480178002944
:1008C00006D14168491C4160642910D101210170A1
:1008D000002181600BE08D480178002906D08168F5
:1008E000491C81600A2902D10021017041608848B9
:1008F000204041D04748806901900094FFF700FCF8
:10090000002801D083492FE0FFF702FC002801D026
:10091000814929E08149824A824B0D68009E2E4020
:1009200016D028269E57012E01D0DE211BE0019E05
:100930001768374004D11E0028367668002E16D07E
:1009400002262827DE55384F3E60009EAE430096B3
:10095000401C3033121D091D0328DED300986C495A
:10096000014006D0E32189006F4800F0DDFDE02161
:10097000F9E720006D4C0440082634421DD06C4835
:1009800001F0FAFC294D280001F0B6FC2A000023F2
:10099000401C594101F0D0FC2800103001F0ACFCA3
:1009A00010352A000023401C594101F0C5FC1948AC
:1009B00006600320FFF7BCFBB44360060ED51B4D59
:1009C0002800603001F098FC60352A000023401CAC
:1009D000594101F0B1FC2000A04C0440600711D542
:1009E0000C4880690106C90F0AD001209C49087093
:1009F00002200D49086045480121017000218160F5
:100A000004208443200401D09649ADE703B0F0BD33
:100A10001CF0FFFF044004E05103000052030000FB
:100A200014540040204004E018F0FFFF340300405D
:100A30004C120000F0B585B001F076F802AA03C2AE
:100A40008948006880045DD58548C66C0025354C12
:100A500028202056012801D002284FD1E06A002822
:100A60004CD102A80CC803CC083C121A8B410021BF
:100A70008B4201D8B24241D3FFF742FB002802D09B
:100A80008C21890004E0FFF743FB002803D177495C
:100A9000254800F049FD28202056012803D00228CF
:100AA00001D07349F4E7E06A002801D07149EFE70B
:100AB0006220E062002D0BD0022D01D004D311E0A2
:100AC00001F06EFB822006E001F06AFB422002E0AA
:100AD00001F066FB2220684908600320FFF728FB2D
:100AE00001F0EAFBA0690090002807D0E36922002A
:100AF000083200216220009F01F050FC6D1C303450
:100B0000032DA5D305B0F0BD7FFF00FFDC0300403F
:100B1000020600006D0300006E0300008412000056
:100B200090120000984800402C120000FDF9FFFFD1
:100B300060120000F2B584B0040017001E00FFF739
:100B4000E7FA002801D19C211BE0002C01D04B4981
:100B500018E0049800680F25010C2940092901DBE1
:100B600047490FE004994968C00F05D18020000172
:100B700081420AD3434905E080208005814204D3A5
:100B80009D21C9009E4800F0CFFC049800683E49B2
:100B9000014001D03D49F5E701F002FC029001F06F
:100BA00095FB31480068800410D43948007800284B
:100BB00001D13849E6E7384801690191C1680091DF
:100BC000836842680168002000F06CF833480068D0
:100BD0000106C90F01D0612139E03148009001F0D0
:100BE000E6F8040001D12F2131E0083004991022E9
:100BF000FFF796FAA761E66100F096FF03C4083C90
:100C0000206A012188432062009801F0E4F820481E
:100C10004168491C4160049909680A0C1540EA00C2
:100C2000C90FC16801D0403200E02C328918C16080
:100C3000744CA56E00984069C046854203D2009866
:100C40004069C046A0660020FFF757FB00210298CC
:100C500001F0ACFB080005B0F0BD0000BFFFFF00D5
:100C60008051004093040000C4C01FE03102000026
:100C70003A0200003D020000044004E0E2040000EB
:100C8000E3040000E6040000FFFFF03FEA04000078
:100C9000C4030040E7070000585A00401C4004E02D
:100CA00078480040F0B583B007000C0016001D0026
:100CB000FFF72EFA002801D193490DE001F070FBF7
:100CC000019001F003FB01F06BFA002F07D18F4870
:100CD0000068800403D58E49494800F025FC2000B7
:100CE000A621884301D08B49F6E72000082404435D
:100CF0000B3E072E00D981E001A0805D8744C046ED
:100D000008E0E4E8ECF0F4F883490020002F1ED15D
:100D10007E4A13688026B6011E4316607F4A166815
:100D20007F4B33408026F6041E43166013689B00F9
:100D30009B088026F6051E4316607A4A012313603D
:100D4000D368009390605161774911611460774CCA
:100D5000B900661875640899B1640999F164607006
:100D60002065E055724D9021A420C000281801F0A4
:100D70002BFB2823202229005801281801F008F80D
:100D80001023202221009431A5208000201800F09B
:100D9000FFFF01230F227749172000F06DFB00238E
:100DA0000F227549012000F067FB0220734908609B
:100DB000734C206800280ED1F06C0521FFF7C0F9B4
:100DC0000A2800D20A206F49009100236E4A0121AF
:100DD00000F066FE2060019801F0E8FA03B0F0BD73
:100DE0006A4992E76A4990E76A498EE76A498CE75F
:100DF0006A498AE76A4988E76A4986E780496BE772
:100E00002C12000034030040F8B50400FFF778F915
:100E1000002801D164495AE0FFF77AF9002801D18E
:100E2000C72153E001F052FA002C03D13748006883
:100E3000800402D401F054FAF1BD6321002000F0D7
:100E400033F901F04DFA00F06FFE06000F00384C48
:100E5000A920C000251800202856002808D000F03E
:100E600063FE801BB94100290CD86428F0D309E047
:100E7000AF20C00020560028F1D1B520C000205678
:100E80000028ECD1002000F02DF801F01FFA01F04D
:100E900087F900202856002801D000202870AF20B4
:100EA000C000201800214156002901D00021017006
:100EB000B520C000201800214156002901D0002192
:100EC00001702F4C2068002804D1D121C90074483A
:100ED00000F02AFB00F0FCFD0020206001F066FB22
:100EE000F1BD000081B00F4800210161C16800918F
:100EF000C046C0460121016004480168694A0A40B1
:100F0000026001B0704700009E050000C4C01FE0F1
:100F1000A4050000A605000008009400A8C11FE079
:100F2000FFFFFFF3004004E0CF06000080510040C7
:100F30007843004010B50B0001F032FA040001F0D4
:100F4000C5F901F02DF910227B49180001F0BCF819
:100F5000200001F02BFA10BD10B501F021FA0400B9
:100F600001F0B4F901F01CF91021734801F028FBDD
:100F7000EEE70000F50700003105000000C003E0C7
:100F80000804004070120000350A000008009600B6
:100F900008009C0011009C0023009C0059009C004C
:100FA000E0009C00C1019C003706000070B50C00F9
:100FB00015001E00FFF7A4F8002801D18D4904E0B8
:100FC000FFF7A6F8002803D18B49354800F0ACFAAA
:100FD0008A484169042901D38949F6E7844A09010D
:100FE00051184C608D60CE60049A0A6101F06EF970
:100FF00001F0D6F84169491C416101F0D7FA70BD92
:10100000D2050000F8B501F0CBF9040001F05EF95B
:1010100001F0C6F800267B48784D6B6901E0761C2C
:1010200010309E4213D207688F42F8D1476897422A
:10103000F5D1991B491E0A0101001031FFF770F824
:101040006869401E6861200001F0B0F9F1BDF72128
:10105000C9006D4800F068FAC0466C480160426003
:1010600083600099C16001990161012063490870A2
:10107000704700B583B061490978002903D16449FC
:10108000074800F051FA61490A690192CA68009262
:101090008B684A680968FFF705FE03B000BD0000D1
:1010A0002C120000FFDFFFFFF1B58AB00F00FFF741
:1010B00027F8002801D0574904E0FFF729F8002855
:1010C00019D15549504800F02FFA68462822FFF7F9
:1010D00027F8200000F0B1FE069C20000BD06846E7
:1010E00020300078C00706D4079B6A4608320A9968
:1010F000380000F0D3F8494EA020C000341820007A
:1011000000F086FE0100E0D10025A420C0003418C4
:1011100028202056012801D0022807D1E06A0028A3
:1011200004D13A0029000A98FFF714F96D1C3034F5
:10113000032DEDD30BB0F0BDC8030040F5B581B071
:101140000F0001F02DF9009001F0C0F8029800287E
:1011500001D1334938E00020304EA021C900741875
:101160000100200000F086FE00281BD0C369BB42AE
:10117000F6D1016A0122114206D09925009801F0AA
:1011800015F9280003B0F0BD0A430262846921000A
:1011900001D10025F2E7083002000199029800F021
:1011A0007DF8F6E70024A420C0003018282141561D
:1011B000012901D0022913D1C169B94210D12021DE
:1011C000415CC90703D517490F4800F0ADF9C56A5E
:1011D000002D09D1029A21000198FFF7BBF803E026
:1011E000641C3030032CE1D3032CC7D30E49EBE74A
:1011F000805100408607000087070000C4030040BC
:101200008A070000845100402C120000585A004008
:10121000E7070000F5070000F607000078430040EC
:101220001F080000550800007108000063616E2E61
:10123000637070005265456E61626C6543616E411A
:10124000667465724275734F66660000527820437B
:10125000414E206D7367206C6F73740D0A0000009F
:1012600043414E2064617461206F76720D0A000064
:1012700043414E2054582053636176656E67696E12
:1012800067000000020000000002000000040000EF
:101290000800000000080000000008002047026865
:1012A000531C03601170704708B4024B9C4608BC85
:1012B0006047C0466C22000008B4024B9C4608BC44
:1012C0006047C0465022000000C09FE51CFF2FE190
:1012D0005B13000000C09FE51CFF2FE10D14000010
:1012E00010B5FEF70DFF002801D0232104E0FEF722
:1012F0000FFF002803D02421744800F015F9FFF7F0
:10130000DBFF002801D12721F6E771480178002989
:1013100001D02921F0E76F4A11600023DB4393607D
:1013200013615161FF22D24311606B4A6B4B082459
:10133000196011605960516099609160D9601033F3
:10134000D1601032641EF3D1654A117051700121D1
:10135000017010BD5E480078704770B5FFF7A4FFBC
:1013600004005F4D6878002806D0A8685D498A6847
:101370001219101A886008E02878002805D06868DB
:1013800058490A681219101A08605748066830024E
:1013900009D55648882149004018C06C00F0C2F8B1
:1013A0003000534E0640F00607D5504888214900CA
:1013B000405800F0B7F810208643B00606D54B48D9
:1013C000882149004018406800F0ACF8FFF76CFF36
:1013D00044494A681218121B4A606978002901D0F2
:1013E000A86003E02978002900D0686070BC08BCC0
:1013F0001847000004E04EE20F402DE904D04DE212
:10140000B0FFFFEB04D08DE20F80FDE8F8B500F0EF
:10141000C7FEFFF749FF334C314D2978002904D02E
:10142000696822681218511A2160A860012068704A
:1014300000F042FFFF27FF43386800F073F80026F2
:101440003E6000F0ADFEFFF72FFFA968A2681218FA
:10145000511AA1606E702978002900D0686000F0F0
:101460002BFFF1BC08BC184704E04EE20F502DE9F9
:1014700097FFFFEB0F90FDE8F4B5202802D3FF2182
:1014800024311BE001228240124CA2608500174EDD
:1014900080277F00F719795100998027BF00F6193E
:1014A0007151002B02D1206890430CE0172808D01E
:1014B000042806D0052804D0FF213631034800F067
:1014C00033F82068104320606260F1BD14150000FD
:1014D000150400400CF0FFFF00F2FFFF00F1FFFFDA
:1014E0006C5A0040E803004004F0FFFF00F0FFFFEB
:1014F000FFFF7FFF00000FE12003A0E1010000EAF1
:1015000000000FE1A003A0E1010000E2010020E2E1
:101510001EFF2FE16972715F7574696C732E6370C1
:10152000700000000047FFFF38B5030000F038FFEF
:10153000050001F04BF80124094804700A00190065
:1015400008A000F019FF684604706846007800287B
:10155000FBD1280000F02AFF31BC08BC184700006E
:10156000110400400D0A0D0A417373657274696FAE
:101570006E206661696C6564210D0A46696C653A86
:101580002025730D0A4C696E653A2025640D0A0DFD
:101590000A50726F6772616D2068616C7465642EA9
:1015A0000D0A000010B5802903D256219648FFF796
:1015B000BBFFFFE70024046041608260C360018AD2
:1015C000A54A0A400282448210BD8C214900416034
:1015D000704710B5802903D256218B48FFF7A4FF2E
:1015E000E8E7C0460160426083600099C160018AFB
:1015F000994A0A40028200214182704738B50100B1
:1016000000F0CEFE040000F061FE00F0C9FD934D35
:101610006878002801D0BD2111E02800483000F092
:1016200068FC6864280048300069C046296B814224
:1016300000D201002963686C002803D1C5217248DB
:10164000FFF772FF002101602C640121697032BD37
:10165000F8B5060000F0A4FE050000F037FE00F02B
:101660009FFD7E4C6078002803D0D7216648FFF7A5
:101670005BFF200048300069C0460700606B4000F7
:101680000321FEF75DFD874215D23100200048306E
:1016900000F02FFC6064200048300069C046216BD8
:1016A000814200D201002163606C00210160256449
:1016B00001216170F2BD280000F078FE0020F2BD2B
:1016C00010B5FEF71DFD002801D0F62104E0FEF75D
:1016D0001FFD002803D0F7214B48FFF725FF5F4C83
:1016E0006078002801D1F821F6E72000483000F0AA
:1016F0003EFC00206070206C00F058FE10BD70B5FC
:1017000012E0F8B504000F0015001E001420FFF7CA
:1017100075FF002805D000962B003A002100FFF746
:1017200060FFFFF7CDFFF1BD04000D00160014208F
:10173000FFF764FF002807D033002A002100FFF7DD
:1017400048FFFFF7BDFF012070BDF8B50500FEF7AB
:10175000D7FC002802D0A521490015E07848A9004F
:101760004919C9004418A078002814D0FFF79CFD3F
:10177000206AE16900F034FFFFF796FDFEF7C0FC38
:10178000002804D0FF2158311F48FFF7CDFE6078B4
:10179000012838D11DE06068002805D06078012854
:1017A00017D0FF216C31EFE71420FFF727FF002847
:1017B00021D0616A0091236AE269A169FFF711FFF4
:1017C00006006D1C7582FFF77BFF6660607801285C
:1017D00019D120001030C0C8A0680021FA22920060
:1017E000002300F0FFFEFA229200002300F006FF23
:1017F0008019794105E02000103003C80022401D07
:101800005141103403C4F1BD741D000070B50120B6
:101810008A490860114E3000083003C80022401C7D
:1018200051413200083203C20024454D2878002877
:101830000CD0280010300CC83000083003C88B4290
:1018400004D1824202D12000FFF77FFF641C2835BB
:10185000192CEBD370BD0000FEFF000010580040B3
:10186000F3B581B01600FEF74BFC002801D0D4215F
:101870000BE0FEF74DFC002802D0FF21AA3105E065
:10188000FFF71AFD002804D1D62149007348FFF75D
:101890004BFEFFF75FFD002802D1FF21AE31F5E7D7
:1018A0006F4F3878002802D0FF21B031EEE76D4C41
:1018B000666300252563A562E56332000299200076
:1018C000483000F002FBFA26B60031001C4800F058
:1018D0007BFD002000212200083203C225616561E2
:1018E000A561E561256265626070257000230122B3
:1018F0005D491B20FFF7C0FD01983100FEF720FC79
:10190000002902D0FF21CC31C0E75848016880226D
:1019100012040A43026056480168564A0A40802170
:10192000C90111430160634C01983100FEF708FCC6
:1019300060610320206101202060387003B0F0BD99
:10194000984D0040FEB582B0070000F029FD0090E0
:1019500000F0BCFC00F024FC0298012819D1002FF3
:1019600002D1FF21F43111E038000021FA22920067
:10197000002300F037FEFA229200002300F03EFE22
:10198000002906D1002804D1FA2149003348FFF785
:10199000CBFD0020002448490D0001260A78002ACA
:1019A00005D0012428310D002A78002A29D1686049
:1019B000029868700398A870AF600498A8610A98AC
:1019C000E8610B98286238000021FA229200002377
:1019D00000F008FEFA229200002300F00FFE020041
:1019E0000B00364803C8801859412A00103203C240
:1019F0000C9868622E70002F0CD12000FFF7A5FE16
:101A000008E0641C28352A78002AD0D0641C5031A4
:101A1000192CC8D3192C01D34249B7E7009852E0DA
:101A200010B584B0802A03D225490C48FFF77CFD0D
:101A3000069C02940193009200232CE0004007E0F2
:101A400010B584B0002A01D13F4903E0802B04D2B5
:101A50008C2189003B48FFF767FD16E0741D0000EC
:101A60001A040040105800400D180000C4C01FE0C8
:101A7000ACC11FE0FF3FFFFF10B584B0802B04D343
:101A80008E2189002F48FFF74FFD079C0294069C8A
:101A90000194009313000022FFF754FF04B010BD1F
:101AA00010B584B0069C0294019300920023012299
:101AB000F2E70000044007E0984D0040185800404D
:101AC0001F020000019800F071FC601C05B0F0BD21
:101AD00010B5010000F064FC00F0F8FB00F060FBC2
:101AE000002901D15B490BE0491E192917D2574A39
:101AF0008B005918C90051180A78002A03D1564999
:101B00001048FFF711FD4A68002A03D0138A012408
:101B10001C43148200220A7000F048FC10BD514999
:101B2000EEE700001202000000B5494803C8FA229F
:101B30009200002300F056FDFA229200002300F0EC
:101B40005DFD00BD741D00002F020000DCB5070024
:101B5000FEF7D6FA002803D140494148FFF7E4FCDC
:101B6000002F25D0FA24A4003F4E3000083003C8CF
:101B70002200002300F036FD2200002300F03EFD8D
:101B80006A4603C23000083003C82200002300F078
:101B900029FD2200002300F031FD02000B00684601
:101BA00003C8121A8B4100218B4201D8BA42E9D3F3
:101BB000D3BD000038B50400FEF7A2FA002801D119
:101BC0002A490DE0FFF770FB0500616820680028D6
:101BD00011D1802907D22448816B080007D12449FC
:101BE0001F48FFF7A1FC080001D12249F8E72000B7
:101BF00000F0F6FC14E0012806D1802902D21A4830
:101C0000C06B03E01C49EBE7802905D22100026884
:101C1000526800F05FFD03E02100626800F05AFDA9
:101C2000FFF742FB421B1048816A914202D2826256
:101C3000E168C162406A002806D0E168002900D14D
:101C40000EA1114800F098FB31BD0000984D0040F6
:101C5000185800405B02000062020000830200008E
:101C6000741D000072020000105800409202000033
:101C70009D020000A2020000AF020000650000000B
:101C80003848007870470000841D0000F0B593B01C
:101C9000050068688C277F00B8424AD1304CE06B61
:101CA0000190E56328002968096800F099FC6868DC
:101CB000B8423BD102AE2000483000F09BF900282A
:101CC0002CD069462000483000F0B0F90099412935
:101CD00003D325492548FFF727FC0A00010002A885
:101CE00000F0F2F92000483000F0B1F9708A0028C5
:101CF00011D01A48718A8A005118C9004018283832
:101D0000317CC9070AD400F0E1FA00F049FA002159
:101D1000416000F04BFC02A8FFF74CFF6868B84236
:101D2000C9D028002968896800F05AFC0198E0634E
:101D3000686813B0F0BD80B58C225200914203D187
:101D40000B490A48FFF7F0FB416001BD0449C96B2C
:101D5000884201D10120704700207047984D004013
:101D6000105800401A040040D5030000741D000004
:101D70001C0400007363686564756C65722E637083
:101D80007000000025733A202564B5730D0A000029
:101D900080B5002B01D1322144E1016082604360B3
:101DA00000214161C16001610176417601BD80B5CC
:101DB000017E002901D0472134E1416982689142C6
:101DC00001D1002002BD012101760168426800694D
:101DD0004243881802BD80B50100087E002801D169
:101DE0005B211FE10869401C0861002208698B68BB
:101DF000984200D10A6100F0D3FA00F067FA00F0CF
:101E0000CFF94B695B1C4B6100F0D0FA0A7601BD3B
:101E100080B5417E002901D0782103E14169002984
:101E200005D001684268C3685A43891801D100206F
:101E300002BD01224276080002BD80B50100487E45
:101E4000002801D18521EDE0C868401CC86000224F
:101E5000C8688B68984200D1CA6000F0A1FA00F00F
:101E600035FA00F09DF94B695B1E4B6100F09EFA5C
:101E70004A7601BD10B5027E002A01D0B32103E0ED
:101E8000427E002A01D0B421CCE0002909D1416969
:101E900000290DD00169002910D00168426800694D
:101EA0000FE042680368C46854431C19A14201D181
:101EB000002010BD8B4201D2881A10BD0168426813
:101EC0008068401E4243881810BD10B503231A4293
:101ED00001D0EE2103E00C001C4201D0EF21A1E073
:101EE0000160426000218160C1600161017641763C
:101EF00010BD70B50A00017E002901D0FC2102E06E
:101F0000002A01D1FE218DE0D31C03218B431B1D30
:101F100041688B4202D381214900F4E704690C1B1C
:101F2000C5684D1B9D4208D39C421DD30468C168FF
:101F30006118091DC568625112E05B18C5685B1B1A
:101F40009C4211D3C468091B042902D2FF21263107
:101F5000D9E70468211D0025C668A55104682260E0
:101F600001220276436100E00021080070BD80B5C7
:101F70000100087E002802D1FF21423152E0C868EA
:101F80004A698018C8604868CA68824202D3CA6831
:101F9000101AC86000F004FA00F098F900F000F997
:101FA0000A694B69D2180A6100F000FA002008762D
:101FB00001BD80B50269002A01D1002002BD42683E
:101FC0008368D21A042A00D22AE0826803689A58E9
:101FD000002A05D1002901D01A680A60006807E0CC
:101FE000002902D082689A580A600168806808183F
:101FF000001D02BD80B5016900290DD041688268CD
:10200000891A042900D20BE0826801688A58002AE4
:1020100001D080680918091D080002BD00000000F9
:10202000AD21490025A0FFF77FFAC04610B5040096
:10203000607E002802D0FF217631F3E7FFE7200021
:10204000FFF7B7FF002801D00121617610BD10B560
:102050000100487E002801D1C32105E048688A6854
:10206000821A042A01D2C621DBE78A680B689A58D3
:10207000002A03D0D21C03239A4306E08A68821AFE
:102080001B68DB1C0324A343D218121D8B689B180A
:102090008B608B68834202D38B68181A886000F0CB
:1020A0007FF900F013F900F07BF80B699A1A0A61C6
:1020B00000F07CF90020487610BD00007175657550
:1020C000652E6370700000007847C046030011E37E
:1020D0000400000A012052E20130D1240130C02462
:1020E000F9FFFF8A1EFF2FE1030010E31200001A20
:1020F000102052E20500003A30002DE93810B1E816
:10210000102052E23810A0E8FBFFFF2A3000BDE8A3
:10211000823EB0E10810B1280810A0280430914494
:1021200004308044822FB0E1B220D1200130D1446C
:10213000B220C0200130C0441EFF2FE1042052E233
:102140001000003A010010E30600001A043091E488
:10215000042052E2B230C0E06338A0E1B230C0E007
:10216000F9FFFF2A070000EA043091E4042052E25C
:102170000130C0E46334A0E1B230C0E06338A0E1D4
:102180000130C0E4F7FFFF2A04208232012052E22E
:102190000130D1240130C024FBFFFF8A1EFF2FE154
:1021A0007847C04600C00FE140C08CE30CF021E14D
:1021B0001EFF2FE100C09FE51CFF2FE12915000045
:1021C0007847C04610402DE90040A0E1CBFCFFEB72
:1021D000000050E31A10A0130300001AC4FCFFEB28
:1021E000000050E30200000A1B10A0E3B0008FE2E1
:1021F000EFFFFFEB4C009FE5001090E5401881E3F6
:10220000001080E5E81090E5C01DC1E3401D81E3AA
:10221000E81080E54E02A0E3700A80E328209FE5E5
:10222000942281E00020E0E3A11982E0081080E51B
:102230000010A0E3041080E50110A0E3001080E589
:102240001040BDE81EFF2FE1C4C01FE006BD378669
:102250004E02A0E3700A80E3000090E5000050E326
:102260000100A013FF0000E21EFF2FE18E02A0E399
:10227000700A80E3000090E51EFF2FE1000050E3AC
:102280000600000A8E12A0E3701A81E3002091E597
:10229000003091E5023043E0000053E1FBFFFF3ADC
:1022A0001EFF2FE1707265636973696F6E5F7469F9
:1022B0006D65722E637070007847C04600C00FE1F4
:1022C00040C0CCE30CF021E11EFF2FE17847C0466F
:1022D00000C00FE180C08CE30CF021E11EFF2FE174
:1022E0007847C04600C00FE180C0CCE30CF021E18C
:1022F0001EFF2FE1304728477847C0460730D0E51A
:102300000620D0E505C0D0E50410D0E5032482E125
:102310000330D0E50C1481E101C0D0E5021881E161
:102320000220D0E50000D0E5032482E10C0480E126
:10233000020880E11EFF2FE17847C04620C4A0E1DB
:102340000000C2E501C0C2E52CC4A0E102C0C2E5A4
:102350002CC4A0E103C0C2E521C4A0E10410C2E581
:1023600005C0C2E52CC4A0E106C0C2E52CC4A0E1B2
:1023700007C0C2E51EFF2FE10EB400B582B003A96D
:10238000009102006B460121034878440A3000F0B6
:10239000A3F9029906B008470D2F0000384770478F
:1023A0007847C04600000FE11EFF2FE17847C04686
:1023B00000C00FE1C0C0CCE3C00000E200C08CE16F
:1023C0000CF021E11EFF2FE17847C0460020B0E36A
:1023D000190200EA7847C046802411E200106142E9
:1023E000402032E00700000A04402DE9000060228E
:1023F000040000EB8220B0E1001061420000602286
:102400000440BDE81EFF2FE1010050E1020051230E
:102410001800003A0030A0E3200851E10118A09113
:1024200010308392200451E10114A091083083926E
:10243000200251E10112A09104308392200151E168
:102440000111A09102308392A00051E18110A0916E
:1024500001308392010050E0A110A0E1001061E280
:102460000130D3E24A0000DA010090E00100403080
:1024700020C063E28CF18FE0010011E1FD01000A50
:10248000010050E10010A0310000A0330010A02393
:102490001EFF2FE18000B1E0010040308000B1E07C
:1024A000010040308000B1E0010040308000B1E028
:1024B000010040308000B1E0010040308000B1E018
:1024C000010040308000B1E0010040308000B1E008
:1024D000010040308000B1E0010040308000B1E0F8
:1024E000010040308000B1E0010040308000B1E0E8
:1024F000010040308000B1E0010040308000B1E0D8
:10250000010040308000B1E0010040308000B1E0C7
:10251000010040308000B1E0010040308000B1E0B7
:10252000010040308000B1E0010040308000B1E0A7
:10253000010040308000B1E0010040308000B1E097
:10254000010040308000B1E0010040308000B1E087
:10255000010040308000B1E0010040308000B1E077
:10256000010040308000B1E0010040308000B1E067
:10257000010040308000B1E0010040303013A0E1A4
:10258000110320E00000A0E002C0A0E31C0380E1F2
:102590001EFF2FE1013093E2010090300100403036
:1025A0000010A0E10300A3E01EFF2FE17847C04622
:1025B00000C00FE1C0C0CCE30CF021E11EFF2FE111
:1025C0007847C0460020B0E3AF0100EA7847C04634
:1025D00000C00FE1C0C08CE30CF021E11EFF2FE131
:1025E000084700007847C04690030CE091C22CE0F9
:1025F000920081E00C1081E01EFF2FE17847C04679
:1026000001C093E10C00001A00502DE90210A0E176
:102610007CFFFFEB0120A0E10010A0E30030A0E36D
:102620000050BDE81EFF2FE10130A0E10020A0E135
:102630000010A0E30000A0E31EFF2FE1020050E124
:1026400003C0D1E0F7FFFF3A03C092E1AA01000AFC
:1026500030002DE900C0A0E3022092E00330B3E097
:102660000300002A030051E10200500101C08C2246
:10267000F8FFFF2A6330B0E16220A0E18054A0E3BC
:1026800020405CE23544A0210050A023355CA031FD
:102690000040A033010000EAA330B0E16220A0E1D5
:1026A000020050E103C0D1E0020040200C10A02144
:1026B0000440B4E00550B5E0F6FFFF3A0020A0E189
:1026C0000130A0E10400A0E10510A0E13000BDE868
:1026D0001EFF2FE110470000F9B593B008AD0020B0
:1026E00014000991E8610BE00998139A00F09CFA34
:1026F0000990002800D1CBE1E869641C401CE86126
:102700002178002901D1E869C4E12529ECD1002014
:1027100028616861A86102E0010001200843641C8F
:1027200021782029F8D023290FD02B2904D02D2956
:1027300008D030290CD00EE001000220084300042C
:10274000000CECE701000420F8E701000820F5E7A1
:1027500001001020F2E72A2913D11499149A09686C
:1027600011600A68149B091D19606A62002A06D567
:10277000514269620100042008430004000C641CFB
:1027800012E0002169620AE06A6A234B9A4205D08E
:1027900093009A185200511830396962641C2178EC
:1027A0000A00303A0A2AEFD321782E2903D00021DB
:1027B000C943296221E0641C21782A290AD114998D
:1027C000149A0968641C11600A68149B091D196039
:1027D0002A6212E0002129620AE02A6A0E4B9A421C
:1027E00005D093009A185200511830392962641CA0
:1027F00021780A00303A0A2AEFD32885267805483E
:1028000078441030310000F07BFA002806D0641CB8
:1028100005E0C0460C040000FFFFFF7F00262A20D1
:102820002E54285C682806D12078682803D16220BD
:102830002A216854641C02A8E8602678641C252EAE
:1028400013D0582E40D0632E00D1A0E0642E7CD04F
:10285000692E7AD06F2E37D0702E28D0732E0AD0E2
:10286000752E31D0782E2FD09EE0012028612520B2
:1028700069460872A3E01498149900680860066815
:102880001499001D08602F6AAE60002F03D5300038
:1028900000F048FA09E03A000021300000F06EFA3A
:1028A000002801D0801B00E03800686187E01498A0
:1028B0001499006808600168149A001D106008915E
:1028C00002A8A86078215EE02A20285C6C2801D14B
:1028D000149810E0712801D1149802E06A28149825
:1028E00009D102680720D21D82431498026003CAEE
:1028F000149B1A6005E0016801600868149A091DBC
:10290000116008902A20285C682803D108980004E8
:10291000000C04E0622803D108980006000E08901D
:102920002820285C000729D50898002826D02020D8
:102930003043782822D12869302102AA1154401C42
:10294000411C296102A90E5418E014992A20285C20
:1029500000F0A4F80890002802D528692D2109E08C
:10296000288D810702D528692B2103E0C00705D5F2
:102970002869202102AA1154401C2861296902A853
:102980004018A860310008A800F0B0F817E01499CA
:10299000012028611498006808600168149A001DDD
:1029A0001060684601720AE001202861252069460E
:1029B0000872002E03D00220286102A84670686ABF
:1029C0002969401AA969401A6969401A01902820AA
:1029D000285C400710D4202069460870002608E0D3
:1029E000139801236A4608A900F0FEF800284FD189
:1029F000761C01988642F3DB2F6902AE0CE0317839
:102A00000998139A00F010F90990002840D0E8695D
:102A1000761C401CE8617F1E002FF0D13020AF698A
:102A200069460870002608E0139801236A4608A941
:102A300000F0DAF800282BD1761CBE42F4DB6F6977
:102A4000AE680CE031780998139A00F0EDF809901F
:102A500000281DD0E869761C401CE8617F1E002F0D
:102A6000F0D12820285C400700D449E620206946A0
:102A70000870002600E0761C0198864200DB3FE6E5
:102A8000139801236A4608A900F0AEF80028F2D096
:102A90000020C04315B0F0BC08BC1847622816D00F
:102AA00068280CD06C281AD0742818D07A2816D12F
:102AB0000A680A601068121D0A60002170470A68DF
:102AC0000A601068121D00040A6000140CE00A6815
:102AD0000A601068121D00060A60001604E00A6809
:102AE0000A601068121D0A60C1177047F2B5040031
:102AF000E06882B000906846007A6F2801D108250E
:102B000006E020220243782A01D00A2500E01025A1
:102B1000216818270E00642801D0692803D10029F4
:102B200001D570420600002E0DD1206A00280AD17E
:102B3000082D32D12820205C00072ED500993020A6
:102B40001727C87529E030002900FDF7F9FA303160
:102B500009067F1E090E01973A2903DB6846007AB1
:102B6000513809180098C15530002900FDF7E8FADE
:102B7000060004D00099A068C9198842E3D3082D43
:102B80000BD12820205C000707D50098C05D3028B5
:102B900003D000997F1E3020C8551820C01B6061EB
:102BA0000099C919A160216A884206DA081A0D49FC
:102BB000A061208D0140218510E000290ED528213B
:102BC000615C14220A40102A08D1616A2269891ABC
:102BD000A269891A0F1A012F00DBA76103B0F0BCAC
:102BE00008BC1847EFFF000079B50E0014001D0067
:102BF000002005E0F069641C401CF06100206D1E9F
:102C0000002D09D021787068009A00F00DF87060EE
:102C10000028EFD10020C04376BC08BC1847000054
:102C2000686C747A4C000000104700007847C0467A
:102C3000022CB0E1222482E1222882E104402DE925
:102C40000230A0E102E0A0E102C0A0E1101051E2D8
:102C50000C50A028FCFFFF8A81CEB0E10C00A02818
:102C600004208044811FB0E1B220C0200120C04474
:102C70000440BDE81EFF2FE11EFF2FE17847C0464C
:102C8000022CB0E1222482E1222882E1010080E0CE
:102C9000033010E20400000A031051E01100003A72
:102CA000833FB0E101206045B22060210230A0E105
:102CB00010402DE902C0A0E102E0A0E1101051E2B5
:102CC0000C502029FCFFFF8A811EB0E10C00202956
:102CD000042020450111B0E1B220602101206045AF
:102CE0001040BDE81EFF2FE1031091E001206015A8
:102CF000020011E3012060151EFF2FE11EFF2FE1EE
:102D00007847C0460020D0E5FF1001E2010052E301
:102D1000020031E10120F085FBFFFF8A0000A013D3
:102D20001EFF2FE17847C046013080E2001FB0E16E
:102D30000300000A0110D0E4000051E3FAFFFF1A7B
:102D40000A0000EA002090E528C09FE50C1052E040
:102D50000210D1E18C0311E10420B005FAFFFF0A53
:102D60000110D0E4000051E30110D014FCFFFF1A61
:102D7000030050E01EFF2FE1010101017847C0462A
:102D8000FF1001E2030010E30500000A012052E2F7
:102D90001C00003A0130D0E4030031E1F8FFFF1AD3
:102DA000160000EA082052E20E00003A042082E2F7
:102DB00030002DE9011481E1011881E14CC09FE54B
:102DC000043090E4042052E201302320AC4343203D
:102DD0000340C4210C001421F8FFFF0A3000BDE8B5
:102DE000FF1001E2040050E2082092E20130D0E43A
:102DF000012052E203003121FBFFFF8A0100A013F2
:102E0000010050E21EFF2FE10000B0E31EFF2FE1A2
:102E10008080808010B582B0C2480088894988428D
:102E200010D1012000900123012217211D2008F05C
:102E3000AFFB1F2000900523062217211D2008F05C
:102E4000A7FB13BD491C884200D0C5E02022082101
:102E5000172008F067FB7C4C22001021172008F097
:102E600061FB22001121172008F05CFB22001221D7
:102E7000172008F057FB22001321172008F052FBFF
:102E800022001421172008F04DFB220015211720E5
:102E900008F048FB22001621172008F043FB22000F
:102EA0001721172008F03EFB3F2000900623082240
:102EB0001021142008F06CFB002000900623002253
:102EC0001021142008F064FB5F20009008230022EA
:102ED0001121142008F05CFB5F20009008230822D9
:102EE0001121142008F054FB5F20009008230022D9
:102EF0001221142008F04CFB5F20009008230822C8
:102F00001221142008F044FB1A200090082300220C
:102F10001321142008F03CFB1A20009008230822FB
:102F20001321142008F034FB01200090012300221B
:102F30000521152008F02CFB012000900123092217
:102F40000521152008F024FB0F2000900623002205
:102F50000621152008F01CFB01200090012303220C
:102F60000521152008F014FB012000900823002201
:102F70000821152008F00CFBE020C0000090102371
:102F800000220921152008F003FB7C480090102343
:102F900000220A21152008F0FBFA052000900223E8
:102FA00000220C21152008F0F3FA012000900123E3
:102FB00003220C21152008F0EBFA012000900123D8
:102FC00008220C21152008F0E3FA012000900123CB
:102FD00009220C21152032E769496A48FEF7A4FA54
:102FE000C04610B50400FEF74BFE002802D1982120
:102FF000890004E0FEF760F9002803D162496148C6
:10300000FEF792FA08F05EFA002801D15F49F6E770
:103010000B48E207D20F0270A107CA0F4270610786
:10302000CA0F82700021C1702021001DFFF7CCF96A
:1030300000F00CF801205649086010BD00000000A7
:10304000EC5900405C1700003F3F0000F8B500213C
:10305000142008F03BFA4F4C4F49884200D1200021
:10306000304D28802888A0421ED14C4A05211F20BF
:1030700008F058FA4A4A16211D2008F053FAFEF7C4
:1030800053FD06000F002888A0421CD103211F20F9
:1030900008F01CFA8106C90F1ED02888A04225D14D
:1030A000220000211E2027E0611C884209D13B4AF2
:1030B0000321152008F036FAA02212020421142060
:1030C000DBE7B82129E0611C884202D101211520EB
:1030D000DEE7FF21443121E0FEF726FD801BB941E8
:1030E000002901D80A28CED32E4917E0611C884256
:1030F00012D122000221142008F014FAFA20C00094
:10310000FDF716F82888A0420ED101200090012377
:10311000072210211E2010E0C12149001948FEF7A6
:1031200003FAC046A05A0040611C884213D1032014
:103130000090022300221621152008F029FAFFF73B
:1031400069FE2888A04208D1E020009008230022D0
:103150001A211E200AE0CD21DFE7611C884208D138
:1031600000200090022300220821142008F010FA09
:10317000F1BD0D49D2E7064800687047C409000058
:1031800007020000F031000061020000620200004E
:103190000C0400405C170000FFFF0000508400009A
:1031A00020840000820200001D02000010B50E4ABB
:1031B000131D5468002C02D11860596010BD130013
:1031C0000C33D468002CF7D0130014335469002C4E
:1031D000F2D013001C33D269002AEDD00349C04657
:1031E00003A0FEF7A1F9C046EC59004037060000E5
:1031F000697031373563642E6370700070B582B0CA
:103200000500A14E3078002801D0522104E0FEF7DD
:1032100037FD002803D1532116A0FEF785F9FFF7EB
:10322000AAFF002801D15421F6E708F02DFB002861
:1032300001D15521F0E7954CC021C900200008308C
:10324000FFF7C2F8256092A000900023914A012167
:10325000FA208000FEF7E4FB606000228E498F4870
:1032600008F092FD0021B048FFF7A0FF0120307068
:1032700073BD00006172702E637070008248007828
:103280007047F2B582B004000020C04300250095CD
:103290000026A64F3968A14207D13C600622029958
:1032A000381DFEF711FF7D810EE0002903D1009942
:1032B000002900D100977989884201DA0800019736
:1032C000761C0C37802EE5D3802E15D1009800286F
:1032D00008D00460062202990098001DFEF7F4FE53
:1032E000009808E001980460062202990198001DE8
:1032F000FEF7EAFE0198458103B0F0BDF1B51C0070
:10330000A01D01780D024078054320000E300178A1
:103310000906427812040A43817809021143C078F1
:103320000843210018310A7812064B781B04134316
:103330008A7812021A43CE78164306991C293CD388
:10334000002803D021000831FFF79BFF012D34D165
:103350004E4F3868864230D108F056FE1C23744A1E
:10336000009908F0FDFD050004D1C04673A0FFF7E9
:1033700003F8F1BD1C222100FEF7A6FEA81D0021C6
:103380000170022141702800083008F035FE3968CC
:1033900028000E3009F009FF06222100083128001C
:1033A0001230FEF791FE04220E342100280018305E
:1033B000FEF78AFE280008F0F1FDF1BD0020002193
:1033C0005A4A1368002B07D05389772B02DA5B1C0B
:1033D000538101E000D11060491C0C328029F0D3E8
:1033E0007047000038B50500080013D000224F4B8D
:1033F00019000C68AC4205D10622091DFEF764FED7
:10340000012032BD0C310C68AC42F5D0921C18334F
:10341000802AEDD308F0F8FD1C23204A454908F026
:103420009FFD040004D1C0464FA0FEF7A5FF29E090
:103430000020207001216170A21C082313705070BD
:103440000622227104226271A21D107051702000A8
:10345000083008F0D1FD0D48016820000E3009F059
:10346000A4FE062120001230FFF7AAF82000183031
:10347000290E0170290C4170290A8170C570200045
:1034800008F08CFD002032BD10040040FC3C0040E0
:1034900041525000BD330000FD320000060800001C
:1034A000002900D1704738B508F0AEFD1C23204A32
:1034B000204908F055FD040004D1C04636A0FEF7AF
:1034C0005BFF31BD0020207001216170A21C082328
:1034D000137050700622227104226271A21D1070B6
:1034E00051702000083008F087FD134D2868210036
:1034F0000E31020E0A70020C4A70020A8A70C870FD
:10350000062120001230FFF75BF8286821001831EF
:10351000020E0A70020C4A70020A8A70C8702000FB
:1035200008F03CFD31BD0000A1340000043D004026
:10353000060800006CC00000FC3C00404152503ABC
:103540002043616E2774206765742054582062758B
:10355000666665722E205265706C79206E6F7420DD
:1035600073656E742E0D0A004152503A2043616E0D
:1035700027742067657420545820627566666572EA
:103580002E2052657175657374206E6F742073659B
:103590006E742E0D0A0000004152503A2043616EB5
:1035A00027742067657420545820627566666572BA
:1035B0002E20477261747569746F75732041525083
:1035C000206E6F742073656E742E0D0A000000006B
:1035D000F8B505000E00884F3878002801D0452145
:1035E00004E0FFF74BFE002803D146218348FDF796
:1035F0009BFF08F049F9002801D14721F6E7FEF7C3
:103600003FFB002801D14821F0E77D4C256366632C
:1036100000227C498020000108F0B6FB3021200008
:10362000FEF7D2FE01203870F1BD77480078704770
:10363000F8B51C000699142951D320780209042AF0
:103640004DD10F252840052849DBA61C32781202EF
:1036500073781A43914242D382002100002009F07E
:10366000ACFD6A4988423AD1607A65490F000A6820
:10367000824226D120780540AA0021001031200086
:103680000C30BB68009333781B0275782B439B1A70
:10369000A2180C7825064C7824042C438D782D0232
:1036A0002543C978294304782506447824042C430B
:1036B00085782D022543C07828437C6800F0CEF839
:1036C000F1BD0C37CA688242D4D00F0018378A691E
:1036D0008242CFD00F002437496A8142CAD0F1BD5F
:1036E000F7B506000D001F0043480078002803D1FD
:1036F0009E214248FDF718FF69462800FFF772FE39
:10370000002804D129004248FEF736FE0AE008F0FE
:103710007BFC3B00143380221201694608F020FC38
:10372000040001D100202EE01421FEF749FF4520BE
:1037300020701437A01C3904090E017047708020D6
:1037400020720298607220000C30310E0170310C32
:103750004170310A8170C67020001030290E01704E
:10376000290C4170290A8170C570142221000020A3
:1037700009F023FD2549414020000A300A0A027061
:1037800041701434200003B0F0BD80B5143808F047
:1037900005FC01BD38B5184B1B78002B01D1CB219E
:1037A00002E0002803D1CD211448FDF7BDFE144CE2
:1037B00023002568002D03D1186059609A6031BD3F
:1037C0000C33E568002DF7D023001833A569002DD0
:1037D000F2D023002433646A002CEDD0DD21E3E72E
:1037E00080B505480078002803D1FA210348FDF789
:1037F0009BFE0348006B02BD140400401438000017
:10380000845900403136000014040040FFFF0000DE
:103810001C38000069702E637070000049503A2017
:1038200043616E277420676574204D414320666FA5
:103830007220495020253038782E20546865207039
:1038400061636B65742077696C6C206265206472BB
:103850006F707065642E0D0A0000000020470000A4
:1038600010B52E4C2078002801D01D2104E0FFF770
:10387000DCFE002803D11E212BA0FDF755FE0022FF
:1038800027490120FFF786FF0120207010BD0000AE
:10389000F1B50C0015001F00082F3ED3287808282A
:1038A0003BD16878002838D11E4E3A00290009F033
:1038B00084FCB04231D13B00012200992000FFF787
:1038C0000FFF040004D1C0461AA0FEF755FDF1BD5C
:1038D000002020706070A11C087048700422291D0F
:1038E000201DFEF7F1FB3A00083A083529002000B8
:1038F0000830FEF7E9FB3A002100002009F05DFCEA
:103900004640A01C310A017046703A002100002098
:1039100009F053FC2000FFF738FFF1BD130400400D
:1039200091380000FFFF000069636D702E637070B6
:103930000000000049434D503A2043616E27742037
:103940006765742054582062756666657220666FDC
:10395000722050494E47207265706C792E0D0A0016
:1039600010B5894C2078002801D02F2104E0FFF702
:103970005CFE002803D130218448FDF7D5FD50219D
:103980008348FEF721FD002282491120FFF702FF44
:103990000120207010BDF8B506000D0014001900BC
:1039A000FEF7FEFC0090FEF791FC002915D109F00E
:1039B00027FB7949FEF70EFD491C0904090C744BDD
:1039C0000A331A888A42F2D09A8A8A42EFD01A8D34
:1039D0008A42ECD0988F8842E9D06D4B1A001800CB
:1039E0000A300788002F0CD1166015815460518170
:1039F0000698D060079810610098FEF7D7FC080081
:103A0000F2BD1432878A002FEED01A002832078DBB
:103A1000002FE9D03C331A00808F0028E4D07721B2
:103A20005A48FDF781FDC04670B5594C25002668FF
:103A300086420BD126898E4208D16668964205D10E
:103A400066899E4202D10020688170BD1435666986
:103A5000864208D1A68B8E4205D1A669964202D134
:103A6000E68B9E42EFD025002835A66A864208D113
:103A7000268E8E4205D1E66A964202D1668E9E421D
:103A8000E1D025003C35E66B86420AD12000443067
:103A900006888E4205D1216C914202D1408898421D
:103AA000D1D08E213948FDF73FFDC04670B50E00DC
:103AB00011001D00049C230008331122FFF710FEA3
:103AC000002811D0310A01704670811C2A0A0A7040
:103AD0004D700834011D2204120E0A704C70811DB5
:103AE00000220A704A70083070BD80B50838FFF7B0
:103AF0004CFE01BD082B00D27047FBB584B0101DF1
:103B0000017809024078014399423AD110780002C5
:103B1000517808430390901C01780B0240780343CE
:103B200000211B4C20004589002D13D00668002E73
:103B300002D0049FBE420DD10689002E02D0039F01
:103B4000BE4207D14668002E02D0059FBE4201D179
:103B50009D4203D0491C14340429E3D3042910D214
:103B6000C46821000DD000690290069808380190C1
:103B700008320092059A03990904090C049800F090
:103B800011F807B0F0BD00001C0400409C3B000091
:103B900074580040F53A0000FFFF00007564702E75
:103BA000637070002047000030B583B0154D287851
:103BB000002803D02B211448FDF7B6FC134CC04657
:103BC0000EA000900023124A01216420FDF728FF77
:103BD0002067FFF705FE00210191B8490091FB2302
:103BE0005B00020000210020FFF7D5FE70212000BD
:103BF000FEF7EAFB0120287003B030BD5052584D4B
:103C000053470000190400400441000004430040F1
:103C1000153C0000F0B589B0FDF746FB0790A84FB2
:103C200004200690A7480490B81E0078002800D110
:103C30003CE1F8680799091AA34A914200D235E19C
:103C4000A24A914201D3079801E09F494018F860C9
:103C50003C000C3C0798B968401A904204D31C21E0
:103C60002000FEF7ADFC21E1B888401CB880F88840
:103C7000401CF880FFF7B4FD3E2100913B8822688C
:103C80007988FFF713FF0590002800D10EE1C046A8
:103C900096A003C801AA03C208AA01A9059809F0C1
:103CA000AEFAF888694688808948018801A809F039
:103CB00007FB012001A98880FFF792FD01A9887107
:103CC0006A460021089809F003FB0098052101705D
:103CD000002141700098822181700021C170B88854
:103CE00000990871009908784A781206120C10435E
:103CF00001A98988081801A988806946002009F06F
:103D00000CFB0098042101700021417000988A2169
:103D100081700021C170009C241D26212000FEF727
:103D20004FFC09F0D1F8012817D01AD303280CD082
:103D30000FD3052801D004D313E066482070092072
:103D400011E06548207009200DE0644820700920CA
:103D500009E063482070092005E0624820700920CE
:103D600001E0002020706070A51C04984068803835
:103D70002870002068700120A870E870291D5A483A
:103D8000406D09F0D7FA083529000498806809F0D9
:103D9000D1FA012003900E340C212000FEF710FC14
:103DA00004984068022801D0032822D1039D6D1E8B
:103DB000280000F06CFA00281BD0280000F071FAEF
:103DC0000600280000F0A8FB0500B078400820702D
:103DD00000206070B078C107C90FA1700120E070A9
:103DE000211D286809F0A6FA21000831E86809F0C9
:103DF000A1FA0398401C03900C340328CCD30099FB
:103E000008784A781206120C104326300870000A0F
:103E10004870009908784A781206120C104301A9DC
:103E20008988081801A988806946002009F075FA78
:103E30000098042101700021417000988D2181704B
:103E40000021C17009F040F86946087304980079B0
:103E50004006400E03A9487004980068887000204E
:103E6000C87004220098001DFEF72EF9009908780A
:103E70004A781206120C1043001D0870000A4870A0
:103E8000009908784A781206120C104301A9898813
:103E9000091801A881800904090C09F015FA01A983
:103EA000059809F0DDF90598FFF71FFE1C37069805
:103EB000401E069000D0B7E609B0F0BDF53E000008
:103EC00010430040C84208E040420F00404B4C0005
:103ED00026150000AE090000A409000053090000E7
:103EE0003A09000039090000440000000000000009
:103EF00000000000FBB588B07D480078002802D1A2
:103F00009321490060E0FDF7CFF9079081A003C835
:103F100005AA03C204AA05A9109809F070F975480A
:103F2000018805A809F0C1F9002800D1DDE06A4642
:103F300005A88088411E0904090C049809F0C8F9F5
:103F400001906D4F6D4D5CE000240126012026217B
:103F5000795C002901D1012403E0F969089A9142B2
:103F60006AD00220390038318A7A002A01D102242D
:103F700003E00A68089B9A425ED003205E22BA5C86
:103F8000002A01D1032407E0C969089A914253D05D
:103F90000020C04384422FD0009908784A78120646
:103FA000120C10430A2827D1280006F094F954492E
:103FB0000978014320D0E000001B80003C18A07A63
:103FC000002843D0FF2168314EA0FDF7ADFA0798D5
:103FD000606102A90898FFF705FA00280CD00622B4
:103FE000211D02A805F028FA002805D0062202A902
:103FF000241D2000FEF768F86946019809F08DF944
:1040000001900198002870D000998878CA7812062B
:10401000120C1043822802D0C32827D0ECE705A851
:1040200080790028E8D10024E443B97A00298BD0B4
:104030003968089A914288D1C100081A80003C185A
:10404000A07A0028C3D1FF214E31BDE7A6720798A0
:104050006061089820606846808CA0816846008D69
:10406000E08102A90898FFF7BDF9BDE705A88079AE
:104070006428C1DA08784A781206120C1043042822
:104080001ED006281CD0082803D00C2801D01028E8
:10409000B2D1280006F01FF91949097801430FD061
:1040A0000098C088012805D0022806D1280006F013
:1040B00021F902E0280006F018F9280006F006F9B8
:1040C000280006F008F9002805D0B1208000285803
:1040D000642800DB3220FA21490082001018081AF7
:1040E000FDF734FD002005F044FD0BB0F0BD0000ED
:1040F000190400402615000004430040004008E079
:10410000120400407072617869735F6D73672E638B
:10411000707000000000000000000000012900D0C5
:1041200070471CB564490C6821000ED00499082919
:1041300003D037217048FDF7F7F9196800916946F7
:104140009B888B80CA8009F009F913BD10B50C005B
:104150001100062C3AD1082B03D058216648FDF7F0
:10416000E3F9CA88002A07D18B88042B04D1096897
:10417000624A0001115027E0002A08D18B88052BE4
:1041800005D109685D4A0001101841601CE0002A51
:1041900008D18B88062B05D10968584A00011018F0
:1041A000816011E0002A08D18A88072A05D10968B0
:1041B000524A00011018C16006E03F4A126813001D
:1041C00002D000F019FA02E0002000E0702002990D
:1041D000088002200399086010BDF8B51400FDF7AF
:1041E00063F80600271DB81C09F0BAF80725000A75
:1041F0002840082809DBB81C09F0B2F8000A05407D
:1042000029003F48FEF7B8F8F1BDB81C09F0A8F83E
:1042100032002100284B000A05402801401BC00045
:104220001818B03009F046FAF1BD10B5224C012142
:104230002000B03009F046FC0121942040002018F5
:1042400009F040FC0121D0204000201809F03AFC80
:10425000012186208000201809F034FC0121A420CF
:104260008000201809F02EFC0121C22080002018B7
:1042700009F028FC0121E0208000201809F022FC30
:104280000121FE208000201809F01CFC10BD80B523
:1042900009490201101AC0000818B03009F0C9F825
:1042A00002BD80B504490201101AC0000818B030E0
:1042B00009F0C4F802BD000028490040F4B504002C
:1042C0000D001E00964F002D06D1102195482201A9
:1042D0008018FEF775F904E0A0003818002101618C
:1042E0000163BF68380005D03300009A2900200020
:1042F00009F0E1FCF1BD000054450000F856004013
:1043000074450000F0B589B0FEF74AF80500FDF7E6
:10431000DDFFFDF745FFFCF7C7FF040004A90020FF
:10432000FCF708FE0020FCF717FE2800FEF73EF819
:104330007B4D286D7C4E8100091889007118049A04
:104340004A60059A0A60069ACA60079A8A606A6E8D
:10435000A21A0A616C660A27401C0A21FBF7F0FECC
:1043600029650020002202900190009000247168CD
:10437000521802993368C91802910199F368C91853
:1043800001910099B368C918009131696418143615
:104390007F1EECD1002C02D1002603902AE01000F1
:1043A0000021624A0023FEF71DF922000023FEF7D8
:1043B00025F90600029800215C4A0023FEF712F955
:1043C00022000023FEF71AF9039001980021574AB2
:1043D0000023FEF707F922000023FEF70FF907007C
:1043E00000980021514A0023FEF7FCF82200002328
:1043F000FEF704F92866EF650398A8656E6509B0B5
:10440000F0BD0000F3B585B015001E00FBF778FE87
:10441000002802D1FF21BC3105E0FBF779FE00281E
:1044200004D1DE2149004248FDF77EF8FDF728FC63
:10443000002802D1FF21C031F5E7394C26600C98E5
:104440006060A5602820019000200090394B0D226B
:104450000021FCF702FE80213248FDF7B5FF202144
:1044600020007030FDF7B0FF202120001030FDF754
:10447000ABFF202120003030FDF7A6FF20212000D7
:104480009030FDF7A1FF08F07DFF002700252600F2
:10449000B0366946142008560390274802902748F2
:1044A0000190274800900023069A0399300008F0F5
:1044B0007DFFFDF70BFF290008F0A4FFFDF710FFBB
:1044C0006D1C7836082DE8D31E48009000231E4A44
:1044D00001216420FDF7A4FAA066FCF7E5FE606602
:1044E000C8211148FDF770FF27650020FCF734FD57
:1044F0006765A765E7652766E766144800900023AF
:10450000134A0121C820FDF7CBFAE060FCF7CCFE8E
:1045100009F0D2FB07B0F0BD02490001081870474E
:1045200028490040F85600403056004080969800D8
:1045300054450000DB410000BD4200004D41000039
:104540001D410000BC45000005430000DC450000A3
:104550002B42000063616E5F636F6D6D756E696302
:104560006174696F6E5F636F6D6D6F6E2E637070D7
:10457000000000005278206D73672066726F6D2016
:10458000626F617264506F736974696F6E20282561
:104590006429203E3D204D41585F494F5F424F41C5
:1045A00052445F434F554E542C6D736720646973BA
:1045B0006361726465642E0D0A0000004F6E4361F2
:1045C0006E53746174697374696373506572696F53
:1045D0006469634576656E74000000004F6E436148
:1045E0006E4B656570616C697665506572696F6464
:1045F00069634972716C000010470000F8B504004F
:104600000F0015001E00FCF7E0FF7A482060002034
:10461000C043E0612772E56066610698A0612000F2
:10462000F2BD000030B583B01C006846111D0622A3
:10463000FDF74AFD6D46A81C08F092FE4005400FAC
:10464000E168884201D0202106E0A81C08F088FE1D
:104650000105C90F03D121216748FCF765FFA81C9C
:1046600008F07EFE0007000F032801D02221F3E7A7
:1046700003A32A8866212000FDF743F803B030BD6C
:104680004556454E545F545950455F4348554E4B2F
:104690005F524551554553545F4D4553534147452E
:1046A0005F5245434549564544000000F0B585B08A
:1046B0000E001500C1690022D243914201D12B2185
:1046C00002E0092D03D32D214B48FCF72DFF01A952
:1046D00000220023002400279CC1802212060192A0
:1046E00001ACC169009103230022C168201D0AF0BA
:1046F000C5F80198BE4901402804F0221203024087
:104700000A4301922A00310020000830FDF7DCFC4A
:104710000834220003CEFDF70FFE0023002201A97A
:104720000020FCF707FA05B0F0BD000070B50400EA
:1047300016001D002A006069FDF7C6FC206900F024
:104740001FFB2800304301D150210BE06663A563B5
:10475000E0690021C943884212D0C000616B8842E1
:1047600003D05A21ACA0FCF7DFFE4A19121A092A1D
:1047700000D308226369401A19182000FFF796FF3A
:10478000002070BD7CB5040025000C350020287584
:104790006875A862E8620026F6432E612968491C04
:1047A000A5A005F023FDC046ABA00190002000901D
:1047B0006523220001210A20FDF75EF9A86100208F
:1047C000009033003200310020002C300AF056F8FF
:1047D00000200090032301222968200030300AF0D5
:1047E0004DF80094834B6A6A296A0020FCF7DEFBCF
:1047F00073BD000040530000184A0000F0B585B0BA
:1048000005004868652822D108352C00207E002844
:1048100000D0EAE02056042813D1002001A900228C
:104820000023002500266CC1802212060192009010
:1048300004230022616801A8001D0AF01FF800236C
:10484000A2E0052801D10320E8E795217EE0662853
:1048500000D0BFE02C000834207E002803D10120C6
:10486000207600206063607E002800D0BDE088686C
:1048700060616149884200DB8CE0C50028050FD1EA
:10488000606B85420CD00020205604F015FAAB0A6C
:1048900002006168491CC04674A005F0A7FC65636E
:1048A000E06A854201D2C72150E0216B41188D4258
:1048B00033D24E1B092E00D30826E168281A0F18A0
:1048C00060690021C94388423FD0092E01D32D21C0
:1048D0003CE001A800210022002300252EC08021F9
:1048E0000906019101AD6069009003236168281DEC
:1048F00009F0C4FF01983E4901403004F022120340
:1049000002400A4301923200390028000830FDF7C6
:10491000DBFB08352A0003CF33E0A068002806D06F
:1049200000F03AFA002802D0A06800F02FFAE06AFE
:1049300000285AD0206B80218900884255D2E66831
:1049400060690021C943884203D12B2132A0FCF7C2
:10495000EBFD01A800210022002300252EC08021AC
:104960000906019101AD6069009003236168281D6B
:1049700009F084FF01981E490140019108352A0081
:1049800003CEFDF7D9FC0023002201A90020FCF78B
:10499000D1F82AE06168491C3CA005F027FC012001
:1049A0006076A068002806D000F0F6F9002802D052
:1049B000A06800F0EBF900F0B8F8C0463BA0019009
:1049C0000020009006232A0000210C48FDF754F82F
:1049D00020620AE0062808D128000830006AFDF7A6
:1049E00077F800212800FDF7A6F905B0F0BD00001A
:1049F000FFFFF0FF25460000FFFF0000B80B00009E
:104A000010B50400226BE16A0020FCF7FBFA606A33
:104A1000FDF75EF810BD000073746174655F75701A
:104A2000646174655F696F5F626F6172645F746611
:104A300074702E63707000000C426F6172642025E8
:104A4000643A0D0A5374617274696E6720626F6F05
:104A5000746C64720000000073656E64207374618E
:104A6000727420626F6F746C647200000C55706415
:104A70006174696E6720426F61726420256416025A
:104A80000125733A2025644B000000000C426F6141
:104A900072642025643A0D0A55706461746520665D
:104AA000696E69736865642E0000000074656D703E
:104AB000206D65737361676500000000F1B582B019
:104AC0000F0016001D00A5480078002803D03721EC
:104AD000A348FCF729FDA34CA34800900023A34A58
:104AE00001216420FCF79CFF2063FEF779FE002182
:104AF00001919F4900914523020000210020FEF70B
:104B00004AFF1C212000FDF75FFC48219948FDF772
:104B10005BFC0298E06127626662A5620898E06229
:104B200001208E49087003B0F0BD80B58B48017834
:104B3000002903D154218A48FCF7F6FC00210170BA
:104B4000FEF74EFE4523020000210020FEF76CFF19
:104B50008448006BFCF7BCFF01BD10B5814841895A
:104B6000002901D009F0B0FF824CA088002802D0B3
:104B70002000C046C046A08B002803D0200018307B
:104B8000C046C046A08E002803D030342000C04666
:104B9000C04610BDF0B585B006000D006F48007826
:104BA000002803D189216E48FCF7BEFC0A9F3878A3
:104BB000000279784418601E01283FD8BF1C3800D5
:104BC00000E0401C002141560029FAD16A49401CEE
:104BD00004F0BEFC002806D0452000902B003200D7
:104BE0000021F82027E0022C1FD15E4C60890028AC
:104BF0000ED101AA01213800E36900F0E7F800288E
:104C00000DD1019B2A003100200009F0AFFE45E0E4
:104C1000452000902B0032000021F9200BE04521B7
:104C200000912B003200002105E0452000902B0070
:104C300032000021BC3000F04DF82FE083246400E6
:104C4000200009F0B3FF070006D0FEF76BF8040060
:104C5000652C08D3642406E02200484968460AF01F
:104C60003FF804006F46FEF7BBFD611D00912B006D
:104C700032004521FEF71AFF06000FD000253570DF
:104C800005207070B570F57022003900301D04F0F9
:104C90000FFC301905713000FEF727FF05B0F0BD9D
:104CA000F8B504000F0016001D00FEF799FD042161
:104CB000009133003A002900FEF7F8FE002808D0E2
:104CC0000021017004214170210A8170C470FEF737
:104CD0000CFFF1BDF0B585B0040015001E0009F011
:104CE00065FF070006D0FEF71DF80400652C08D309
:104CF000642406E022002149684609F0F1FF04001F
:104D00006F46FEF76DFD611D009133002A000A9980
:104D1000FEF7CCFE06000FD0002535700520707020
:104D2000B570F57022003900301D04F0C1FB301958
:104D300005713000FEF7D9FE05B0F0BD80B5010069
:104D400008484289002A02D002688A4204D0A5217C
:104D500049000348FCF7E8FB02BD00001B040040CB
:104D6000A44D0000DC570040B04D00005B4B00003C
:104D7000954B0000C4580040B84D0000C04D0000E5
:104D800080B5FFF7DBFF09F0C7FE01BD80B5FFF777
:104D9000D5FF09F0D6FE01BD80B5FFF7CFFF09F0C2
:104DA000E8FE02BD746674702E637070000000002F
:104DB00054465450000000006F6374657400000096
:104DC00053544154555320256400000018470000F7
:104DD00008B410B585B007AB0024039302940029F2
:104DE00002D10094019402E0491E0090019103ABAE
:104DF0006946084878441C30FDF76EFC009900298C
:104E000000D00C70002800D4029805B0019910BCA5
:104E100002B008477504000038B505000C00FCF727
:104E2000D4FB0E482860AC60280032BD80B5816894
:104E30000BA005F0DBF901BD80B54A68092A02D153
:104E40008D21490007E0022A07D18968002902D094
:104E5000032902D10349FCF76EFF01BDF85200009F
:104E60000C25730002080000F8B504000F001500BF
:104E70001E00FCF7AAFBA0482060A760A564E664BA
:104E8000069820652062052F32D801A0C05D8744B6
:104E9000041A2A383C4E99A06061012084214900FF
:104EA0006054C04615A060652000F2BD93A060610B
:104EB000012084214900605413A0F4E790A06061B0
:104EC0000020842149006054EEE78EA0F7E78BA014
:104ED00060610120842149006054C0460CA0E2E7D3
:104EE00086A0606101208421490060540BA0DAE7AC
:104EF0001C21C046C0A0FCF717FBC04643504C2DF8
:104F0000424C2D555342000043504C2D4657000053
:104F1000494F422D424C2D43414E0000494F422DF6
:104F20004657000070B5040025001435AB4E220032
:104F3000283221001831300003F061FB012801D133
:104F40006E2070BD002801D06F2070BD287D002824
:104F5000EDD02868297F002282569142E7D1697FEF
:104F6000012282569142E2D1A97F022280568142DB
:104F7000DDD121002831200058300CC90CC025009B
:104F800060352E202870032221003031613420004A
:104F9000FDF79AF80020287170BD000010B50400DC
:104FA0000021012005F050F8E068002805D0022813
:104FB00012D00BD3032814D019E0A72160549834E1
:104FC0002100C0468AA005F011F910BD0020210083
:104FD000A7310874A834F3E70020C7216054B8341F
:104FE000EEE700202100C7310874C834E8E75D21EE
:104FF00081A0FCF799FAC046F0B583B0040005F033
:105000003FF82100583176A005F0F0F8002101208A
:1050100005F01AF800252600483620006830009078
:10502000B3680122210058316C4803F0D1FB0028FD
:1050300002D0C04677A032E08020800071688142B3
:1050400003D275216CA0FCF76FFA009001AB3268B7
:10505000B1682000683003F0CFFC002802D0C046C1
:1050600070A01CE084204000205C00281FD0270096
:105070008437380031685B4A89188422FBF750F87E
:10508000F06B2100D831091DC91B884206D3F16895
:105090002000983004F05CFA002803D065A005F0E9
:1050A000A5F808E001252000FFF778FF03E04EA0F7
:1050B00005F09CF80125280003B0F0BD10B50400F0
:1050C0002200183249A1454803F0E4F9002802D033
:1050D000FF211A3105E02000FFF724FF002804D04B
:1050E00001002000FCF727FE10BDE0602000FFF764
:1050F00083FF207410BD00002853000042494E0079
:10510000434647005843500038B504004868092812
:1051100002D18D21490053E002285DD18868012821
:1051200011D125000C352879002855D08420400065
:10513000205C002850D02868002801D10420286075
:105140002868401E10E0022813D125000C3528796C
:10515000002841D084204000205C00283CD02868F2
:10516000401C042800D1002028602000FFF716FF13
:1051700031BD002806D120000C30007900282BD04A
:1051800000211DE0032827D12000FFF7CBFE6E2869
:1051900013D12200183215A1104803F07BF9002822
:1051A00001D0E52105E02000FFF7BCFE00280BD070
:1051B000E821C04610A0FCF7B7F9002804D0010090
:1051C0002000FCF7B8FD31BD25000C35002028601B
:1051D0002000FFF711FF287131BD000004330040AB
:1051E0000C257300440000002D2D2D000000000050
:1051F0003C252D3134733E0073746174655F6272B7
:105200006F7773655F666F725F66696C652E63703A
:105210007000000043616E2774206F70656E206916
:10522000742E000043616E277420726561642069EA
:10523000742E0000496E76616C69642066696C6545
:105240002E000000259C000068010000B80200400C
:1052500000000000519C0000B80100007001000037
:105260000001004000000000496E7465726E616CC0
:10527000496F426F617264476F6F64446F776E4528
:1052800076656E74000000008268521C826042687D
:10529000002A06D00268531C036011704168491E41
:1052A0004160704738B505000C00200009F012FE7F
:1052B000A04200D00025280032BC08BC18470000DE
:1052C000E000000001000000C9D1E1E90400000095
:1052D000000102039100000043414E206D6573738D
:1052E000616765207265636569766564000000002A
:1052F00000000000000000002D4E0000394E0000AC
:105300009F230000000000000000000000000000DB
:1053100007E3000013E300009F23000000000000EB
:105320000000000000000000BD5000000951000016
:105330009F230000000000000000000000000000AB
:1053400085470000FD470000014A00000000000002
:10535000000000000000000011E400007DE40000F7
:10536000DDE500000000000000000000000000007B
:10537000D5DE0000EDDE00009F23000000000000ED
:105380000000000000000000E9DF000055E0000020
:105390009F2300000000000000000000000000004B
:1053A0003DC3000085C30000E5C40000000000000C
:1053B000766563746F722E68000000007665637412
:1053C0006F722E6800000000FEFFFFEA07B489B08C
:1053D0000020C04300900026AA27E0252D0647E0C4
:1053E00013680B60001D091D121D0B9B9842F7D31B
:1053F0000098A0421DDAAF605520A86032200190CD
:105400000294039406A901A8314A00F06FF8AF6036
:105410005520A86034200190029403942D480490F4
:1054200006A901A82A4A00F061F8AF605520A860DB
:105430000094322001900294039406A901A8244A02
:1054400000F054F8AF605520A86033200190029618
:105450000A9803900B9804901E48059006A901A88D
:105460001B4A00F043F8AF605520A8600B9836182F
:10547000099886421BD280200002864201D2340B5A
:1054800008E0F020C002864202D2F40BE41D01E0E5
:10549000340B623C1048864204D31048B04201D31A
:1054A0000094E3E700200E498A190A999DE70D4808
:1054B00000680D49884206D128680121014329600E
:1054C000AF605520A860AF60E8680090FEE700007C
:1054D000F1FFFF7F4019010000600000FF7F000026
:1054E00000000100FC4708E055AA55AA104700003B
:1054F00000000000010000000000000000000000AB
:10550000000000000000000000000000000000009B
:10551000000000000000000000000000000000008B
:10552000000000000000000000000000000000007B
:10553000000000000000000000000000000000006B
:10554000000000000000000000000000000000005B
:10555000000000000000000000000000000000004B
:10556000000000000000000000000000000000003B
:10557000000000000000000000000000010000002A
:045580000000000027
:1080000070B50C001D001600042E05DA01230022B5
:1080100000F0E8FF002802D00020C04370BD30010E
:108020002018DF2149004118087A4A7A12020243D7
:10803000887A03041343C87A00061843002D01D040
:108040000A782A70049A002A01D00B791370059AD5
:10805000002A0AD00B7B4C7B24021C438B7B1B0425
:108060002343C97B09061943116070BDF4B50D00A7
:108070001C002070009921610123009A290000F062
:10808000B1FF002802D00020C043F2BD2F000D3701
:10809000387820757878B97809020143E182B87997
:1080A000F97909020143A1610AD1F87C397D0902FD
:1080B0000143787D00040843B97D09060143A161AD
:1080C000787AB97A09020143E161002608000ED1ED
:1080D000F87D397E09020143787E00040843B97EA9
:1080E00009060143E1610B222900473102E00B221E
:1080F00029002B31A01CF9F7E7FF667339797879ED
:108100000002084320840099E28A8918A162E2698A
:1081100052008918002809D04001BA4A801802127A
:10812000D20D10184012081820630BE021632D3582
:10813000F87F297809020143687800040843A97888
:1081400009060143E162A069216B401A217DF7F71E
:10815000F7FF6062AC49884205D3AC49884201D23E
:10816000012600E0022666700020F2BDF5B583B05E
:108170000D001E004078002837D170083418802286
:1081800092002100684601F045F900980399896A38
:1081900047180498006887420AD001233A00290052
:1081A0000398007800F01EFF00281AD10498076099
:1081B000802292002100684601F02CF9019C03986E
:1081C000407800282DD18F4884421ED12C5C7F1C22
:1081D00001233A0029000398007800F003FF0028EB
:1081E0000DD000200499086007E0012801D1740037
:1081F000C5E7022801D1B400C1E7A5482BE00498E7
:10820000076028780002204304E0281901784078AC
:1082100000020843F10701D504091BE00405240D01
:1082200018E0012805D128190178407804020C4390
:1082300010E002280DD128190178427812020A4371
:10824000817809041143C078000608430401240919
:1082500000E08F4C200005B0F0BDF8B584B00700F9
:108260000E00150078780A9C00281CD1590858186F
:1082700000902405240D80229200009902A801F0AC
:10828000C9F80298B96A40180190296888421BD041
:10829000012302003100387800F0A4FE002811D03C
:1082A00000202860AAE0012804D15800009024048E
:1082B000240CE0E7022800D0A0E098000090240100
:1082C0002409D8E70198286080229200009902A82A
:1082D00001F0A0F803980090787800285ED1049807
:1082E000C107C90F019100D0240100984549884277
:1082F00040D170180199002907D001780907090FAA
:10830000F02323400B43037000E0047001232A682C
:108310003100387800F082FE002807D10123286858
:10832000F96942183100387800F078FE002867D1EA
:1083300001236A683100387800F054FE002816D115
:108340000198002801D0002005E03078F02101409C
:108350002007000F0843307001236A683100387825
:1083600000F05CFE00284BD1012368683FE000214B
:10837000696045E03018F0220F21019B002B06D0E8
:108380000378194022400A430270002104E004707F
:1083900043781A4021401143417006E001280DD175
:1083A000009830180470210A417001232A683100B6
:1083B000387800F033FE002822D116E002281DD1C3
:1083C000009830180470210A4170210C8170C17826
:1083D000F0220A40210E1143C17001232A683100A6
:1083E000387800F01BFE00280AD101232868F969BB
:1083F00042183100387800F011FE01E00020C0433F
:1084000005B0F0BDFF010000F50F0000F5FF000012
:1084100070B504000D00260020220B21FAF72EFC77
:108420000020E072200003E020393170761C6D1CC2
:108430002978002912D05C2910D0331A0B2B0DDAC1
:108440000B00613B1A2BEFD32E2903D16D1C2600A4
:108450000836EDE731706D1C761CE9E770BD70B52C
:1084600082B005000E0000200090022400E0641C91
:10847000686A844209D223006A4631002800FFF767
:1084800075FE0028F3D1200076BD014876BD0000BE
:10849000F7FFFF0FF0B58BB007000D0016000020AE
:1084A00030732800FAF73EFC002807D02800FAF7BE
:1084B00039FC01281DD128785C281AD17878022847
:1084C0000CD1F86A30600020307170710123386B74
:1084D000F96A891E3A7D5143421805E00020306058
:1084E000307170710123FA6AB168387800F07AFD52
:1084F00083E0787802280CD1F86A3060002030716F
:1085000070710123386BF96A891E3A7D5143421814
:1085100005E000203060307170710123FA6AB168A3
:10852000387800F05FFD002849D100E06D1C287804
:108530005C2803ACFAD02878002858D02900684677
:10854000FFF766FF0020207003AA3100380000F01A
:1085500056F8002806D10B22694603A800F06CFFEC
:108560000028F1D10B22694603A800F065FF00281E
:1085700028D1E07AC00625D5787802280AD1A07ED5
:10858000E17E09020143207D02040A43607D00066A
