:1000000018F09FE518F09FE518F09FE518F09FE5C0
:1000100018F09FE5606FA0B814F09FE514F09FE51D
:10002000583A0000983C0000983C0000983C0000C2
:0C003000983C0000F00F00007C0F000066
:100044008400000050415442000000000000000001
:1000540000000000494F422D424C2D43414E000008
:1000640000000000414C4C2D494F2D424F41524459
:1000740053000000780000000000000000000000B1
:100084000000000076312E33362E312E3000000071
:1000940000000000012401007F0F010000000000A7
:1000A400000000000000000000000000000000004C
:1000B400000000000000000000000000000000003C
:0400C4000000000038
:1001000008B4024B9C4608BC6047C0468C100000F7
:1001100008B4024B9C4608BC6047C04680100000F3
:1001200008B4024B9C4608BC6047C046501B000008
:1001300008B4024B9C4608BC6047C046E01C000067
:100140000A6802604A6842608A688260C968C16061
:100150007047F3B589B0FFF7D3FF002802D0FF2125
:100160002C3105E0FFF7D4FF002803D19621490088
:1001700000F09DFD01F0D4F902AA03C2A848009046
:10018000A84F02E0009801F0A8FB009801F098FB4E
:1001900006006DD00124306A2040F3D102A80CC8BB
:1001A00003CE083E121A8B4138004C300999890061
:1001B000405800218B4201D8824228D300209A491E
:1001C000302242438918A422D200891828228A5654
:1001D000002A05D0C96A622902D0FF215231C7E73F
:1001E000401C0328EBDBB46904A83100083110225D
:1001F000FFF796FFF569009801F06FFB2000C4D06F
:100200002B0004AA0999622000F02EFEBDE7864863
:100210000A99302251434018A421C90045182820CA
:100220002856002802D0FF216A31A1E728003100BA
:100230002822FFF775FF0020290028314860282177
:100240006C54009801F049FB7878A968FF2291432B
:100250000143A960401C78700835290009980028DE
:1002600036D18D4D0A98002803D002281DD00ED318
:100270002EE0A8698008044002D1FF217E3177E793
:100280008648FFF75DFF01F0BBFC21201AE0A8695A
:10029000800A044002D1FF21883169E78048FFF7D6
:1002A0004FFF01F0ADFC41200CE0A869800C044038
:1002B00002D1FF2192315BE77A48FFF741FF01F05D
:1002C0009FFC812028600320FFF732FF01F026FD0C
:1002D0000BB0F0BD70B50400734DFFF711FF00289F
:1002E00002D0FF21CE3105E0FFF712FF002804D134
:1002F000E7214900280001F01BFD00204A4DA922FA
:10030000D2003021414369188956002904D045485C
:100310004078002803D170BD401C0328F1D3022689
:10032000302070432818A921C9004056002803D165
:1003300031002000FFF70DFF761C032EF0D370BDB7
:10034000F2B506001700584DFFF7DAFE002802D07C
:100350008C21890004E0FFF7DBFE002803D153491C
:10036000280001F0E5FC002F01D15149F8E72E48A3
:100370000099302251434018A421C9004418282074
:100380002056012803D0022801D04A49E8E7E06A54
:10039000002801D04849E3E7E762002E18D13E4823
:1003A0000099002903D0022909D004D310E001F0FC
:1003B00027FC222106E001F023FC422102E001F0AB
:1003C0001FFC822101600320FFF7B2FE01F0A6FCB2
:1003D000A569280006D0E3690834220031003800FE
:1003E00001F0E4FCF1BD38B584680E4D286D00289D
:1003F00002D1944900F05BFC01F064F8002028650C
:10040000200000F05FFB01F0D3FC200000F0D5FBE2
:10041000002802D1200000F069FC01F0D3FC31BDBE
:10042000980F004030140040980A004070B5040056
:100430000E001D4DFFF764FE002802D0AC2189009C
:1004400004E0FFF765FE002803D17F49280001F092
:100450006FFC7E480068002100E0491C7C4A814214
:100460000DD20B01D218121D736815681D40536818
:100470009D42F2D1956828000CD0D36805E0A00019
:100480001018456C290005D0836C32002100002033
:1004900001F08CFC70BD0000044004E0304004E03A
:1004A000404004E0504004E0F80D0000310200003C
:1004B000320200003A0200003D020000F0B583B0B5
:1004C0000027002563480190280000F076FB0028F3
:1004D00000D190E001F094FB5D48405D002819D008
:1004E0005B494F5501F01AFC6121280000F01EFC09
:1004F0005748006D002801D0574917E05748009031
:100500002B00574A0021FA20800000F0B1FF50492B
:10051000086501E001F002FC01984069C04600282E
:1005200035D0FFF7EDFD002802D04E4900F0BFFBAB
:10053000FFF7EEFD002801D14B49F7E74B48A90032
:10054000405800904248A9014418543406E0010084
:100550002800FFF76BFF019801F0BFF9019840698F
:10056000C046002813D0019801F0AAF9009900298B
:10057000EDD00021CA00A31846681A6832405B68B3
:100580009A42E4D0491C009A9142E4D2F2E7002456
:100590008848302161434618A920C00030560228FF
:1005A00026D1FFF7ADFD002801D08349BEE7FFF754
:1005B000AFFD002801D18149B8E7A420C00032185E
:1005C0001000183010214156022901D09449ADE79E
:1005D00041690029077408D10668310005D04368D5
:1005E00008322900002001F0F7FB2800FFF772FE17
:1005F000641C032CCCD36D1C012D00DA62E701F0E2
:10060000FFFA002000F0D9FA002815D01048007831
:10061000002814D101984069C04600280FD18148B4
:100620000021415602290AD030214156022906D024
:1006300060214056022802D00220B349086001F030
:100640006DFBF7BD9D020000B102000018020040E2
:1006500030140040C416004011030000000E0000DA
:10066000E7030000DD020000DE020000100200408F
:10067000F0B583B0A5488068A449CC68044002273F
:10068000694DE00726D5FFF73BFD002801D06749FB
:1006900064E0FFF73DFD002801D065495EE0654E4E
:1006A000300001F0CDF8002809D099491022FFF759
:1006B00037FD300001F0DAF89648076002E096480E
:1006C00001F08CFB0420914908600320FFF730FD06
:1006D00001208443200602D52000904C044090481D
:1006E000204043D08948806901902600FFF708FD2B
:1006F000002801D08B4931E0FFF70AFD002801D026
:1007000089492BE000218800884A12580092324023
:100710001CD0284A30234B43D218A423DB00D21824
:1007200028320023D356012B01D0DE2115E0019B96
:100730009C467F4B18586346184002D150680028E9
:100740000FD017707348076000988643491C03292F
:10075000D9D37348304006D0E3218900280001F046
:10076000E7FAE021F9E72000724C04400826344201
:1007700008D0714801F032FB644806600320FFF79F
:10078000D7FCB443600602D520006C4C04406007DF
:100790000BD55E4880690106C90F04D00120684965
:1007A00008705C48076004208443200401D0654938
:1007B000D4E7F7BD980A00400102000002020000E1
:1007C000F8B500F0ADFE06000F00002000F0F5F9CE
:1007D000002823D05A48C56C00245B48302161436F
:1007E0004018A421C900401828228256012A01D0AD
:1007F000022A10D1C16A00290DD103C83B00321A68
:100800008B4100218B4201D8AA4204D362222100ED
:100810000020FFF795FD641C032CDED3F1BD000022
:1008200006020000E00F0040F80D00005103000038
:1008300052030000C4160040F2B582B00400170055
:100840001E00424DFFF764FC002801D19C211AE0F4
:10085000002C01D03E4917E0029800680103090FFF
:10086000092901DB3B490FE002994968C00F05D116
:100870008020000181420AD3374905E080208005AD
:10088000814204D39D21C900280001F051FA029849
:1008900000683249014001D03149F5E701F0B0FA72
:1008A000009001F085FA002000F087F9002801D1BE
:1008B00000F01CFA2B4800680106C90F01D0612125
:1008C0001DE07F4D280000F0BBFF040001D12F2167
:1008D00015E0083002991022FFF722FCA761E661BB
:1008E00000F01EFE03C4083C206A012188432062F8
:1008F000280000F0BBFF0020FFF7ECFC002100986F
:1009000001F084FA0800FEBD1CF0FFFF044004E083
:10091000204004E018F0FFFF180E00007FFF00FFEA
:10092000020600006D0300006E030000500E000080
:100930005C0E0000FDF9FFFF2C0E0000BFFFFF0062
:100940003014004093040000980A0040F80D0000A5
:10095000E2040000E3040000E6040000FFFFF03FB3
:10096000EA0400001C4004E0F7B506000C001F007C
:10097000964DFFF7CDFB002801D195490CE001F021
:100980003FFA019001F014FA01F03AF9300000F05A
:1009900014F9002803D08F49280001F0C9F920007C
:1009A000A621884301D08C49F6E72000082404439F
:1009B00002980B38072800D97FE001A1095C8F4419
:1009C00006DCE0E4E8ECF0F484490020002E1ED1BF
:1009D0009C4A13688025AD011D431560804A156847
:1009E000804B2B408025ED041D43156013689B0050
:1009F0009B088025ED051D4315607B4A012313608C
:100A0000D3680093906051618F49116114608F4CDD
:100A1000B10065186F640899A9640999E964607068
:100A20002065A0558A4E9021A420C000301801F006
:100A3000FBF92823202231005801301800F0F3FE82
:100A40001023202221009431A5208000201800F0DE
:100A5000EAFE01230F227F49172000F0D1FA00237C
:100A60000F227D49012000F0CBFA02209249086054
:100A7000924C206800280ED1E86C052101F0DAF9CB
:100A80000A2800D20A20944900910023934A0121A8
:100A900000F008FD2060019801F0B8F9F7BD904919
:100AA00093E7904991E790498FE79A498DE79A49F2
:100AB0008BE79A4989E79A4987E79A496CE70000EA
:100AC000980F0040F0B583B00700404EFFF718FBC9
:100AD000002801D1944956E0FFF71AFB002801D104
:100AE000C7214FE001F064F9380000F066F80028F3
:100AF00002D101F067F9F7BD6321380000F016F963
:100B000001F060F900F00CFD6A4603C2504D00246C
:100B10000020A922D20030214143691889560029BA
:100B20000CD000F0FDFC02000B00684603C8121A4E
:100B30008B41002B05D8642AEAD302E0401C03282D
:100B4000E9D3380000F028F801F032F901F058F844
:100B50000020302141436918A922D20089180022BF
:100B60008A56002A00D00C70401C0328F1D30120C3
:100B7000C01B00F022F800280BD1504D2868002837
:100B800004D1D121C900300001F0D2F800F09AFC64
:100B90002C6001F023FAF7BD81B0134800210161F8
:100BA000C1680091C046C046012101602548016826
:100BB000844A0A40026001B07047002804D12148ED
:100BC00000688104C80F704700207047F80D0000CE
:100BD0009E050000A4050000A60500000800940082
:100BE000A8C11FE0FFFFFFF3004004E0F8B50F00CD
:100BF00014001E00744DFFF783FA002801D17349D9
:100C000004E0FFF785FA002803D17149280001F0BC
:100C10008FF870480168042901D36F49F6E76F4ADD
:100C2000090151184F608C60CE60069A0A6101F08C
:100C3000BFF800F0E5FF0168491C016001F0CEF942
:100C4000F1BD0000C4C01FE0CF060000301400401A
:100C5000980A004071060000BD040000F8B501F0DC
:100C6000CFF8040001F0A4F800F0CAFF0026594DA7
:100C70002B6800E0761C9E4217D258483701C019F5
:100C8000001D07688F42F5D147689742F2D1991B42
:100C9000491E0A0101001031FFF742FA2868401E80
:100CA0002860200001F0B2F8F1BDF721C9004648E4
:100CB00001F03EF8C046000000C003E01C02004006
:100CC00047480160426083600099C16001990161F9
:100CD00001204449087070473C0E0000C107000025
:100CE0000800960008009C0011009C0000B583B02D
:100CF0003C490978002901D13B49D8E738490A69BC
:100D00000192CA6800928B684A680968FFF72CFE56
:100D100007BD000023009C0059009C00E0009C00DF
:100D2000C1019C00D205000037060000F0B58BB071
:100D300007000E00244CFFF7E3F9002801D02B49EF
:100D400004E0FFF7E5F9002819D12949200000F057
:100D5000EFFF68462822FFF7E3F9280000F0BDFD09
:100D6000069C20000BD0684620300078C00706D4CF
:100D7000079B6A4608323900300000F075F81D4CB8
:100D8000A020C0002518280000F09AFD0100E0D145
:100D90000025302068432018A421C90040182821CC
:100DA0004156012901D0022907D1C06A002804D187
:100DB000320029003800FFF7C3FA6D1C032DE8D379
:100DC0000BB0F0BDFFDFFFFFF80D0000860700004D
:100DD00087070000180200408A0700003014004016
:100DE000401900404B010040E7070000F5070000F4
:100DF000F6070000980A004063616E2E6370700071
:100E00005265456E61626C6543616E4166746572E0
:100E10004275734F6666000052782043414E206D44
:100E20007367206C6F73740D0A00000043414E20FD
:100E300064617461206F76720D0A000043414E2098
:100E400054582053636176656E67696E67000000D1
:100E50000200000000020000000400000800000082
:100E600000080000000008002047000008B4024B02
:100E70009C4608BC6047C046B41C000008B4024B46
:100E80009C4608BC6047C046D01C000000C09FE5DF
:100E90001CFF2FE1150F000000C09FE51CFF2FE194
:100EA000950F000010B56D4CFFF72AF9002801D00E
:100EB000232104E0FFF72CF9002803D0242120008F
:100EC00000F036FFFFF7D2FF002801D12721F6E717
:100ED00063480178002901D02921F0E7614A1160B7
:100EE0000023DB43936013615161FF22D243116001
:100EF0005D4A5E4B202419601B1D1160121D641E8B
:100F0000F9D15B4A117051700121017010BD544834
:100F10000078704770B5FFF7B1FF0400554D544E8F
:100F20007078002805D0B068A9680919081AA86067
:100F300007E03078002804D0706829680919081A79
:100F400028604D480068000205D54C48AE21490094
:100F5000405800F0ADF8FFF791FF69680918091BC8
:100F600069607178002901D0B06003E03178002910
:100F700000D0706070BC08BC1847000004E04EE26E
:100F80000F402DE904D04DE2BFFFFFEB04D08DE20E
:100F90000F80FDE8F8B500F033FEFFF76FFF354C2A
:100FA000334D2978002904D0696822681218511A33
:100FB0002160A8600120687000F0B0FEFF27FF43A9
:100FC000386800F075F800263E6000F019FEFFF763
:100FD00055FFA968A2681218511AA1606E7029788D
:100FE000002900D0686000F099FEF1BC08BC1847E9
:100FF00004E04EE20F502DE9A6FFFFEB0F90FDE855
:10100000FEB5164A202802D3FF2124311BE001231C
:101010008340144CA360194D80267600AF198600DA
:10102000B95101998026B600AD198600A9516946CB
:10103000097A002903D12068984320600BE0172823
:1010400004D0FF213831100000F072FE20688021AA
:101050000904014321606360F7BD0000A010000097
:10106000210200400CF0FFFF00F2FFFF00F1FFFF44
:1010700054190040FC01004004F0FFFF00F0FFFFA6
:1010800000000FE12003A0E1010000EA00000FE1F1
:10109000A003A0E1010000E2010020E21EFF2FE119
:1010A0006972715F7574696C732E637070000000F3
:1010B0000047000010B5802903D256217E4800F079
:1010C00037FEFFE70024046041608260C360018A4C
:1010D0007A4A0A400282448210BD01604260836005
:1010E0000099C160018A754A0A400282002141824A
:1010F000704770B5010000F083FE040000F058FE58
:1011000000F07EFD6C4E6E4D6878002801D0BD2148
:1011100011E02800443000F019FC28642800443015
:101120000069C046E96A814200D20100E962286C88
:10113000002803D1C521300000F0FAFD0021016034
:10114000EC630121697070BD38B55B4CFEF7D8FFC8
:10115000002801D0F62104E0FEF7DAFF002803D0D2
:10116000F721200000F0E4FD554D6878002801D1FA
:10117000F821F6E72800443000F02CFC00206870CD
:10118000E86B00F043FE31BD70B5FFE704000D00D1
:1011900016001420FFF7ADFF002807D033002A0007
:1011A0002100FFF787FFFFF7CFFF012070BDF8B5E3
:1011B0000500414EFEF7A4FF002802D0A5214900FA
:1011C00014E0B048282169434418A078002814D0BE
:1011D000FFF754FE206AE16900F00AFFFFF74EFEB8
:1011E000FEF78EFF002804D0FF215831300000F0B8
:1011F0009FFD6078012838D11DE06068002805D087
:101200006078012817D0FF216C31EFE71420FFF739
:1012100070FF002821D0616A0091236AE269A16908
:10122000FFF75BFF06006D1C7582FFF78DFF6660A0
:101230006078012819D120001030C0C8A0680021B2
:10124000FA229200002300F0D5FEFA229200002339
:1012500000F0DCFE8019794105E02000103003C861
:101260000022401D5141103403C4F1BD70B501206E
:1012700085490860124C2000083003C80022401C39
:1012800051412200083203C200258B4E28206843BA
:101290003018017800290BD010300CC8200008301D
:1012A00003C88B4204D1824202D12800FFF77FFF9E
:1012B0006D1C192DEAD370BDF8170000FEFF000069
:1012C000E0180040F3B581B01700754EFEF718FF27
:1012D000002801D0D4210BE0FEF71AFF002802D02D
:1012E000FF21AA3105E0FFF7C1FD002804D1D62176
:1012F0004900300000F01CFDFFF709FE002802D174
:10130000FF21AE31F5E78D480078002802D0FF219B
:10131000B031EEE7694C27630025E5626562A5639D
:101320003A0002992000443000F0F8FAFA27BF0092
:101330003900544800F078FD0020002122000832D6
:1013400003C225616561A561E56125626070257054
:10135000002301225A491B20FFF752FE0198390051
:1013600000F068FD002902D0FF21CC31C1E76A48B6
:101370000168802212040A43026068480168704ACA
:101380000A408021C901114301606E4C0198390067
:1013900000F050FD6061032020610120206067495A
:1013A0000870F7BDF7B506001F0000F029FD00909A
:1013B00000F0FEFC00F024FC0198012819D1002E59
:1013C00002D1FF21F43111E030000021FA22920015
:1013D000002300F00FFEFA229200002300F016FE18
:1013E000002906D1002804D1FA2149002C4800F038
:1013F0009FFC002000242349282262438D182A786C
:10140000002A29D16860019868700298A870AE60BF
:10141000AF610898E8610998286230000021FA223B
:101420009200002300F0E6FDFA229200002300F073
:10143000EDFD02000B005E4803C8801859412A00E8
:10144000103203C20A98686201202870002E06D16B
:101450002000FFF7ACFE02E0641C192CCCD3192C41
:1014600001D37949C2E7009800F0D0FC601CFEBDB2
:1014700010B584B0802A03D27449754800F058FC36
:1014800004E0000048100040004007E0069C029481
:101490000193009200230022FFF784FF04B010BDE7
:1014A000F817000010B584B0069C029401930092D6
:1014B00000230122F0E7000048100040E01800403F
:1014C0006D12000010B5020000F09AFC010000F05F
:1014D0006FFC00F095FB5E48002A01D15D490AE0EF
:1014E000521E192A16D25C4B282462439A1813788C
:1014F000002B02D1594900F01BFC5068002803D092
:10150000038A01241C43048200201070080000F0AC
:101510007DFC10BDA749EEE7C4C01FE0ACC11FE0D1
:1015200000B5234803C8FA229200002300F062FDB0
:10153000FA229200002300F069FD00BD2202004063
:10154000FF3FFFFF044007E0DCB50700FEF7D8FDD2
:10155000002803D198493E4800F0EAFB002F25D02F
:10156000FA24A400964E3000083003C8220000235D
:1015700000F040FD2200002300F048FD6A4603C24F
:101580003000083003C82200002300F033FD2200A1
:10159000002300F03BFD02000B00684603C8121A4E
:1015A0008B4100218B4201D8BA42E9D3D3BD000060
:1015B000E8180040F8B50600254CFEF7A1FD00280C
:1015C00001D17E490DE0FFF759FC070071683068D2
:1015D0007B4D002810D1802906D2696B080007D105
:1015E0007849200000F0A4FB080001D17649F8E713
:1015F000300000F0FDFC13E0012805D1802901D264
:10160000A86B03E07149ECE7802905D2310002683C
:10161000526800F067FD03E03100726800F062FD7F
:10162000FFF72CFCC21B686A904202D26A62F06823
:10163000A862286A002806D0F168002900D164A1B8
:10164000684800F0CBFBF1BD120200001F02000051
:10165000F81700005B020000481000406202000022
:10166000F2B582B0564C6063FFF708FC050015E048
:10167000029800F0CFF800F09BFB00F0C1FAFFF7F2
:10168000FDFB54490968544A12681018401A52491F
:10169000086000205149087000F0A0FC2078002864
:1016A00000D085E000F084FB00F0AAFAFFF7E6FB2B
:1016B0000090401B4A4988423DD300F015FD0600CA
:1016C0000F004548006800F00FFD0022464B00F077
:1016D00015FD32003B0000F00FFE00F0ABFF606133
:1016E0004248006800F000FD00223F4B00F006FD7C
:1016F00032003B0000F000FE00F09CFF0500A561F9
:101700003B48006800F0F0FC0022374B00F0F6FC8C
:1017100032003B0000F0F0FD00F08CFFE0616169F9
:1017200049190818206100202B4908602F490860DA
:101730002F490860009D00F051FC00F039FB00F0DB
:101740005FFA2000443000F091F9002802D102989D
:101750000028A1D0FFF792FB1E49086001201F4915
:10176000087000F03BFC2000443000F07FF90028B6
:1017700000D17DE72000443000F091F9418A002932
:101780000FD01C4A28234B43D1182839027CD2079A
:1017900009D400F00DFB00F033FA00224A6000F09B
:1017A0001DFCFFF707FF2000443000F07DF962E7E1
:1017B000F7BD0000720200008302000092020000E8
:1017C000E01800409D020000A2020000AF020000ED
:1017D0006500000058190040FC0100405419004009
:1017E00040420F00081800000088C3400402004077
:1017F00000020040481000407363686564756C65C2
:10180000722E63707000000025733A202564B57352
:101810000D0A00000047000000214161C160016124
:1018200001764176704780B5002B03D132213A48CA
:1018300000F07EFA016082604360FFF7EDFF01BDBA
:1018400080B5017E002903D04721334800F070FAAB
:1018500041698268914201D1002002BD01210176D7
:101860000168426800694243881802BD80B50100E2
:10187000087E002803D15B21274800F059FA086947
:10188000401C0861002208698B68984200D10A61F7
:1018900000F0B6FA00F08CFA00F0B2F94B695B1C6C
:1018A0004B6100F0B3FA0A7601BD4169002901D10C
:1018B0000020704701684268C0684243881870473A
:1018C00010B50400607E002803D07821124800F093
:1018D0002FFA2000FFF7E9FFDCE080B50100487E29
:1018E000002803D185210C4800F022FAC868401C6A
:1018F000C8600022C8688B68984200D1CA6000F0B6
:101900007FFA00F055FA00F07BF94B695B1E4B61E2
:1019100000F07CFA4A7601BD1C1B000038B50300BC
:101920007EA00324224201D0EE2103E00D002542D7
:1019300002D0EF2100F0FCF919605A600020986095
:10194000D86018611876587631BD0000F8B5027E6F
:10195000002A01D0FC2102E0002904D1FE21C0466A
:101960006EA000F0E5F9CB1C032293431B1D4268D7
:101970000092934202D381214900F0E70469121BCF
:1019800001240025009EC768F61B9E4208D39A4298
:101990001DD30668C268B218121DC568715113E0E4
:1019A000009E9B19C6689B1B9A4210D3009AC6687A
:1019B000921B042A02D2FF212631D0E70668321D8D
:1019C000C768F551056829600476436100E000228C
:1019D0001000F2BD80B50100087E002805D1FF216E
:1019E0004231C0464DA000F0A3F9C8684A6980188A
:1019F000C8604868CA68824202D3CA68101AC860C0
:101A000000F0FEF900F0D4F900F0FAF80A694B6929
:101A1000D2180A6100F0FAF90020087601BD000032
:101A200080B50269002A01D1002002BD42688368A6
:101A3000D21A042A05D2AD214900C04637A000F0D1
:101A400077F9826803689A58002A05D1002901D0E5
:101A50001A680A60006807E0002902D082689A5874
:101A60000A60016880680818001D02BD80B5002169
:101A7000FFF7D6FF02BD000010B50400607E00280D
:101A800005D0FF217631C04624A000F051F9200096
:101A9000FFF7C6FF002801D00121617610BD80B597
:101AA0000021FFF7E9FF02BD10B501001BA04A7E2F
:101AB000002A01D1C32105E04A688B68D31A042BA0
:101AC00003D2C621490000F033F988680C68205819
:101AD0000323DB43002802D0C01C034005E08868D4
:101AE000101A2468E41C2340C3181B1D8868C01802
:101AF00088608868904202D38868801A886000F005
:101B00007FF900F055F900F07BF80A69D21A0A61F2
:101B100000F07CF90020487610BD000071756575F5
:101B2000652E6370700000007847C046030011E323
:101B30000400000A012052E20130D1240130C02407
:101B4000F9FFFF8A1EFF2FE1030010E31200001AC5
:101B5000102052E20500003A30002DE93810B1E8BB
:101B6000102052E23810A0E8FBFFFF2A3000BDE849
:101B7000823EB0E10810B1280810A028043091443A
:101B800004308044822FB0E1B220D1200130D14412
:101B9000B220C0200130C0441EFF2FE1042052E2D9
:101BA0001000003A010010E30600001A043091E42E
:101BB000042052E2B230C0E06338A0E1B230C0E0AD
:101BC000F9FFFF2A070000EA043091E4042052E202
:101BD0000130C0E46334A0E1B230C0E06338A0E17A
:101BE0000130C0E4F7FFFF2A04208232012052E2D4
:101BF0000130D1240130C024FBFFFF8A1EFF2FE1FA
:101C00007847C04600C00FE140C08CE30CF021E1F2
:101C10001EFF2FE100C09FE51CFF2FE1311D0000DA
:101C20007847C04638402DE90040A0E1D4508FE20B
:101C300015FDFFEB000050E31A10A0130300001A7B
:101C40000EFDFFEB000050E30200000A1B10A0E3B2
:101C50000500A0E1EEFFFFEB50009FE5001090E5CE
:101C6000401881E3001080E5E81090E5C01DC1E355
:101C7000401D81E3E81080E54E52A0E3705A85E3F1
:101C80000400A0E1F41AA0E3901F81E3690000EBD7
:101C9000010040E2080085E50000A0E3040085E5BE
:101CA0000100A0E3000085E53140BDE81EFF2FE103
:101CB000C4C01FE04E02A0E3700A80E3000090E57C
:101CC000000050E30100A013FF0000E21EFF2FE11F
:101CD0008E02A0E3700A80E3000090E51EFF2FE172
:101CE000000050E30600000A8E12A0E3701A81E3A0
:101CF000002091E5003091E5023043E0000053E11F
:101D0000FBFFFF3A1EFF2FE1707265636973696F15
:101D10006E5F74696D65722E637070007847C0469F
:101D200000C00FE140C0CCE30CF021E11EFF2FE129
:101D300038B5030000F064F8050000F09BFC0124B6
:101D4000094804700A00190008A000F047F8684626
:101D50000470684600780028FBD1280000F056F88F
:101D600031BC08BC184700004A0100400D0A0D0AAA
:101D7000417373657274696F6E206661696C656426
:101D8000210D0A46696C653A2025730D0A4C696E6F
:101D9000653A2025640D0A0D0A50726F6772616DF5
:101DA0002068616C7465642E0D0A000028470000ED
:101DB0007847C04600C00FE180C08CE30CF021E101
:101DC0001EFF2FE17847C04600C00FE180C0CCE382
:101DD0000CF021E11EFF2FE1304700000EB400B5EA
:101DE00082B003A9009102006B46012103487844A8
:101DF0000A3000F059FC029906B00847811E000025
:101E00007847C04600000FE11EFF2FE17847C0462B
:101E100000C00FE1C0C0CCE3C00000E200C08CE114
:101E20000CF021E11EFF2FE17847C0460020B0E30F
:101E30007B0200EA7847C046010050E102005123CE
:101E40001800003A0030A0E3200851E10118A091E9
:101E500010308392200451E10114A0910830839244
:101E6000200251E10112A09104308392200151E13E
:101E70000111A09102308392A00051E18110A09144
:101E800001308392010050E0A110A0E1001061E256
:101E90000130D3E24A0000DA010090E00100403056
:101EA00020C063E28CF18FE0010011E16B02000AB7
:101EB000010050E10010A0310000A0330010A02369
:101EC0001EFF2FE18000B1E0010040308000B1E052
:101ED000010040308000B1E0010040308000B1E0FE
:101EE000010040308000B1E0010040308000B1E0EE
:101EF000010040308000B1E0010040308000B1E0DE
:101F0000010040308000B1E0010040308000B1E0CD
:101F1000010040308000B1E0010040308000B1E0BD
:101F2000010040308000B1E0010040308000B1E0AD
:101F3000010040308000B1E0010040308000B1E09D
:101F4000010040308000B1E0010040308000B1E08D
:101F5000010040308000B1E0010040308000B1E07D
:101F6000010040308000B1E0010040308000B1E06D
:101F7000010040308000B1E0010040308000B1E05D
:101F8000010040308000B1E0010040308000B1E04D
:101F9000010040308000B1E0010040308000B1E03D
:101FA000010040308000B1E0010040303013A0E17A
:101FB000110320E00000A0E002C0A0E31C0380E1C8
:101FC0001EFF2FE1013093E201009030010040300C
:101FD0000010A0E10300A3E01EFF2FE17847C046F8
:101FE00000C00FE1C0C0CCE30CF021E11EFF2FE1E7
:101FF000084700007847C04690030CE091C22CE0EF
:10200000920081E00C1081E01EFF2FE17847C0466E
:1020100001C093E10C00001A00502DE90210A0E16C
:1020200084FFFFEB0120A0E10010A0E30030A0E35B
:102030000050BDE81EFF2FE10130A0E10020A0E12B
:102040000010A0E30000A0E31EFF2FE1020050E11A
:1020500003C0D1E0F7FFFF3A03C092E10002000A9B
:1020600030002DE900C0A0E3022092E00330B3E08D
:102070000300002A030051E10200500101C08C223C
:10208000F8FFFF2A6330B0E16220A0E18054A0E3B2
:1020900020405CE23544A0210050A023355CA031F3
:1020A0000040A033010000EAA330B0E16220A0E1CB
:1020B000020050E103C0D1E0020040200C10A0213A
:1020C0000440B4E00550B5E0F6FFFF3A0020A0E17F
:1020D0000130A0E10400A0E10510A0E13000BDE85E
:1020E0001EFF2FE1104700007847C0460010B0E106
:1020F0004214A013DB01001A1EFF2FE17847C046EF
:10210000B0402DE9037021E0807407E2FF40A0E3B6
:10211000704E84E321CA14E0235A141004003C11C9
:10212000040035112500000A05C08CE0843AC3E1A3
:10213000403983E38115A0E1801481E3A05A81E155
:1021400080E5A0E10210A0E19E0282E0000050E3E1
:102150000000A0E39521A0E00010A0E3932EA1E0F1
:1021600001208213010090E00010A0E30110A1E023
:102170009305A1E040CE4CE20156B0E10200002AF6
:102180008220B0E10000B0E00110B1E001C0BCE28B
:102190003E0000DAA050B0E18024D2E20000B0E2BC
:1021A0000C1AB1E0401941E2071081E10C00005A1D
:1021B000041A87410000A043B040BDE81EFF2FE194
:1021C000235A04E004003CE1040035112300000A16
:1021D00081E090E183E092110300001A0710A0E172
:1021E0000000A0E3B040BDE81EFF2FE10C001CE1A1
:1021F00005C08CE01200001A050015E1F6FFFF0A89
:102200000116B0E10010A0010000A0031450450227
:10221000201A91E10006A0E105C0A0E10300004AF8
:1022200001C04CE28000B0E10110B1E0FBFFFF5AB9
:1022300000E0A0E10150A0E1843AC3E1403983E32A
:10224000BFFFFFEA01C04CE28220B0E10330A3E00F
:10225000400913E3FAFFFF0A01C08CE2B4FFFFEA72
:1022600081E090E183E092110010E0038059A0E347
:10227000830075E10310A08181007591D8FFFF8A6A
:10228000041A87E10000A0E3B040BDE81EFF2FE183
:1022900001C07CE220505CE2080000AA20506CE201
:1022A000020012E1A220A0E101208213102592E198
:1022B000300CA0E1110580E1311CA0E1080000EA2A
:1022C00035005CE3C4FFFFCA20C065E2802092E1D4
:1022D0003025A0E1012082133105A0E1112C92E10B
:1022E0000010A0E38024D2E20000B0E20710B1E0C9
:1022F000B040BDE81EFF2FE17847C046F0002DE951
:10230000037021E0807407E2FF40A0E3704E84E395
:1023100021CA14E0235A141004003C1104003511A2
:10232000A700000A05C04CE001C04CE2C064E0E335
:10233000014506E0204B84E10005A0E1033506E0FD
:10234000223B83E10225B0E10210A0E31F00000A56
:10235000026050E00340D4E0403483E30400002AEC
:1023600001C04CE28660B0E10440A4E0026096E067
:102370000340B4E08660B0E10440A4E0020056E10E
:102380000350D4E0026046200540A0210110B1E0D6
:10239000F7FFFF3A800EA0E38660B0E10440A4E0BE
:1023A000020056E10350D4E0026046200540A0211F
:1023B0000000B0E0F7FFFF3A8660B0E10440A4E01F
:1023C000026056E00350D4E006001601300000EA37
:1023D000034054E0403483E30200002A01C04CE291
:1023E0008000B0E18440A3E0003063E2000010E12F
:1023F0001100000A401E81E3000090E08440B3E039
:10240000034044300110A1E0000090E08440B3E0BC
:10241000034044300110A1E0000090E08440B3E0AC
:10242000034044300110A1E0000090E08440B3E09C
:10243000034044300110B1E0F2FFFF3A844093E0E2
:10244000034044300110A1E0844093E00340443055
:102450000110A1E0844093E0034044300110B1E05A
:10246000F8FFFF3A800EA0E3844093E0034044303D
:102470000000A0E0844093E0034044300000A0E06E
:10248000844093E0034044300000B0E0F5FFFF3AA1
:10249000844093E08044A0230040A0334044841350
:1024A000810A80E1A115A0E140CE9CE20D0000DA96
:1024B000A020B0E18024D4E20000B0E20C1AB1E028
:1024C000400971E3071081E10100004AF000BDE816
:1024D0001EFF2FE1FF1687E3701481E30000A0E3E5
:1024E000F000BDE81EFF2FE1401981E301C07CE24E
:1024F00020505CE2080000AA20506CE2040014E1C5
:10250000A440A0E101408413104594E1300CA0E107
:10251000110580E1311CA0E1080000EA34005CE311
:102520000B0000CA20C065E2804094E13045A0E184
:10253000014084133105A0E1114C94E10010A0E3A7
:102540008044D4E20000B0E20710B1E0F000BDE842
:102550001EFF2FE10000A0E30710A0E1F000BDE89E
:102560001EFF2FE10C001CE10700001A050015E119
:102570000C00001A01C04CE28000B0E10110A1E0A3
:10258000400911E3FAFFFF0A01C08CE201C08CE2AE
:102590008220B0E10330A3E0400913E3FAFFFF0A11
:1025A00002C04CE260FFFFEA015085E28000B0E12A
:1025B0000110A1E0400911E3FAFFFF0A00C065E243
:1025C00059FFFFEA235A04E004003CE104003511FE
:1025D0000B00000A816090E183609211E0FFFF1A16
:1025E000816090E10000A0E30710A0E1041A8111CE
:1025F000F000BDE81EFF2F1183C092E10010E00340
:102600001EFF2FE18069A0E30000A0E3810076E1D6
:1026100083007691810076010010E0230200002AF9
:10262000830076E10710A001041A8711F000BDE8CD
:102630001EFF2FE17847C04681C0B0E10A00002AA2
:10264000ACCAA0E140CE4CE201C09CE20600004AC8
:102650001FC07CE28115A0E1801481E3A00A81E122
:10266000300CA0510000E0431EFF2FE10000A0E36A
:102670001EFF2FE17847C04600C00FE1C0C08CE3C9
:102680000CF021E11EFF2FE170B5060008001400D8
:10269000002B06D01D002178641C00F00BF96D1E84
:1026A000F9D170BC08BC1847FDB586B00C0009E034
:1026B000079A069801232100FFF7E6FF0400079818
:1026C000401C079007980078002803D109B0F0BC9F
:1026D00008BC18472528EBD107984678801C07903E
:1026E000252E00D19BE0582E6ED0632E0ED0642E86
:1026F0001CD0692E1AD06F2E66D0702E6DD0732E1E
:1027000075D0752E60D0782E5ED0DBE708980899DA
:10271000006808600168089A001D09061060090E2B
:10272000069A200000F07DF80400CBE7089808998D
:102730000068086005680899001D0860002D05D52F
:10274000069A2D21200000F06CF8040064266F2EFC
:1027500001D1082106E020213143782901D00A2146
:1027600000E0102101910B212F000091642E03D174
:10277000002D01D5784207000199009D3800FFF730
:1027800059FB303109066D1E090E00953A2902DB0E
:1027900030005138091802A84519297001993800EC
:1027A000FFF748FB070002D000980128E4DA009AFE
:1027B00020000B218C1AB7D02978069A6D1C00F0E6
:1027C00030F8641EF8D1AFE70898089900680860EF
:1027D00005680899001D0860B9E70898089900681D
:1027E0007826086005680899001D0860AFE708981A
:1027F00008990068086005680899001D08602800AD
:1028000000F05AF80100200000298DD00C00297832
:10281000069A6D1C00F005F8641EF8D184E72521A6
:102820007EE7104704402DE90230A0E102E0A0E17C
:1028300002C0A0E1101051E20C50A028FCFFFF8A5A
:1028400081CEB0E10C00A02804208044811FB0E1BB
:10285000B220C0200120C0440440BDE81EFF2FE18B
:102860001EFF2FE11EFF2FE1400B50E30008A031B7
:1028700040174132400750E30004A0318018413234
:10288000400550E30002A03140184132400450E3BB
:102890000001A03180194132800450E38000A03152
:1028A00040194132C01941E2A01581E0800AA0E13F
:1028B0001EFF2FE1304700007847C046013080E21C
:1028C000001FB0E10300000A0110D0E4000051E352
:1028D000FAFFFF1A0A0000EA002090E528C09FE5F1
:1028E0000C1052E00210D1E18C0311E10420B0057C
:1028F000FAFFFF0A0110D0E4000051E30110D014E8
:10290000FCFFFF1A030050E01EFF2FE1010101014F
:1029100008B4024B9C4608BC6047C0468900004092
:102920009C489D499D4A821A0A639D4A101A48652F
:102930007047F0B59B48016810229143016001681F
:1029400020220A4302600121026892090A40FBD05A
:10295000954A13680224A3431360AA23D360552425
:10296000D46015688D431560D360D4608F4DAE6818
:102970000327BE430E43AE605668F60BF6031727D7
:102980003743576057688A4E3E400F0437435760BD
:10299000D360D46016680E431660D360D460966826
:1029A000B60E0E40FBD0032129600521696000218D
:1029B000C16081601068022101431160D360D4605E
:1029C000F0BDF8B506001C00002E01D06C2E60D1C1
:1029D00080277F00774D0698002831D0A86803280B
:1029E0000AD1BC4208D206982018B84204D301206C
:1029F0007149091BFF310870FF220698391A6E4889
:102A0000069BC01800F018FCA868002806D13A0000
:102A100069496A482018FFF787F811E05E492422C7
:102A20005043081880680019009000F0C6FC0100AF
:102A300000F042FCA04B3A005F49009800F090FC87
:102A4000002E26D1A8689D4D002807D12E60FFF7E3
:102A500011FE069821185948FFF75AFF032818D18C
:102A60004F4C3A0021005448FFF75EF89448067036
:102A7000200000F0A2FC010000F01EFC8E4B3A008A
:102A80004D49200000F06CFCBD482860002000F09B
:102A900027FDF1BD30B585B001A80021002200233B
:102AA00000241EC09A480190424D01AC00910122C1
:102AB0006968201D00F038FD96480068208128686C
:102AC000400001210143A1720023002201A900203E
:102AD000FDF7B2FE00200090AA48436D012269680C
:102AE00001A800F055FD0100002300220020FDF7A1
:102AF000A3FE05B030BDF0B585B02E4CA0682649C8
:102B00002422424389188D6803282AD0CE68A06801
:102B1000002811D0280000F050FC0700A819401E22
:102B200000F04BFC05002900380000F0C5FB624AAC
:102B30002900380000F0E9FB00200490924803903F
:102B40009248201802900020C0430190802040004D
:102B50000090194B03220021606800F053FE05B07D
:102B6000F0BD00F044FC012804D00DD3032808D0A8
:102B700004D309E080204002461BC8E78020800281
:102B8000FAE780200003F7E7DA2149009548FFF7CC
:102B9000CFF8C046006000004C010040004000003B
:102BA00000800000A0C11FE080C01FE004C11FE042
:102BB000FFFF00FF28020040E01600400000E07F19
:102BC000FEB5170001A8391D0622FEF7ADFF01ADC5
:102BD000A81C00F085FE0105C90F6CD107268248AC
:102BE000006800093040814C616888420ED00022A4
:102BF000D243914205D07E48FFF7F0F8F321490017
:102C000051E0606001007B48FFF7E8F8A81C00F085
:102C100067FE000A0640606886424CD1A81C00F09E
:102C20005FFE0026000718D1B87AC00743D5E068D8
:102C3000002806D07048FFF7D1F8E068FEF742FCA4
:102C4000E6602069002836D1009000236B4A0121FC
:102C5000C820FEF70DFC2061F7BDA81C00F040FE67
:102C60000007000F042826D1E068002806D0644839
:102C7000FFF7B4F8E068FEF725FCE660206900285D
:102C800007D1009000235D4A0121C820FEF7F0FB28
:102C90002061A0680021C94388420CD12888A06027
:102CA000042803D357494F48FFF742F80022002178
:102CB0005548FEF769FAF7BD40190100004008E0E9
:102CC000DF17004038B5514C5148251828682900B5
:102CD0005431091D491B88420CD34E49281D00F070
:102CE00011FE002806D14C491435280000F00AFED8
:102CF000002801D0494804E0FF342078002804D09F
:102D00004748FFF76BF8002032BD012032BD0000BC
:102D100000000880F018004010B582B0FFF7D2FF25
:102D2000002805D016483F490860002000F0D8FB75
:102D30002E4C2069002807D1009000232F4A012142
:102D4000C820FEF795FB206113BD37490A68FF23B1
:102D50009A43012383401806000E1043086033484D
:102D60000A68024080235B0413430B604A68D20F59
:102D7000FCD00A681040086048680004800D704765
:102D80005544554444000000C329000018080000C1
:102D9000F8B505000C000027002604E02800FFF726
:102DA000D4FF3F18761CA642F8D338002100FFF765
:102DB00041F8F2BD38B5010000201D4A1D4B44000A
:102DC0001D5BA94202D3145B8C4209D2401C082827
:102DD000F5DB04D1A7218900B648FEF7A9FF002042
:102DE00032BD00006C31000014C0FF3F28020040DB
:102DF00080310000903100009C310000952A0000D5
:102E0000AC31000012020000F72A00000080000030
:102E100044000000BC310000C4310000CC3100008F
:102E2000E4310000004008E0004003E0FFFFFFF84D
:102E30002432000014320000F0B583B0FFF71AFC12
:102E40009D4801689D4A914212D100210160FFF71F
:102E500039FF00280CD0FEF7ABFFFEF7D1FE984CEF
:102E6000442221008020C005FEF75EFE00F0E2F95A
:102E70000121944800F006FB934C0020C043A06061
:102E80000325ED439148016829400160416807220C
:102E9000914303220A4342600168294002220A4307
:102EA0000260FFF746FD00F069FD8648FEF7B8FEB8
:102EB000FDF7F8FF864E0020B06230680540012023
:102EC0002843306030680C2188430421014331607D
:102ED0001027306830218843384330603068C02183
:102EE00088434021014331607A4D68698005400F75
:102EF000009000F07CFA784908700098072879D192
:102F0000764801683A020A43026075480168754ACA
:102F10000A4002607448716C0140FA020A4372640C
:102F20007249726C0A407B031343736472681040E9
:102F3000BA0202437260706801403803084370604F
:102F40006B480168FF22914301600168694A0A40A9
:102F5000C0218900114301600168674A0A4002608C
:102F60000168664A0A4002600168654A0A400260D8
:102F7000C168644A0A40C26001687A040A43026078
:102F800008210020FFF704FFFFF714FF06000821C7
:102F90000120FFF7FDFEFFF70DFFC000801908308C
:102FA0000F2805D14C4900228956022900D1102052
:102FB000000600160B280BD15348E8655349E96316
:102FC0002A6C10432864286A01432962002011E01A
:102FD00010280FD13806E8614D49E963CA43EA6514
:102FE0002B6818432860286A01432962286C024331
:102FF0002A6406202060FA01210014313148FEF7CE
:1030000061F90022E12149022E4800F0CAFC29485A
:103010004049414A891ABA01914201DA3F4906E022
:1030200051083F4A3F4BD21A8A4202DA3E49FEF724
:103030007FFE3E4A3E4BD21A8A4202DAC421890000
:10304000F5E7FEF7CBFF3B493B48FEF7C7FE002004
:10305000C043606000202061E060FDF79DFDC82056
:103060008000019000200090344B0D220021FDF7DC
:1030700027FE0020FDF73AFE002000F022FA002093
:10308000009000232E4A0121FA204000FEF7F0F9BB
:103090000020009000232B4A0021FA208000FEF738
:1030A000E7F9E06000210020FEF7DAFAF7BC08BC7F
:1030B000184700006C310000004008E055445544BA
:1030C0000080000000A24A042802004000C01FE067
:1030D00000C002E000C0FF3F20020040C4C01FE06B
:1030E000A8C11FE0FFFFFFFCFF3FFFFFFFFFFCFF4A
:1030F000004003E0FF00FFFFFFFFF1FFFFFFFFF8CD
:10310000FFFFFEFFFFFEFFFFFF1B00000000F0FFC0
:1031100000C4FFFF681D004068190040090300005B
:103120000002D07F0000D07F0D0300000004D07F9C
:103130000002D07F88000000F8310000C12B0000A1
:10314000C3340000192D0000626F6F746C6472004C
:10315000636F6E6669670000564D2066696C650096
:103160006669726D776172650000000063616E5F71
:10317000626F6F746C6F616465722E6370700000B3
:10318000506F73206368616E676564210D0A0000EB
:10319000706F733D25640D0A000000005365656E75
:1031A00020424C204B412E0D0A0000005365656EF5
:1031B000205374617274424C2E0D0A0050415442E7
:1031C00000000000494F422D46570000496E7661CD
:1031D0006C696420467720494420626C6F636B2ED3
:1031E0000D0A0000496E636F6D706C657465204652
:1031F000772E0D0A000000000D0A0D0A43414E20F3
:10320000626F6F746C6F616465722025732E0D0A96
:103210000000000000004F00E1007B011702A50242
:103220002903B5034E00E0007A011602A402280328
:10323000B403FF03204700007847C046022CB0E1EA
:10324000222482E1222882E1010080E0033010E2A2
:103250000400000A031051E01100003A833FB0E17E
:1032600001206045B22060210230A0E110402DE92C
:1032700002C0A0E102E0A0E1101051E20C502029B0
:10328000FCFFFF8A811EB0E10C00202904202045AC
:103290000111B0E1B2206021012060451040BDE87D
:1032A0001EFF2FE1031091E001206015020011E3E1
:1032B000012060151EFF2FE1F8B504000F00684ED5
:1032C000FCF71EFF002801D1322104E0FCF720FFAB
:1032D000002803D133213000FEF72AFD614D322052
:1032E00028606C60AF60FEF763FDFEF789FC290083
:1032F000143128005C4A00F0C3F8FEF76FFE6869DD
:10330000002801D04021E6E7F1BDF2B50400170026
:10331000534EFCF7F5FE002801D1532104E0FCF7E1
:10332000F7FE002803D154213000FEF701FD4D4D7A
:10333000342028606C600098A860EF60FEF738FDCC
:10334000FEF75EFC290014312800474A00F098F887
:10335000FEF744FE6869002801D06221E4E7F1BD70
:10336000F7B504001F003E4EFCF7CAFE002801D14D
:10337000762104E0FCF7CCFE002803D17721300051
:10338000FEF7D6FC374D332028606C600198A860AA
:103390000298E8602F61FEF70BFDFEF731FC290073
:1033A00014312800304A00F06BF8FEF717FE686908
:1033B000002801D08621E2E7F7BD0100000B802242
:1033C0001202914200D2704780B5F022D20291429F
:1033D00002D2C80BC01D02BDFC22D202914201D212
:1033E000623802BD9B211E48FEF7A2FCC04638B5DC
:1033F000FEF706FD0400FEF7DBFCFEF701FC194DAD
:1034000036202860290014312800174A00F038F8C7
:103410002000FEF7FBFC6869002803D0AE211048AD
:10342000FEF786FCA8691149401A0CD01049401AD1
:103430000BD013380DD080214904401A07D0090A57
:10344000401A08D009E0012032BD022032BD03201D
:1034500032BD042032BD052032BD002032BD000047
:1034600074340000DC010040F1FFFF7F01F700161B
:1034700021080000666C6173682E637070000000A4
:103480001047000038B5244B1860E02000060122E8
:1034900004690325AC43144304611B681B094B43B7
:1034A0004360016802230B4303601C4909681C4BFD
:1034B000994205D001680A430260002000F001F83B
:1034C00031BD00B5FEF79CFCFEF772FCFEF798FBE1
:1034D0001449AA220A6055220A60FEF797FC00BD33
:1034E00082B0FFF7C7F8FA2189004843FCF720FEB5
:1034F000E0242406094800680949884206D120686A
:103500000121014321600020FFF7DBFFAA20A0601A
:10351000E0680090FEE7000064190040FC4708E006
:1035200055AA55AA080000E0F0B504000D001600E9
:103530001F002100002000F079FAA01C00F0D0F953
:10354000A11C1E4A02402B02E020C000184010437C
:1035500000F06CFAA01C00F0C3F9A11C184A02404C
:10356000F00280231B011840104300F05FFAA01CFA
:1035700000F0B6F9A11C0F2290433A07120F024344
:10358000100000F053FA05982070000A6070F0BD3A
:10359000F8B504001D000020002300260027C9C440
:1035A000103C0848206000930223201DFFF7BCFF59
:1035B000A5600698E0602000F2BD0000FFF8FFFF64
:1035C000FFF7FFFF00000880F0B585B001AC0025D3
:1035D00000260027E0C4256080252D060195009374
:1035E00013000122521A12061216010001A8001D32
:1035F000FFF79AFF0198A44901400191002300229E
:1036000001A90020FDF718F905B0F0BDD0B584B0D0
:103610008468206AFDF756FFFDF782FF06000F0061
:103620002000283003C8220018320CCAB61A9F4165
:10363000B94213D801D3B04210D2626B216B002083
:10364000FDF70CFB02A80190002000900023626AA5
:1036500021004320E46C00F041F9DFBDFDF760FF7D
:10366000220018320CCA801A9941002901D8C928B1
:103670000BD320696169401843031B0C0D202256AF
:103680000C202156A068FFF79FFF00200090230028
:103690007E4A0021C820FDF7EBFE2062DFBDFEB5AB
:1036A00084686846210040310622FEF73DFA6846EC
:1036B0000588206961694018C2080026AA4200D026
:1036C00084E0FDF72DFF2200183203C2E800616894
:1036D000FEF7B0FB2068401821003831C96801604E
:1036E00021003831096941600F20616922003832B8
:1036F0005268120C02408F1867616A4616722100E8
:1037000038314968090C0840082823DA6048FEF778
:1037100065FB206AFDF7D6FE626B216B0020FDF78A
:103720009DFA5C4B0D2022560C202156A068FFF715
:103730004BFFC820FDF708FF02A8019060690090C8
:103740002369626A21000020250038356D6900F088
:1037500081F93FE06D1CE8006168FEF76BFB002912
:1037600027D102A8019000972369626A21006C208A
:10377000250038356D6900F06DF96846007A00283B
:1037800012D0206AFDF79EFE626B216B0020FDF7D0
:1037900065FA404B0D2022560C202156A068FFF7F9
:1037A00013FFC820FDF7D0FE206961684018206132
:1037B000666120696169401843031B0C0D20225685
:1037C0000C202156A068FFF7FFFE03E029003248D5
:1037D000FEF704FB38342670F7BD10B511001C004D
:1037E0003820205C00280CD1102220003C30FEF74D
:1037F0009BF9012038216054002221002748FDF761
:10380000C3FC10BDF8B507000E00089C23600698A5
:1038100060606273002525616561FDF781FE22000D
:10382000183203C22673A7600798002122002832AD
:1038300003C220003830099941610A99616205701C
:103840000021C94300950B000A0020003030FFF72B
:103850006BFE00950D2023563200390020003430D5
:10386000FFF762FE00940E4B626B216B0020FDF7A8
:10387000BDF900952300054A0021C820FDF7F8FD99
:1038800020620020F2BD0000FFFFF0FF0D360000B7
:10389000A4380000FFFF0000C03800009F36000081
:1038A000DB37000053686F7274206D657373616756
:1038B000652072656365697665642E0D0A000000F7
:1038C000726563656976656420256420696E73742A
:1038D000656164206F662025640D0A0020470000A2
:1038E0007847C0460330D0E50220D0E50110D0E58E
:1038F0000000D0E5032482E1010480E1020880E1B8
:103900001EFF2FE17847C046003021E0030013E39B
:103910001100001A002FB0E10500000A0120D0E4D8
:103920000130D1E4010052E303005221F8FFFF0A05
:103930000E0000EA3CC09FE5002090E5003091E5D4
:10394000030052E10C3042000230C3018C0313012A
:103950000420B0050430B105F8FFFF0A0120D0E4CF
:103960000130D1E4010052E303005221FAFFFF0AC3
:10397000030052E01EFF2FE101010101024801682E
:1039800001220A4302607047A0C11FE0214800786D
:10399000214909680A0000D1704780B500F044F859
:1039A00001BD38B514001D4A1368C025AB4340253E
:1039B0001D4315601A4A1368F025AB4350251D437B
:1039C0001560144D83222A730009FEF733FA010AA9
:1039D00069602870032028730720A8600E480460DF
:1039E000002C09D0686801210143696000230F227F
:1039F0000C490620FDF704FB31BD064901220B7D71
:103A00005B091342FBD00870087D80091042FBD08F
:103A10007047000000C000E060190040A8C11FE02E
:103A200000C002E08D390000084700007847C0461A
:103A300000C0A0E1010011E301C0C1142CC4A01119
:103A4000B0C0C1E12CC8A0E102C0C115B2C0C10123
:103A50001EFF2FE12847000000000FE11F00C0E318
:103A6000120080E300F021E134109FE507D0C1E3AC
:103A70001F00C0E3110080E300F021E124109FE566
:103A800007D0C1E31F00C0E31F0080E300F021E185
:103A900014109FE507D0C1E30000A0E10000A0E101
:103AA0000B0000EA0002D07F0004D07F681D0040B8
:103AB00000C09FE51CFF2FE1013B000000C09FE517
:103AC0001CFF2FE1392E000000C09FE51CFF2FE1F5
:103AD000333B00000100A0E30100B0E3000050E32D
:103AE0000000000AF1FFFFEB0000A0E30000A0E1EE
:103AF000F1FFFFEBF3FFFFEB0F0000EBFDFFFFEA31
:103B000010B5094979442031084C7C441E3405E045
:103B10000A68081D891800F00BF80100A142F7D1CE
:103B200010BC08BC1847C0463C0100005001000012
:103B3000084780B500F00CF809BC184708109FE54D
:103B40001800A0E3563412EFFBFFFFEA2600020044
:103B50007847C0460070B0E10700B0E1F6FFFFEB28
:103B6000FDFFFFEAF8B50D00140000940D4F08E0CA
:103B70002020FFF742FF761C78688642F8D30120A8
:103B800038702000441E002809D02E786D1C3000AB
:103B9000FFF733FF00200A2EF2D10026ECE7009851
:103BA000F2BD00000802004000C09FE51CFF2FE1AD
:103BB000ED3B000010402DE90040A0E120109FE502
:103BC0000F1081E01C1081E218009FE50F0080E0DB
:103BD000140080E2F3FFFFEB0400A0E11040BDE819
:103BE0001EFF2FE1BC000000B400000038B5050046
:103BF0000C00A54206D02868401900F006F82D1DDB
:103C0000A542F8D131BC08BC1847004730B40121A7
:103C10000268001D002A0FD003684468C3180830EA
:103C20000C4202D04D466D1E64191D681B1D256097
:103C3000241D121FECD0F8E730BC704738B50025C2
:103C40000400ED43AC4209D069460870012201200E
:103C5000FFF788FF012801D1200000E0280032BCD6
:103C600008BC1847A9FFFFFF9C01000034000000BA
:103C700088000040000000003CFFFFFF38B5050051
:103C80000C002000FFF7DAFFA04200D0002528003A
:103C900032BC08BC18470000FEFFFFEA85ECFFFFBE
:103CA00003B488B0E0242406AA27A7605526A6609E
:103CB00032200090002001900325029505A9684656
:103CC000244A00F04DF8A760A66034200090002040
:103CD000019002952048039005A968461D4A00F00E
:103CE0003FF8A760A660002529E000201B4B81005B
:103CF000089A521952585A50401C4028F7D3322083
:103D00000090280B0190029005A96846114A00F026
:103D100027F8A760A6603320009001950F48029015
:103D20008020400003900C48049005A96846094A89
:103D300000F016F8A760A660802040002D180998B2
:103D40008542D2D32068012101432160A760A6608B
:103D5000FEE70000F1FFFF7F40190100E01700407F
:103D60001047000042494E00010000000000000022
:103D700000400000494F422D424C2D43414E00006F
:103D800000000000483100004346470000000000EA
:103D900000400000000000000000000000000000E3
:103DA00000000000000000005031000058435000A7
:103DB00000000000006000000000000000000000A3
:103DC000000000000000000000000000583100006A
:103DD00042494E0001000000008000000000000089
:103DE000494F422D4657000000000000000000002F
:103DF0006031000000000000000000000000000032
:103E000000000000000000000000000000000000B2
:103E100000000000000000000000000000000000A2
:103E20000100000000000000000000000000000091
:0C3E300000000000000000000000000086
:0400000500003A5865
:00000001FF
