:1000000018F09FE518F09FE518F09FE518F09FE5C0
:1000100018F09FE5606FA0B814F09FE514F09FE51D
:10002000E059000064F8000064F8000064F8000083
:0C00300064F8000068140000F4130000E5
:100044008400000050415442000000000000000001
:100054000000000043504C2D424C2D5553420000EB
:1000640000000000414C4C2D50414E454C530000C3
:10007400000000000000000000000000000000007C
:100084000000000076312E33362E312E3000000071
:100094000000000001240100000000000000000036
:1000A400000000000000000000000000000000004C
:1000B400000000000000000000000000000000003C
:0400C4000000000038
:1001000008B4024B9C4608BC6047C0467C220000F5
:1001100008B4024B9C4608BC6047C046001500006E
:1001200008B4024B9C4608BC6047C046F41400006B
:1001300008B4024B9C4608BC6047C046F020000053
:1001400008B4024B9C4608BC6047C0460824000027
:100150000A6802604A6842608A688260C968C16051
:100160007047F3B589B0FFF7D3FF002802D0FF2115
:100170002C3105E0FFF7D4FF002804D19621490077
:100180009D4801F0D1F901F0CFFC02AA03C29B4FB8
:1001900038004C3009998900401801909848009027
:1001A00002E0009801F049FE009801F031FE0600DF
:1001B00000D1A0E00124306A2040F2D102A80CC88E
:1001C00003CE083E121A8B410198006800218B4231
:1001D00001D882422BD39B484156002905D0416863
:1001E000622902D0FF215231CAE73021415600294D
:1001F00002D0416B6229F5D160214156002902D01D
:10020000406E6228EED1B46904A831000831102292
:10021000FFF78EFFF569009801F00FFE2000C3D0B4
:100220002B0004AA0999622001F038F8BCE786483F
:100230000A994A00511809014018A421C90045181B
:1002400028202856002802D0FF216A3198E728008C
:1002500031002822FFF76CFF002029002831486078
:1002600028216C54009801F0E8FD7878A968FF22F5
:1002700091430143A960401C787008352900099812
:10028000002838D10A98002803D002281FD00FD3A5
:1002900031E0994DA8698008044002D1FF217E31E8
:1002A0006EE79648FFF754FF01F07AFF21201CE02B
:1002B000914DA869800A044002D1FF2188315FE78F
:1002C0008F48FFF745FF01F06BFF41200DE08A4D9D
:1002D000A869800C044002D1FF21923150E789487F
:1002E000FFF736FF01F05CFF812028600320FFF755
:1002F00007FF01F0E1FF0BB0F0BD10B50400FFF700
:1003000007FF002802D0FF21CE3105E0FFF708FFEC
:10031000002804D1E7214900374801F005F9494890
:1003200000214156002904D077494978002908D195
:1003300010BD302141560029F6D1602141560029D7
:10034000F2D160214056002803D102212000FFF79E
:1003500008FF10BDF8B507000C001600FFF7D8FE27
:10036000002802D08C21890004E0FFF7D9FE002884
:1003700003D16649204801F0D7F8002E01D1644925
:10038000F8E731486100091909014018A421C900A2
:10039000451828202856012803D0022801D05D499D
:1003A000E8E7E86A002801D05B49E3E7EE62002F46
:1003B00017D1002C03D0022C09D004D311E001F096
:1003C000EFFE222006E001F0EBFE422002E001F009
:1003D000E7FE8220484908600320FFF791FE01F004
:1003E0006BFFAC69200006D0EB6908352A003900A4
:1003F000300000F053FFF1BD2C1200008857004080
:10040000804E004038B584683F4D286D002803D1E8
:100410004249434801F088F801F05AFB0020286562
:10042000200000F0F1FC01F051FF002C03D13D4809
:100430000068800402D4200000F01BFE01F050FF91
:1004400031BD0000C84E004080490040F8B50400AE
:100450000D00FFF75DFE002802D0AC21890004E00A
:10046000FFF75EFE002803D12F492D4801F05CF80C
:100470002E48416900910023234A111D01E05B1CB5
:100480001031009EB3421AD26F680E683E404F682A
:10049000BE42F4D18E6832002CD08268521C826039
:1004A0002B680F221F0C3A40D200DB0F036901D0EA
:1004B000403200E02C329A180261CB6815E0A100AE
:1004C00051184E6C320015D08268521C82602B6825
:1004D0000F221F0C3A40D200DB0F036901D04032DB
:1004E00000E02C329A1802618B6C2A002100002057
:1004F00001F000FFF1BD0000044004E0304004E0E2
:10050000404004E0504004E08857004031020000C1
:10051000320200003A0200003D0200009D0200008D
:100520002C120000C4C01FE0B1020000C403004050
:10053000F0B591B000269B4801909B4803909B48E2
:1005400002909B48049002E0002E00D0F7E099480A
:100550000068800400D4F2E001F022FE01980078E7
:10056000002854D000200199087001F0A5FE370042
:10057000FFF7CEFD002801D08F4904E0FFF7D0FD42
:10058000002819D18D498E4800F0CEFF06A82822F8
:10059000FFF7CEFD049801F050FC0C9C20000BD01E
:1005A00006A820300078C00706D40D9B06AA0832A2
:1005B0003900612000F072FE049801F029FC01006E
:1005C000E4D100257F4C28202056012801D00228A4
:1005D00007D1E06A002804D1612229003800FFF722
:1005E000B9FE6D1C3034032DEDD36E48006D00282C
:1005F00001D07549C7E7754800903300744A00215F
:10060000FA20800001F00CFA6649086501E001F06B
:1006100053FE704C20004069C04600282BD0FFF7E5
:1006200077FD002801D06C49ADE7FFF779FD002880
:1006300001D16A49A7E70398056806E00100300088
:10064000FFF704FF200001F0F8FB20004069C046DE
:10065000002810D0200001F0DBFB002DEED0029925
:100660002A0047680B683B404F68BB42E6D0083120
:10067000521EE7D0F5E700245948009007000020FB
:100680003856022857D12500FFF742FD002801D037
:10069000544978E7FFF744FD002801D1524972E739
:1006A00052486900491909014018A421C90042189B
:1006B0001000183010214156022901D04C4962E740
:1006C0004169002902D00021017409E00174056824
:1006D000290005D0436808323100002001F00BFEEC
:1006E0003500FFF715FD002802D0FF21CE314AE783
:1006F000FFF716FD002802D1E721490043E70098E3
:1007000000214056002809D1009830214056002889
:1007100004D1009860214056002803D02148407839
:10072000002808D0009860214056002803D10221FB
:100730002800FFF716FD641C3037032C9FD3761C6E
:100740000298403002900398001D03900198401CCD
:100750000190012E00DAF7E601F022FD154800684D
:10076000800418D50F480078002817D1194840692F
:10077000C046002812D11A48009000214056022895
:100780000CD0009830214056022807D000986021F4
:100790004056022802D002209D49086001F08CFDDD
:1007A00011B0F0BD8857004000040040DC57004005
:1007B000804E0040C4C01FE0F5070000F6070000AF
:1007C0002C120000A04E0040110300003412000063
:1007D000050400001C5A0040DD020000DE0200009B
:1007E000C84E0040010200000202000080490040A3
:1007F00006020000F0B583B086488068C102CE0EC4
:100800008449CC680440E0073CD5FFF781FC002810
:1008100001D08149A8E0FFF783FC002801D07F497F
:10082000A2E07F4D280001F0C2FA00280AD07D49DD
:100830001022FFF77DFC280001F0CDFA02207A4952
:10084000086017E0794D280001F056FD2A000023CA
:10085000401C594101F070FD2800083001F04CFDAA
:1008600008352A000023401C594101F065FD7048FD
:1008700001F082FD0420674908600320FFF740FC77
:1008800001208443200626D5684DA00205D5280006
:10089000583001F031FD583504E02800503001F0A7
:1008A0002BFD50352A000023401C594101F044FD26
:1008B0002000954C0440192E19D194480178002944
:1008C00006D14168491C4160642910D101210170A1
:1008D000002181600BE08D480178002906D08168F5
:1008E000491C81600A2902D10021017041608848B9
:1008F000204041D04748806901900094FFF708FCF0
:10090000002801D083492FE0FFF70AFC002801D01E
:10091000814929E08149824A824B0D68009E2E4020
:1009200016D028269E57012E01D0DE211BE0019E05
:100930001768374004D11E0028367668002E16D07E
:1009400002262827DE55384F3E60009EAE430096B3
:10095000401C3033121D091D0328DED300986C495A
:10096000014006D0E32189006F4800F0DDFDE02161
:10097000F9E720006D4C0440082634421DD06C4835
:1009800001F0FAFC294D280001F0B6FC2A000023F2
:10099000401C594101F0D0FC2800103001F0ACFCA3
:1009A00010352A000023401C594101F0C5FC1948AC
:1009B00006600320FFF7A4FBB44360060ED51B4D71
:1009C0002800603001F098FC60352A000023401CAC
:1009D000594101F0B1FC2000A04C0440600711D542
:1009E0000C4880690106C90F0AD001209C49087093
:1009F00002200D49086045480121017000218160F5
:100A000004208443200401D09649ADE703B0F0BD33
:100A10001CF0FFFF044004E05103000052030000FB
:100A20001C5A0040204004E018F0FFFF340300404F
:100A30004C120000F0B585B001F076F802AA03C2AE
:100A40008948006880045DD58548C66C0025354C12
:100A500028202056012801D002284FD1E06A002822
:100A60004CD102A80CC803CC083C121A8B410021BF
:100A70008B4201D8B24241D3FFF74AFB002802D093
:100A80008C21890004E0FFF74BFB002803D1774954
:100A9000254800F049FD28202056012803D00228CF
:100AA00001D07349F4E7E06A002801D07149EFE70B
:100AB0006220E062002D0BD0022D01D004D311E0A2
:100AC00001F06EFB822006E001F06AFB422002E0AA
:100AD00001F066FB2220684908600320FFF710FB45
:100AE00001F0EAFBA0690090002807D0E36922002A
:100AF000083200216220009F01F050FC6D1C303450
:100B0000032DA5D305B0F0BD7FFF00FFDC0300403F
:100B1000020600006D0300006E0300008412000056
:100B200090120000A04E00402C120000FDF9FFFFC3
:100B300060120000F2B584B0040017001E00FFF739
:100B4000EFFA002801D19C211BE0002C01D04B4979
:100B500018E0049800680F25010C2940092901DBE1
:100B600047490FE004994968C00F05D18020000172
:100B700081420AD3434905E080208005814204D3A5
:100B80009D21C9009E4800F0CFFC049800683E49B2
:100B9000014001D03D49F5E701F002FC029001F06F
:100BA00095FB31480068800410D43948007800284B
:100BB00001D13849E6E7384801690191C1680091DF
:100BC000836842680168002000F06CF833480068D0
:100BD0000106C90F01D0612139E03148009001F0D0
:100BE000E6F8040001D12F2131E0083004991022E9
:100BF000FFF79EFAA761E66100F096FF03C4083C88
:100C0000206A012188432062009801F0E4F820481E
:100C10004168491C4160049909680A0C1540EA00C2
:100C2000C90FC16801D0403200E02C328918C16080
:100C3000744CA56E00984069C046854203D2009866
:100C40004069C046A0660020FFF757FB00210298CC
:100C500001F0ACFB080005B0F0BD0000BFFFFF00D5
:100C60008857004093040000C4C01FE03102000018
:100C70003A0200003D020000044004E0E2040000EB
:100C8000E3040000E6040000FFFFF03FEA04000078
:100C9000C4030040E7070000046200401C4004E079
:100CA000804E0040F0B583B007000C0016001D0018
:100CB000FFF736FA002801D193490DE001F070FBEF
:100CC000019001F003FB01F06BFA002F07D18F4870
:100CD0000068800403D58E49494800F025FC2000B7
:100CE000A621884301D08B49F6E72000082404435D
:100CF0000B3E072E00D981E001A0805D8744C046ED
:100D000008E0E4E8ECF0F4F883490020002F1ED15D
:100D10007E4A13688026B6011E4316607F4A166815
:100D20007F4B33408026F6041E43166013689B00F9
:100D30009B088026F6051E4316607A4A012313603D
:100D4000D368009390605161774911611460774CCA
:100D5000B900661875640899B1640999F164607006
:100D60002065E055724D9021A420C000281801F0A4
:100D70002BFB2823202229005801281801F008F80D
:100D80001023202221009431A5208000201800F09B
:100D9000FFFF01230F227749172000F06DFB00238E
:100DA0000F227549012000F067FB0220734908609B
:100DB000734C206800280ED1F06C0521FFF7C0F9B4
:100DC0000A2800D20A206F49009100236E4A0121AF
:100DD00000F066FE2060019801F0E8FA03B0F0BD73
:100DE0006A4992E76A4990E76A498EE76A498CE75F
:100DF0006A498AE76A4988E76A4986E780496BE772
:100E00002C12000034030040F8B50400FFF780F90D
:100E1000002801D164495AE0FFF782F9002801D186
:100E2000C72153E001F052FA002C03D13748006883
:100E3000800402D401F054FAF1BD6321002000F0D7
:100E400033F901F04DFA00F06FFE06000F00384C48
:100E5000A920C000251800202856002808D000F03E
:100E600063FE801BB94100290CD86428F0D309E047
:100E7000AF20C00020560028F1D1B520C000205678
:100E80000028ECD1002000F02DF801F01FFA01F04D
:100E900087F900202856002801D000202870AF20B4
:100EA000C000201800214156002901D00021017006
:100EB000B520C000201800214156002901D0002192
:100EC00001702F4C2068002804D1D121C90074483A
:100ED00000F02AFB00F0FCFD0020206001F066FB22
:100EE000F1BD000081B00F4800210161C16800918F
:100EF000C046C0460121016004480168694A0A40B1
:100F0000026001B0704700009E050000C4C01FE0F1
:100F1000A4050000A605000008009400A8C11FE079
:100F2000FFFFFFF3004004E0CF06000088570040B9
:100F30008049004010B50B0001F032FA040001F0C6
:100F4000C5F901F02DF910227B49180001F0BCF819
:100F5000200001F02BFA10BD10B501F021FA0400B9
:100F600001F0B4F901F01CF91021734801F028FBDD
:100F7000EEE70000F50700003105000000C003E0C7
:100F80000C04004070120000350A000008009600B2
:100F900008009C0011009C0023009C0059009C004C
:100FA000E0009C00C1019C003706000070B50C00F9
:100FB00015001E00FFF7ACF8002801D18D4904E0B0
:100FC000FFF7AEF8002803D18B49354800F0ACFAA2
:100FD0008A484169042901D38949F6E7844A09010D
:100FE00051184C608D60CE60049A0A6101F06EF970
:100FF00001F0D6F84169491C416101F0D7FA70BD92
:10100000D2050000F8B501F0CBF9040001F05EF95B
:1010100001F0C6F800267B48784D6B6901E0761C2C
:1010200010309E4213D207688F42F8D1476897422A
:10103000F5D1991B491E0A0101001031FFF778F81C
:101040006869401E6861200001F0B0F9F1BDF72128
:10105000C9006D4800F068FAC0466C480160426003
:1010600083600099C16001990161012063490870A2
:10107000704700B583B061490978002903D16449FC
:10108000074800F051FA61490A690192CA68009262
:101090008B684A680968FFF705FE03B000BD0000D1
:1010A0002C120000FFDFFFFFF1B58AB00F00FFF741
:1010B0002FF8002801D0574904E0FFF731F8002845
:1010C00019D15549504800F02FFA68462822FFF7F9
:1010D0002FF8200000F0B1FE069C20000BD06846DF
:1010E00020300078C00706D4079B6A4608320A9968
:1010F000380000F0D3F8494EA020C000341820007A
:1011000000F086FE0100E0D10025A420C0003418C4
:1011100028202056012801D0022807D1E06A0028A3
:1011200004D13A0029000A98FFF714F96D1C3034F5
:10113000032DEDD30BB0F0BDC8030040F5B581B071
:101140000F0001F02DF9009001F0C0F8029800287E
:1011500001D1334938E00020304EA021C900741875
:101160000100200000F086FE00281BD0C369BB42AE
:10117000F6D1016A0122114206D09925009801F0AA
:1011800015F9280003B0F0BD0A430262846921000A
:1011900001D10025F2E7083002000199029800F021
:1011A0007DF8F6E70024A420C0003018282141561D
:1011B000012901D0022913D1C169B94210D12021DE
:1011C000415CC90703D517490F4800F0ADF9C56A5E
:1011D000002D09D1029A21000198FFF7BBF803E026
:1011E000641C3030032CE1D3032CC7D30E49EBE74A
:1011F000885700408607000087070000C4030040AE
:101200008A0700008C5700402C1200000462004046
:10121000E7070000F5070000F607000080490040DE
:101220001F080000550800007108000063616E2E61
:10123000637070005265456E61626C6543616E411A
:10124000667465724275734F66660000527820437B
:10125000414E206D7367206C6F73740D0A0000009F
:1012600043414E2064617461206F76720D0A000064
:1012700043414E2054582053636176656E67696E12
:1012800067000000020000000002000000040000EF
:101290000800000000080000000008002047026865
:1012A000531C03601170704708B4024B9C4608BC85
:1012B0006047C0466C22000008B4024B9C4608BC44
:1012C0006047C0465022000000C09FE51CFF2FE190
:1012D0005B13000000C09FE51CFF2FE10D14000010
:1012E00010B5FEF715FF002801D0232104E0FEF71A
:1012F00017FF002803D02421744800F015F9FFF7E8
:10130000DBFF002801D12721F6E771480178002989
:1013100001D02921F0E76F4A11600023DB4393607D
:1013200013615161FF22D24311606B4A6B4B082459
:10133000196011605960516099609160D9601033F3
:10134000D1601032641EF3D1654A117051700121D1
:10135000017010BD5E480078704770B5FFF7A4FFBC
:1013600004005F4D6878002806D0A8685D498A6847
:101370001219101A886008E02878002805D06868DB
:1013800058490A681219101A08605748066830024E
:1013900009D55648882149004018C06C00F0C2F8B1
:1013A0003000534E0640F00607D5504888214900CA
:1013B000405800F0B7F810208643B00606D54B48D9
:1013C000882149004018406800F0ACF8FFF76CFF36
:1013D00044494A681218121B4A606978002901D0F2
:1013E000A86003E02978002900D0686070BC08BCC0
:1013F0001847000004E04EE20F402DE904D04DE212
:10140000B0FFFFEB04D08DE20F80FDE8F8B500F0EF
:10141000C7FEFFF749FF334C314D2978002904D02E
:10142000696822681218511A2160A860012068704A
:1014300000F042FFFF27FF43386800F073F80026F2
:101440003E6000F0ADFEFFF72FFFA968A2681218FA
:10145000511AA1606E702978002900D0686000F0F0
:101460002BFFF1BC08BC184704E04EE20F502DE9F9
:1014700097FFFFEB0F90FDE8F4B5202802D3FF2182
:1014800024311BE001228240124CA2608500174EDD
:1014900080277F00F719795100998027BF00F6193E
:1014A0007151002B02D1206890430CE0172808D01E
:1014B000042806D0052804D0FF213631034800F067
:1014C00033F82068104320606260F1BD14150000FD
:1014D000190400400CF0FFFF00F2FFFF00F1FFFFD6
:1014E00018620040E803004004F0FFFF00F0FFFF37
:1014F000FFFF7FFF00000FE12003A0E1010000EAF1
:1015000000000FE1A003A0E1010000E2010020E2E1
:101510001EFF2FE16972715F7574696C732E6370C1
:10152000700000000047FFFF38B5030000F038FFEF
:10153000050001F04BF80124094804700A00190065
:1015400008A000F019FF684604706846007800287B
:10155000FBD1280000F02AFF31BC08BC184700006E
:10156000150400400D0A0D0A417373657274696FAA
:101570006E206661696C6564210D0A46696C653A86
:101580002025730D0A4C696E653A2025640D0A0DFD
:101590000A50726F6772616D2068616C7465642EA9
:1015A0000D0A000010B5802903D256219648FFF796
:1015B000BBFFFFE70024046041608260C360018AD2
:1015C000A54A0A400282448210BD8C214900416034
:1015D000704710B5802903D256218B48FFF7A4FF2E
:1015E000E8E7C0460160426083600099C160018AFB
:1015F000994A0A40028200214182704738B50100B1
:1016000000F0CEFE040000F061FE00F0C9FD934D35
:101610006878002801D0BD2111E02800483000F092
:1016200068FC6864280048300069C046296B814224
:1016300000D201002963686C002803D1C5217248DB
:10164000FFF772FF002101602C640121697032BD37
:10165000F8B5060000F0A4FE050000F037FE00F02B
:101660009FFD7E4C6078002803D0D7216648FFF7A5
:101670005BFF200048300069C0460700606B4000F7
:101680000321FEF75DFD874215D23100200048306E
:1016900000F02FFC6064200048300069C046216BD8
:1016A000814200D201002163606C00210160256449
:1016B00001216170F2BD280000F078FE0020F2BD2B
:1016C00010B5FEF725FD002801D0F62104E0FEF755
:1016D00027FD002803D0F7214B48FFF725FF5F4C7B
:1016E0006078002801D1F821F6E72000483000F0AA
:1016F0003EFC00206070206C00F058FE10BD70B5FC
:1017000012E0F8B504000F0015001E001420FFF7CA
:1017100075FF002805D000962B003A002100FFF746
:1017200060FFFFF7CDFFF1BD04000D00160014208F
:10173000FFF764FF002807D033002A002100FFF7DD
:1017400048FFFFF7BDFF012070BDF8B50500FEF7AB
:10175000DFFC002802D0A521490015E07848A90047
:101760004919C9004418A078002814D0FFF79CFD3F
:10177000206AE16900F034FFFFF796FDFEF7C8FC30
:10178000002804D0FF2158311F48FFF7CDFE6078B4
:10179000012838D11DE06068002805D06078012854
:1017A00017D0FF216C31EFE71420FFF727FF002847
:1017B00021D0616A0091236AE269A169FFF711FFF4
:1017C00006006D1C7582FFF77BFF6660607801285C
:1017D00019D120001030C0C8A0680021FA22920060
:1017E000002300F0FFFEFA229200002300F006FF23
:1017F0008019794105E02000103003C80022401D07
:101800005141103403C4F1BD741D000070B50120B6
:101810008A490860114E3000083003C80022401C7D
:1018200051413200083203C20024454D2878002877
:101830000CD0280010300CC83000083003C88B4290
:1018400004D1824202D12000FFF77FFF641C2835BB
:10185000192CEBD370BD0000FEFF0000985F004024
:10186000F3B581B01600FEF753FC002801D0D42157
:101870000BE0FEF755FC002802D0FF21AA3105E05D
:10188000FFF71AFD002804D1D62149007348FFF75D
:101890004BFEFFF75FFD002802D1FF21AE31F5E7D7
:1018A0006F4F3878002802D0FF21B031EEE76D4C41
:1018B000666300252563A562E56332000299200076
:1018C000483000F002FBFA26B60031001C4800F058
:1018D0007BFD002000212200083203C225616561E2
:1018E000A561E561256265626070257000230122B3
:1018F0005D491B20FFF7C0FD01983100FEF720FC79
:10190000002902D0FF21CC31C0E75848016880226D
:1019100012040A43026056480168564A0A40802170
:10192000C90111430160634C01983100FEF708FCC6
:1019300060610320206101202060387003B0F0BD99
:10194000A0530040FEB582B0070000F029FD0090D2
:1019500000F0BCFC00F024FC0298012819D1002FF3
:1019600002D1FF21F43111E038000021FA22920067
:10197000002300F037FEFA229200002300F03EFE22
:10198000002906D1002804D1FA2149003348FFF785
:10199000CBFD0020002448490D0001260A78002ACA
:1019A00005D0012428310D002A78002A29D1686049
:1019B000029868700398A870AF600498A8610A98AC
:1019C000E8610B98286238000021FA229200002377
:1019D00000F008FEFA229200002300F00FFE020041
:1019E0000B00364803C8801859412A00103203C240
:1019F0000C9868622E70002F0CD12000FFF7A5FE16
:101A000008E0641C28352A78002AD0D0641C5031A4
:101A1000192CC8D3192C01D34249B7E7009852E0DA
:101A200010B584B0802A03D225490C48FFF77CFD0D
:101A3000069C02940193009200232CE0004007E0F2
:101A400010B584B0002A01D13F4903E0802B04D2B5
:101A50008C2189003B48FFF767FD16E0741D0000EC
:101A600020040040985F00400D180000C4C01FE033
:101A7000ACC11FE0FF3FFFFF10B584B0802B04D343
:101A80008E2189002F48FFF74FFD079C0294069C8A
:101A90000194009313000022FFF754FF04B010BD1F
:101AA00010B584B0069C0294019300920023012299
:101AB000F2E70000044007E0A0530040A05F0040B0
:101AC0001F020000019800F071FC601C05B0F0BD21
:101AD00010B5010000F064FC00F0F8FB00F060FBC2
:101AE000002901D15B490BE0491E192917D2574A39
:101AF0008B005918C90051180A78002A03D1564999
:101B00001048FFF711FD4A68002A03D0138A012408
:101B10001C43148200220A7000F048FC10BD514999
:101B2000EEE700001202000000B5494803C8FA229F
:101B30009200002300F056FDFA229200002300F0EC
:101B40005DFD00BD741D00002F020000DCB5070024
:101B5000FEF7DEFA002803D140494148FFF7E4FCD4
:101B6000002F25D0FA24A4003F4E3000083003C8CF
:101B70002200002300F036FD2200002300F03EFD8D
:101B80006A4603C23000083003C82200002300F078
:101B900029FD2200002300F031FD02000B00684601
:101BA00003C8121A8B4100218B4201D8BA42E9D3F3
:101BB000D3BD000038B50400FEF7AAFA002801D111
:101BC0002A490DE0FFF770FB0500616820680028D6
:101BD00011D1802907D22448816B080007D12449FC
:101BE0001F48FFF7A1FC080001D12249F8E72000B7
:101BF00000F0F6FC14E0012806D1802902D21A4830
:101C0000C06B03E01C49EBE7802905D22100026884
:101C1000526800F05FFD03E02100626800F05AFDA9
:101C2000FFF742FB421B1048816A914202D2826256
:101C3000E168C162406A002806D0E168002900D14D
:101C40000EA1114800F098FB31BD0000A0530040E8
:101C5000A05F00405B0200006202000083020000FF
:101C6000741D000072020000985F004092020000A4
:101C70009D020000A2020000AF020000650000000B
:101C80003848007870470000841D0000F0B593B01C
:101C9000050068688C277F00B8424AD1304CE06B61
:101CA0000190E56328002968096800F099FC6868DC
:101CB000B8423BD102AE2000483000F09BF900282A
:101CC0002CD069462000483000F0B0F90099412935
:101CD00003D325492548FFF727FC0A00010002A885
:101CE00000F0F2F92000483000F0B1F9708A0028C5
:101CF00011D01A48718A8A005118C9004018283832
:101D0000317CC9070AD400F0E1FA00F049FA002159
:101D1000416000F04BFC02A8FFF74CFF6868B84236
:101D2000C9D028002968896800F05AFC0198E0634E
:101D3000686813B0F0BD80B58C225200914203D187
:101D40000B490A48FFF7F0FB416001BD0449C96B2C
:101D5000884201D10120704700207047A053004005
:101D6000985F004020040040D5030000741D00006F
:101D70001C0400007363686564756C65722E637083
:101D80007000000025733A202564B5730D0A000029
:101D900080B5002B01D1322144E1016082604360B3
:101DA00000214161C16001610176417601BD80B5CC
:101DB000017E002901D0472134E1416982689142C6
:101DC00001D1002002BD012101760168426800694D
:101DD0004243881802BD80B50100087E002801D169
:101DE0005B211FE10869401C0861002208698B68BB
:101DF000984200D10A6100F0D3FA00F067FA00F0CF
:101E0000CFF94B695B1C4B6100F0D0FA0A7601BD3B
:101E100080B5417E002901D0782103E14169002984
:101E200005D001684268C3685A43891801D100206F
:101E300002BD01224276080002BD80B50100487E45
:101E4000002801D18521EDE0C868401CC86000224F
:101E5000C8688B68984200D1CA6000F0A1FA00F00F
:101E600035FA00F09DF94B695B1E4B6100F09EFA5C
:101E70004A7601BD10B5027E002A01D0B32103E0ED
:101E8000427E002A01D0B421CCE0002909D1416969
:101E900000290DD00169002910D00168426800694D
:101EA0000FE042680368C46854431C19A14201D181
:101EB000002010BD8B4201D2881A10BD0168426813
:101EC0008068401E4243881810BD10B503231A4293
:101ED00001D0EE2103E00C001C4201D0EF21A1E073
:101EE0000160426000218160C1600161017641763C
:101EF00010BD70B50A00017E002901D0FC2102E06E
:101F0000002A01D1FE218DE0D31C03218B431B1D30
:101F100041688B4202D381214900F4E704690C1B1C
:101F2000C5684D1B9D4208D39C421DD30468C168FF
:101F30006118091DC568625112E05B18C5685B1B1A
:101F40009C4211D3C468091B042902D2FF21263107
:101F5000D9E70468211D0025C668A55104682260E0
:101F600001220276436100E00021080070BD80B5C7
:101F70000100087E002802D1FF21423152E0C868EA
:101F80004A698018C8604868CA68824202D3CA6831
:101F9000101AC86000F004FA00F098F900F000F997
:101FA0000A694B69D2180A6100F000FA002008762D
:101FB00001BD80B50269002A01D1002002BD42683E
:101FC0008368D21A042A00D22AE0826803689A58E9
:101FD000002A05D1002901D01A680A60006807E0CC
:101FE000002902D082689A580A600168806808183F
:101FF000001D02BD80B5016900290DD041688268CD
:10200000891A042900D20BE0826801688A58002AE4
:1020100001D080680918091D080002BD00000000F9
:10202000AD21490025A0FFF77FFAC04610B5040096
:10203000607E002802D0FF217631F3E7FFE7200021
:10204000FFF7B7FF002801D00121617610BD10B560
:102050000100487E002801D1C32105E048688A6854
:10206000821A042A01D2C621DBE78A680B689A58D3
:10207000002A03D0D21C03239A4306E08A68821AFE
:102080001B68DB1C0324A343D218121D8B689B180A
:102090008B608B68834202D38B68181A886000F0CB
:1020A0007FF900F013F900F07BF80B699A1A0A61C6
:1020B00000F07CF90020487610BD00007175657550
:1020C000652E6370700000007847C046030011E37E
:1020D0000400000A012052E20130D1240130C02462
:1020E000F9FFFF8A1EFF2FE1030010E31200001A20
:1020F000102052E20500003A30002DE93810B1E816
:10210000102052E23810A0E8FBFFFF2A3000BDE8A3
:10211000823EB0E10810B1280810A0280430914494
:1021200004308044822FB0E1B220D1200130D1446C
:10213000B220C0200130C0441EFF2FE1042052E233
:102140001000003A010010E30600001A043091E488
:10215000042052E2B230C0E06338A0E1B230C0E007
:10216000F9FFFF2A070000EA043091E4042052E25C
:102170000130C0E46334A0E1B230C0E06338A0E1D4
:102180000130C0E4F7FFFF2A04208232012052E22E
:102190000130D1240130C024FBFFFF8A1EFF2FE154
:1021A0007847C04600C00FE140C08CE30CF021E14D
:1021B0001EFF2FE100C09FE51CFF2FE12915000045
:1021C0007847C04610402DE90040A0E1CBFCFFEB72
:1021D000000050E31A10A0130300001AC4FCFFEB28
:1021E000000050E30200000A1B10A0E3B0008FE2E1
:1021F000EFFFFFEB4C009FE5001090E5401881E3F6
:10220000001080E5E81090E5C01DC1E3401D81E3AA
:10221000E81080E54E02A0E3700A80E328209FE5E5
:10222000942281E00020E0E3A11982E0081080E51B
:102230000010A0E3041080E50110A0E3001080E589
:102240001040BDE81EFF2FE1C4C01FE006BD378669
:102250004E02A0E3700A80E3000090E5000050E326
:102260000100A013FF0000E21EFF2FE18E02A0E399
:10227000700A80E3000090E51EFF2FE1000050E3AC
:102280000600000A8E12A0E3701A81E3002091E597
:10229000003091E5023043E0000053E1FBFFFF3ADC
:1022A0001EFF2FE1707265636973696F6E5F7469F9
:1022B0006D65722E637070007847C04600C00FE1F4
:1022C00040C0CCE30CF021E11EFF2FE17847C0466F
:1022D00000C00FE180C08CE30CF021E11EFF2FE174
:1022E0007847C04600C00FE180C0CCE30CF021E18C
:1022F0001EFF2FE1304728477847C0460730D0E51A
:102300000620D0E505C0D0E50410D0E5032482E125
:102310000330D0E50C1481E101C0D0E5021881E161
:102320000220D0E50000D0E5032482E10C0480E126
:10233000020880E11EFF2FE17847C04620C4A0E1DB
:102340000000C2E501C0C2E52CC4A0E102C0C2E5A4
:102350002CC4A0E103C0C2E521C4A0E10410C2E581
:1023600005C0C2E52CC4A0E106C0C2E52CC4A0E1B2
:1023700007C0C2E51EFF2FE10EB400B582B003A96D
:10238000009102006B460121034878440A3000F0B6
:10239000A3F9029906B0084789380000384770470A
:1023A0007847C04600000FE11EFF2FE17847C04686
:1023B00000C00FE1C0C0CCE3C00000E200C08CE16F
:1023C0000CF021E11EFF2FE17847C0460020B0E36A
:1023D000190200EA7847C046802411E200106142E9
:1023E000402032E00700000A04402DE9000060228E
:1023F000040000EB8220B0E1001061420000602286
:102400000440BDE81EFF2FE1010050E1020051230E
:102410001800003A0030A0E3200851E10118A09113
:1024200010308392200451E10114A091083083926E
:10243000200251E10112A09104308392200151E168
:102440000111A09102308392A00051E18110A0916E
:1024500001308392010050E0A110A0E1001061E280
:102460000130D3E24A0000DA010090E00100403080
:1024700020C063E28CF18FE0010011E1FD01000A50
:10248000010050E10010A0310000A0330010A02393
:102490001EFF2FE18000B1E0010040308000B1E07C
:1024A000010040308000B1E0010040308000B1E028
:1024B000010040308000B1E0010040308000B1E018
:1024C000010040308000B1E0010040308000B1E008
:1024D000010040308000B1E0010040308000B1E0F8
:1024E000010040308000B1E0010040308000B1E0E8
:1024F000010040308000B1E0010040308000B1E0D8
:10250000010040308000B1E0010040308000B1E0C7
:10251000010040308000B1E0010040308000B1E0B7
:10252000010040308000B1E0010040308000B1E0A7
:10253000010040308000B1E0010040308000B1E097
:10254000010040308000B1E0010040308000B1E087
:10255000010040308000B1E0010040308000B1E077
:10256000010040308000B1E0010040308000B1E067
:10257000010040308000B1E0010040303013A0E1A4
:10258000110320E00000A0E002C0A0E31C0380E1F2
:102590001EFF2FE1013093E2010090300100403036
:1025A0000010A0E10300A3E01EFF2FE17847C04622
:1025B00000C00FE1C0C0CCE30CF021E11EFF2FE111
:1025C0007847C0460020B0E3AF0100EA7847C04634
:1025D00000C00FE1C0C08CE30CF021E11EFF2FE131
:1025E000084700007847C04690030CE091C22CE0F9
:1025F000920081E00C1081E01EFF2FE17847C04679
:1026000001C093E10C00001A00502DE90210A0E176
:102610007CFFFFEB0120A0E10010A0E30030A0E36D
:102620000050BDE81EFF2FE10130A0E10020A0E135
:102630000010A0E30000A0E31EFF2FE1020050E124
:1026400003C0D1E0F7FFFF3A03C092E18901000A1D
:1026500030002DE900C0A0E3022092E00330B3E097
:102660000300002A030051E10200500101C08C2246
:10267000F8FFFF2A6330B0E16220A0E18054A0E3BC
:1026800020405CE23544A0210050A023355CA031FD
:102690000040A033010000EAA330B0E16220A0E1D5
:1026A000020050E103C0D1E0020040200C10A02144
:1026B0000440B4E00550B5E0F6FFFF3A0020A0E189
:1026C0000130A0E10400A0E10510A0E13000BDE868
:1026D0001EFF2FE110470000F9B593B008AD0020B0
:1026E00014000991E8610BE00998139A00F09CFA34
:1026F0000990002800D1CBE1E869641C401CE86126
:102700002178002901D1E869C4E12529ECD1002014
:1027100028616861A86102E0010001200843641C8F
:1027200021782029F8D023290FD02B2904D02D2956
:1027300008D030290CD00EE001000220084300042C
:10274000000CECE701000420F8E701000820F5E7A1
:1027500001001020F2E72A2913D11499149A09686C
:1027600011600A68149B091D19606A62002A06D567
:10277000514269620100042008430004000C641CFB
:1027800012E0002169620AE06A6A234B9A4205D08E
:1027900093009A185200511830396962641C2178EC
:1027A0000A00303A0A2AEFD321782E2903D00021DB
:1027B000C943296221E0641C21782A290AD114998D
:1027C000149A0968641C11600A68149B091D196039
:1027D0002A6212E0002129620AE02A6A0E4B9A421C
:1027E00005D093009A185200511830392962641CA0
:1027F00021780A00303A0A2AEFD32885267805483E
:1028000078441030310000F079FA002806D0641CBA
:1028100005E0C0460C040000FFFFFF7F00262A20D1
:102820002E54285C682806D12078682803D16220BD
:102830002A216854641C02A8E8602678641C252EAE
:1028400013D0582E40D0632E00D1A0E0642E7CD04F
:10285000692E7AD06F2E37D0702E28D0732E0AD0E2
:10286000752E31D0782E2FD09EE0012028612520B2
:1028700069460872A3E01498149900680860066815
:102880001499001D08602F6AAE60002F03D5300038
:1028900000F046FA09E03A000021300000F06CFA3E
:1028A000002801D0801B00E03800686187E01498A0
:1028B0001499006808600168149A001D106008915E
:1028C00002A8A86078215EE02A20285C6C2801D14B
:1028D000149810E0712801D1149802E06A28149825
:1028E00009D102680720D21D82431498026003CAEE
:1028F000149B1A6005E0016801600868149A091DBC
:10290000116008902A20285C682803D108980004E8
:10291000000C04E0622803D108980006000E08901D
:102920002820285C000729D50898002826D02020D8
:102930003043782822D12869302102AA1154401C42
:10294000411C296102A90E5418E014992A20285C20
:1029500000F0A4F80890002802D528692D2109E08C
:10296000288D810702D528692B2103E0C00705D5F2
:102970002869202102AA1154401C2861296902A853
:102980004018A860310008A800F0B0F817E01499CA
:10299000012028611498006808600168149A001DDD
:1029A0001060684601720AE001202861252069460E
:1029B0000872002E03D00220286102A84670686ABF
:1029C0002969401AA969401A6969401A01902820AA
:1029D000285C400710D4202069460870002608E0D3
:1029E000139801236A4608A900F0FEF800284FD189
:1029F000761C01988642F3DB2F6902AE0CE0317839
:102A00000998139A00F010F90990002840D0E8695D
:102A1000761C401CE8617F1E002FF0D13020AF698A
:102A200069460870002608E0139801236A4608A941
:102A300000F0DAF800282BD1761CBE42F4DB6F6977
:102A4000AE680CE031780998139A00F0EDF809901F
:102A500000281DD0E869761C401CE8617F1E002F0D
:102A6000F0D12820285C400700D449E620206946A0
:102A70000870002600E0761C0198864200DB3FE6E5
:102A8000139801236A4608A900F0AEF80028F2D096
:102A90000020C04315B0F0BC08BC1847622816D00F
:102AA00068280CD06C281AD0742818D07A2816D12F
:102AB0000A680A601068121D0A60002170470A68DF
:102AC0000A601068121D00040A6000140CE00A6815
:102AD0000A601068121D00060A60001604E00A6809
:102AE0000A601068121D0A60C1177047F2B5040031
:102AF000E06882B000906846007A6F2801D108250E
:102B000006E020220243782A01D00A2500E01025A1
:102B1000216818270E00642801D0692803D10029F4
:102B200001D570420600002E0DD1206A00280AD17E
:102B3000082D32D12820205C00072ED500993020A6
:102B40001727C87529E030002900FDF7F9FA303160
:102B500009067F1E090E01973A2903DB6846007AB1
:102B6000513809180098C15530002900FDF7E8FADE
:102B7000060004D00099A068C9198842E3D3082D43
:102B80000BD12820205C000707D50098C05D3028B5
:102B900003D000997F1E3020C8551820C01B6061EB
:102BA0000099C919A160216A884206DA081A0D49FC
:102BB000A061208D0140218510E000290ED528213B
:102BC000615C14220A40102A08D1616A2269891ABC
:102BD000A269891A0F1A012F00DBA76103B0F0BCAC
:102BE00008BC1847EFFF000079B50E0014001D0067
:102BF000002005E0F069641C401CF06100206D1E9F
:102C0000002D09D021787068009A00F00DF87060EE
:102C10000028EFD10020C04376BC08BC1847000054
:102C2000686C747A4C000000104700007847C0467A
:102C3000022CB0E1222482E1222882E104402DE925
:102C40000230A0E102E0A0E102C0A0E1101051E2D8
:102C50000C50A028FCFFFF8A81CEB0E10C00A02818
:102C600004208044811FB0E1B220C0200120C04474
:102C70000440BDE81EFF2FE11EFF2FE17847C0464C
:102C8000022CB0E1222482E1222882E1010080E0CE
:102C9000033010E20400000A031051E01100003A72
:102CA000833FB0E101206045B22060210230A0E105
:102CB00010402DE902C0A0E102E0A0E1101051E2B5
:102CC0000C502029FCFFFF8A811EB0E10C00202956
:102CD000042020450111B0E1B220602101206045AF
:102CE0001040BDE81EFF2FE1031091E001206015A8
:102CF000020011E3012060151EFF2FE17847C04656
:102D00000020D0E5FF1001E2010052E3020031E1B2
:102D10000120F085FBFFFF8A0000A0131EFF2FE1BA
:102D20007847C046013080E2001FB0E10300000A8E
:102D30000110D0E4000051E3FAFFFF1A0A0000EA94
:102D4000002090E528C09FE50C1052E00210D1E170
:102D50008C0311E10420B005FAFFFF0A0110D0E452
:102D6000000051E30110D014FCFFFF1A030050E0F3
:102D70001EFF2FE1010101017847C046FF1001E26B
:102D8000030010E30500000A012052E21C00003A93
:102D90000130D0E4030031E1F8FFFF1A160000EA29
:102DA000082052E20E00003A042082E230002DE9B1
:102DB000011481E1011881E14CC09FE5043090E4E9
:102DC000042052E201302320AC4343200340C421BD
:102DD0000C001421F8FFFF0A3000BDE8FF1001E2EB
:102DE000040050E2082092E20130D0E4012052E2D7
:102DF00003003121FBFFFF8A0100A013010050E214
:102E00001EFF2FE10000B0E31EFF2FE180808080D5
:102E1000F1B5FEF735FF002801D1BA210BE0FEF72E
:102E20004BFA002802D1FF21763105E0FEF792FA35
:102E3000002804D1BB2149005848FEF775FBFDF777
:102E400067F9002802D1FF217A31F5E7FDF768F92B
:102E5000002801D1BD21EEE7514801688022D2054A
:102E60000A4302604F48FDF74BF94F480321026CBB
:102E70000A40022A01D0C921DDE70068014001298A
:102E800002D0FF219431D7E7CF20000247490860E4
:102E90003820474908600620FDF732F902204349EF
:102EA0000860C020C0004861424808614248C860CC
:102EB000152088603E4800688021C90001433C48D5
:102EC00001603A4840680121014338484160406848
:102ED0002021014335484160406880210143334847
:102EE0004160806980214900014330488161304858
:102EF00000688021890001432D4801602F48011D91
:102F00002F4A304B3A250C68E40AE4022E4E264341
:102F10000E600C1F23600024546014608E68F60A53
:102F2000F602294F37438F601E0050364E60D46042
:102F30009460A033103210316D1EE4D11C498860BA
:102F40001F48C860732008618C61204D2021281D16
:102F5000FFF73AFA49481649C861802149004018EC
:102F6000134908621F2048628C621048046444645C
:102F7000846426204449086000230F224349152019
:102F8000FEF77AFA424804662C70AC62EC626C621E
:102F90002C636C706C63684600781EE0203800007B
:102FA000C4C01FE0C05D000008C002E00000E0FFF8
:102FB0000001E0FF0F370000120C00008032E07FBC
:102FC0002036E07F0000E07F4F000080D4600040AA
:102FD00080B50020FFF71CFF01BDA8702F4D7821A0
:102FE0002800FFF7F1F92E480021C9434160BF21B5
:102FF00001602948006801210143274801602548F4
:103000000068012101432348016023480068022130
:103010000143214801600120A8670F2000F0C8FA91
:10302000050001D100250CE0B94E06223100FFF762
:103030004BF806223100A81DFFF746F82C736C737D
:103040000E350E3D280000F049FB0F2000F0B0FACD
:10305000050001D100250CE0AD4E06223100FFF73E
:1030600033F806223100A81DFFF72EF82C736C737D
:103070000E350E3D280000F031FBF1BDC039E07F78
:10308000B148806F704700000002E0FF613300002C
:10309000005F00400000E0FF0001E0FFB8020040D8
:1030A000E40FE0FFF0B587B0A84800680121049163
:1030B00004000022A64B07E0049D6D1C0495641CCF
:1030C000742C01D100240122E5005D1900952D68C2
:1030D000AE0F0E40F0D000239B4C2D0D0D4003D0C1
:1030E000636C5B1C63640123009D2D686D0F0D40B4
:1030F00003D0A36C5B1CA3640123009D2D68ED0E1F
:103100000D4003D0E36C5B1CE3640123009D2D683C
:103110006D0E0D4003D0236D5B1C23650123009DC4
:103120002D682D0E0D4003D0636D5B1C636501237C
:10313000009D2D68ED0D0D4003D0A36D5B1CA365B4
:103140000123009D2D682E0F314003D0E06D401CFF
:10315000E065CBE0002B00D0C8E06B055B0D5B1C8D
:103160007C497A4D2D68AE0075192D014D19049ECC
:10317000761EB700BE193601F3180393002A0AD051
:10318000049A80187438820012181201912080016C
:103190000818FCF7CDFF0398402803D2AB21890023
:1031A00068487DE06C484078002809D00AF090FD1E
:1031B0006421FFF70FF968484078814200DA95E012
:1031C000287B812804D1687B002801D0032803DBF9
:1031D000206E401C206689E0401E05902E1D0C22AA
:1031E000290030000AF0DCFD350003980838039010
:1031F00028685A4988420DD1A98800290AD1564821
:10320000446B200072D0059B00220399280000F037
:103210002DFB6BE000990968C022D2030A4080218F
:1032200089038A4212D1A049884205D12979EF2920
:1032300002D16979C02909DA9C49884202D12879EA
:10324000AA2803D0206F401C20674FE0687B297BB1
:10325000090240180004000C002600E0761CA64974
:10326000096E8E423BD28E4218DAA34973009A1936
:1032700092008F1839888142F0D1374800780028B1
:1032800008D0059941319D48FFF776F80399280049
:1032900000F00EF99848006E864203DB3021984812
:1032A000FEF742F9B878002812D005980290B86865
:1032B000019003980E3800902B000E33287B0202F9
:1032C000687B02432900A81D7D68FFF714F806E01B
:1032D000059BBA68039928007D68FFF70CF88648BB
:1032E000006E864202D1606E401C6066174800681E
:1032F00004994018742803D214480068401803E069
:1033000012480068401874381049086007B0F0BDD2
:103310006438000010B5104CE06A002806D1C921BD
:1033200089009A48FEF700F9FEF7DAFFFFF7BAFEC8
:10333000FEF7CCFFE06A401EE062F5D1FEF7D0FF59
:1033400010BD000020380000B80200401801E0FF66
:103350002036E07F0000E07FD46000400180C200A2
:10336000F0B583B0FDF7A0FF0190844E3068776818
:103370000740874DF80712D50120B060A86E401CA9
:10338000A8668448016820220A430260016801227D
:103390000A4302608048016801220A430260B807BC
:1033A00001D50220B0600420074203D0B060E86E6F
:1033B000401CE866082007423ED0B060FDF774FF6D
:1033C0000090764C08E0FFF76DFEA06A401CA062FA
:1033D000742801D10020A062A06A6E494969884220
:1033E0001AD06F49C00008584100C90FEDD0A0782D
:1033F0000028E8D1E06A00280AD16A4A00216A4818
:10340000FEF77DF9002803D168496048FEF78CF883
:10341000E06A401CE062D8E7FDF746FF2900203152
:103420000CC90099401A0021801859412A00203205
:1034300003C2686B401C686310210F420BD0B1605F
:103440005448026811430160016802220A43026085
:10345000A86B401CA863E86B296CA022174211D00E
:10346000A0233B40A02B02D1B260401C09E02022E7
:10347000174202D0B260401C04E08022174001D005
:10348000B260491C2964E863FDF70EFF02002800C2
:10349000283003C8019BD21A002312184B4128354B
:1034A0000CC503B0F0BD000001005E7F035555AAB6
:1034B000F2B505008248FEF75FFF002481A7824E27
:1034C00004E03800FEF758FF641C6D1C009884422D
:1034D0000ED229783000FEF74FFF052CF1D00B2CCF
:1034E000EFD00D2CEDD0142CEED178A0FEF744FFD8
:1034F00098A0FEF741FFF1BD005F004030380000AA
:103500002C5D0000F2B572490C6E082C01D3714994
:1035100011E000250E0001E06D1C0C362700A542CD
:103520000CDABD4202DB30216B4805E03788874268
:10353000F2D18521C9001548FDF7F6FF082F02DBFF
:1035400018219348F8E77C00E419A4000853086E9A
:1035500044002018800008188270086E420010187D
:1035600080000818009A4260086E4200101880001F
:1035700008188360086E401C0866F1BDE00FE0FF8C
:1035800080B513000122FFF7BDFF01BD2038000008
:10359000B80200400001E0FF0000E0FFD4600040FE
:1035A0002036E07F38380000153300009503000016
:1035B000F0B583B002007A48824201D3794925E010
:1035C00010003F3080090290FEF7EAFE0190FEF7FE
:1035D0007DFE8548009080200021734B0AE06D1C21
:1035E0005E19377907423171F9D0641C5C62202C76
:1035F00000D159625C6A6D4D2D68AC421BD06C4D98
:10360000E600AD59009EB54203D26A496A48FDF70B
:103610008BFFAD1BAE06B60E02D08E21C900F5E7BA
:10362000AD09202D01D37149F0E75E193679002EDE
:10363000D6D17249EAE70198FEF7B8FE009100255D
:10364000ED432C00FEF7ACFE0190FEF73FFE181D87
:103650000678002E06D02C00491C4678002E1CD07F
:103660002C0022E0AC4200D10C004E1C361B029F05
:10367000BE42F1D11919091D80204023402A00D8EB
:103680001300D21A00D103430B70491C002AF4D155
:103690005548A101401800900BE0AC4200D10C004D
:1036A0004E1C361B029FBE42E4D0491C801C2029C0
:1036B000CED30198FEF77AFE009803B0F0BD00006B
:1036C00050380000200000005C3800002E2E2E0034
:1036D000005F0040240400002C5D0000F8B50200EB
:1036E0004148824201D2474903E0101A810603D0C3
:1036F00045493148FDF718FF8009202801D3434987
:10370000F7E7294908180179002901D14049F0E774
:103710000021001D802405787F272F40C919401CF7
:103720002540F8D0FEF73CFEFEF7D0FD394C204D89
:103730002668F600AD192A60491EF42212060A43D3
:103740006A602168491C202900D100212160FEF710
:103750002DFEF1BD0D0A0000F8B505000E001400A5
:1037600018000E30FFF724FF070001D10020F2BD42
:1037700006223100FEF7A8FC06222900B81DFEF73C
:10378000A3FC200A38737C730E373800F2BD0000AA
:103790002C5D000080B50E38FFF7A0FF01BD0000D2
:1037A000F90500008A040000D46000402C01E0FF0D
:1037B000C039E07F6C04000020380000F0B4164EE1
:1037C000049C059D2F02274337601F021743776033
:1037D0000F020743B760114E30707170B270F37012
:1037E00034717571F0BC7047802AE07F740400006A
:1037F00080B506220949FEF767FC01BD7704000089
:1038000006487047D1040000D5040000D904000028
:10381000DD0400002801E0FF4000E0FF24620040DA
:1038200065746865726E65742E63707000000000C8
:103830007025633A200000004F6E436F6D706C6519
:1038400074654672616D655265636569766564008D
:1038500073697A653D253464202D20002530327847
:1038600000000000FFFFFFFFFFFF000020470000F7
:1038700010B582B0C24800888949884210D1012021
:1038800000900123012217211D2008F0B7FC1F2002
:1038900000900523062217211D2008F0AFFC13BD60
:1038A000491C884200D0C5E020220821172008F0DA
:1038B0006FFC7C4C22001021172008F069FC2200CC
:1038C0001121172008F064FC22001221172008F0B3
:1038D0005FFC22001321172008F05AFC220014215B
:1038E000172008F055FC22001521172008F050FC85
:1038F00022001621172008F04BFC22001721172068
:1039000008F046FC3F2000900623082210211420D6
:1039100008F074FC002000900623002210211420DF
:1039200008F06CFC5F200090082300221121142075
:1039300008F064FC5F200090082308221121142065
:1039400008F05CFC5F200090082300221221142064
:1039500008F054FC5F200090082308221221142054
:1039600008F04CFC1A200090082300221321142098
:1039700008F044FC1A200090082308221321142088
:1039800008F03CFC012000900123002205211520B5
:1039900008F034FC012000900123092205211520A4
:1039A00008F02CFC0F200090062300220621152091
:1039B00008F024FC0120009001230322052115209A
:1039C00008F01CFC0120009008230022082115208B
:1039D00008F014FCE020C000009010230022092110
:1039E000152008F00BFC7C480090102300220A21CF
:1039F000152008F003FC05200090022300220C2172
:103A0000152008F0FBFB01200090012303220C216C
:103A1000152008F0F3FB01200090012308220C215F
:103A2000152008F0EBFB01200090012309220C2156
:103A3000152032E769496A48FDF776FDC04610B5A2
:103A40000400FEF71DF9002802D19821890004E046
:103A5000FDF732FC002803D162496148FDF764FD9F
:103A600008F066FB002801D15F49F6E70B48E20742
:103A7000D20F0270A107CA0F42706107CA0F82708D
:103A80000021C1702021001DFEF79EFC00F00CF803
:103A900001205649086010BD00000000746100401C
:103AA0005C1700003F3F0000F8B50021142008F02B
:103AB00043FB4F4C4F49884200D12000304D2880B5
:103AC0002888A0421ED14C4A05211F2008F060FB27
:103AD0004A4A16211D2008F05BFBFEF725F8060078
:103AE0000F002888A0421CD103211F2008F024FBCE
:103AF0008106C90F1ED02888A04225D122000021AE
:103B00001E2027E0611C884209D13B4A0321152071
:103B100008F03EFBA022120204211420DBE7B821AA
:103B200029E0611C884202D101211520DEE7FF2136
:103B3000443121E0FDF7F8FF801BB941002901D88D
:103B40000A28CED32E4917E0611C884212D12200E8
:103B50000221142008F01CFBFA20C000FCF7D0FA68
:103B60002888A0420ED101200090012307221021B5
:103B70001E2010E0C12149001948FDF7D5FCC046C0
:103B80004C620040611C884213D103200090022344
:103B900000221621152008F031FBFFF769FE288866
:103BA000A04208D1E0200090082300221A211E2004
:103BB0000AE0CD21DFE7611C884208D10020009097
:103BC000022300220821142008F018FBF1BD0D4942
:103BD000D2E7064800687047C409000007020000E9
:103BE0004C3C000061020000620200001004004032
:103BF0005C170000FFFF00005084000020840000DC
:103C0000820200001D02000010B50E4A131D546808
:103C1000002C02D11860596010BD13000C33D46819
:103C2000002CF7D0130014335469002CF2D0130089
:103C30001C33D269002AEDD00349C04603A0FDF72A
:103C400073FCC0467461004037060000697031376C
:103C50003563642E6370700070B582B00500A14EAC
:103C60003078002801D0522104E0FEF709F800283E
:103C700003D1532116A0FDF757FCFFF7AAFF002838
:103C800001D15421F6E7FFF7FBF9002801D15521B6
:103C9000F0E7954CC021C90020000830FEF794FBE6
:103CA000256092A000900023914A0121FA20800013
:103CB000FDF7B6FE606000228E498F48FFF760FC7A
:103CC0000021B048FFF7A0FF0120307073BD000055
:103CD0006172702E63707000824800787047F2B590
:103CE00082B004000020C043002500950026A64FA6
:103CF0003968A14207D13C6006220299381DFEF7BF
:103D0000E3F97D810EE0002903D10099002900D15B
:103D100000977989884201DA08000197761C0C37F0
:103D2000802EE5D3802E15D10098002808D004609D
:103D3000062202990098001DFEF7C6F9009808E0D7
:103D400001980460062202990198001DFEF7BCF953
:103D50000198458103B0F0BDF1B51C00A01D0178AC
:103D60000D024078054320000E30017809064278A4
:103D700012040A43817809021143C07808432100E4
:103D800018310A7812064B781B0413438A78120202
:103D90001A43CE78164306991C293CD3002803D039
:103DA00021000831FFF79BFF012D34D14E4F3868B9
:103DB000864230D1FFF724FD1C23744A0099FFF797
:103DC000CBFC050004D1C04673A0FEF7D5FAF1BDC7
:103DD0001C222100FEF778F9A81D002101700221A4
:103DE000417028000830FFF703FD396828000E30C5
:103DF0000AF042F806222100083128001230FEF7AE
:103E000063F904220E34210028001830FEF75CF913
:103E10002800FFF7BFFCF1BD002000215A4A1368BB
:103E2000002B07D05389772B02DA5B1C538101E00A
:103E300000D11060491C0C328029F0D3704700007B
:103E400038B50500080013D000224F4B19000C684C
:103E5000AC4205D10622091DFEF736F9012032BD1C
:103E60000C310C68AC42F5D0921C1833802AEDD38B
:103E7000FFF7C6FC1C23204A4549FFF76DFC0400F0
:103E800004D1C0464FA0FEF777FA29E00020207049
:103E900001216170A21C0823137050700622227148
:103EA00004226271A21D1070517020000830FFF7CB
:103EB0009FFC0D48016820000E3009F0DDFF06214F
:103EC00020001230FEF77CFB20001830290E017014
:103ED000290C4170290A8170C5702000FFF75AFC37
:103EE000002032BD14040040003D0040415250000B
:103EF000193E0000593D000006080000002900D1CD
:103F0000704738B5FFF77CFC1C23204A2049FFF797
:103F100023FC040004D1C04636A0FEF72DFA31BDC3
:103F20000020207001216170A21C082313705070C2
:103F30000622227104226271A21D107051702000AD
:103F40000830FFF755FC134D286821000E31020E92
:103F50000A70020C4A70020A8A70C870062120009A
:103F60001230FEF72DFB286821001831020E0A706E
:103F7000020C4A70020A8A70C8702000FFF70AFC1F
:103F800031BD0000FD3E0000083D00400608000075
:103F900064380000003D00404152503A2043616EB9
:103FA00027742067657420545820627566666572B0
:103FB0002E205265706C79206E6F742073656E745C
:103FC0002E0D0A004152503A2043616E277420673B
:103FD0006574205458206275666665722E2052659D
:103FE0007175657374206E6F742073656E742E0D19
:103FF0000A0000004152503A2043616E2774206746
:104000006574205458206275666665722E2047726A
:1040100061747569746F757320415250206E6F74AE
:104020002073656E742E0D0A00000000F8B50500BF
:104030000E00884F3878002801D0452104E0FFF7B2
:104040004BFE002803D146218348FDF76DFAFFF7A8
:1040500017F8002801D14721F6E7FDF711FE0028E7
:1040600001D14821F0E77D4C2563666300227C493D
:1040700080200001FFF784FA30212000FEF7A4F928
:1040800001203870F1BD774800787047F8B51C0002
:104090000699142951D320780209042A4DD10F25FD
:1040A0002840052849DBA61C3278120273781A438F
:1040B000914242D382002100002009F0E5FE6A49C6
:1040C00088423AD1607A65490F000A68824226D157
:1040D00020780540AA002100103120000C30BB6878
:1040E000009333781B0275782B439B1AA2180C7827
:1040F00025064C7824042C438D782D022543C9785D
:10410000294304782506447824042C4385782D021D
:104110002543C07828437C6800F0CEF8F1BD0C3709
:10412000CA688242D4D00F0018378A698242CFD041
:104130000F002437496A8142CAD0F1BDF7B50600A5
:104140000D001F0043480078002803D19E214248FB
:10415000FDF7EAF969462800FFF772FE002804D14E
:1041600029004248FEF708F90AE0FFF749FB3B0047
:104170001433802212016946FFF7EEFA040001D1E0
:1041800000202EE01421FEF71BFA45202070143782
:10419000A01C3904090E017047708020207202981B
:1041A000607220000C30310E0170310C4170310A08
:1041B0008170C67020001030290E0170290C4170EA
:1041C000290A8170C57014222100002009F05CFECC
:1041D0002549414020000A300A0A02704170143417
:1041E000200003B0F0BD80B51438FFF7D3FA01BD4D
:1041F00038B5184B1B78002B01D1CB2102E00028E9
:1042000003D1CD211448FDF78FF9144C2300256804
:10421000002D03D1186059609A6031BD0C33E568F8
:10422000002DF7D023001833A569002DF2D023000C
:104230002433646A002CEDD0DD21E3E780B5054826
:104240000078002803D1FA210348FDF76DF90348EF
:10425000006B02BD18040040704200000C61004079
:104260008D40000018040040FFFF0000784200006D
:1042700069702E637070000049503A2043616E27C8
:104280007420676574204D414320666F7220495049
:1042900020253038782E20546865207061636B6566
:1042A000742077696C6C2062652064726F70706531
:1042B000642E0D0A000000002047000010B52E4CAF
:1042C0002078002801D01D2104E0FFF7DCFE002843
:1042D00003D11E212BA0FDF727F900222749012039
:1042E000FFF786FF0120207010BD0000F1B50C0023
:1042F00015001F00082F3ED3287808283BD1687886
:10430000002838D11E4E3A00290009F0BDFDB04208
:1043100031D13B00012200992000FFF70FFF04007C
:1043200004D1C0461AA0FEF727F8F1BD0020207086
:104330006070A11C087048700422291D201DFDF723
:10434000C3FE3A00083A0835290020000830FDF77E
:10435000BBFE3A002100002009F096FD4640A01C5B
:10436000310A017046703A002100002009F08CFDEE
:104370002000FFF738FFF1BD17040040ED420000B8
:10438000FFFF000069636D702E6370700000000015
:1043900049434D503A2043616E277420676574206D
:1043A00054582062756666657220666F72205049A7
:1043B0004E47207265706C792E0D0A0010B5894C3D
:1043C0002078002801D02F2104E0FFF75CFE0028B0
:1043D00003D130218448FDF7A7F850218348FDF729
:1043E000F3FF002282491120FFF702FF0120207015
:1043F00010BDF8B506000D0014001900FDF7D0FF40
:104400000090FDF763FF002915D109F061FC79499F
:10441000FDF7E0FF491C0904090C744B0A331A88A4
:104420008A42F2D09A8A8A42EFD01A8D8A42ECD020
:10443000988F8842E9D06D4B1A0018000A3007881F
:10444000002F0CD116601581546051810698D06000
:10445000079810610098FDF7A9FF0800F2BD14321B
:10446000878A002FEED01A002832078D002FE9D05E
:104470003C331A00808F0028E4D077215A48FDF79A
:1044800053F8C04670B5594C2500266886420BD1BA
:1044900026898E4208D16668964205D166899E4279
:1044A00002D10020688170BD14356669864208D14A
:1044B000A68B8E4205D1A669964202D1E68B9E421A
:1044C000EFD025002835A66A864208D1268E8E4276
:1044D00005D1E66A964202D1668E9E42E1D0250061
:1044E0003C35E66B86420AD12000443006888E4275
:1044F00005D1216C914202D140889842D1D08E21C1
:104500003948FDF711F8C04670B50E0011001D00C6
:10451000049C230008331122FFF710FE002811D05D
:10452000310A01704670811C2A0A0A704D700834E5
:10453000011D2204120E0A704C70811D00220A70A7
:104540004A70083070BD80B50838FFF74CFE01BDD9
:10455000082B00D27047FBB584B0101D017809020A
:104560004078014399423AD11078000251780843CB
:104570000390901C01780B024078034300211B4CF0
:1045800020004589002D13D00668002E02D0049F1C
:10459000BE420DD10689002E02D0039FBE4207D134
:1045A0004668002E02D0059FBE4201D19D4203D035
:1045B000491C14340429E3D3042910D2C46821000F
:1045C0000DD00069029006980838019008320092D8
:1045D000059A03990904090C049800F011F807B032
:1045E000F0BD000022040040F8450000FC5F0040E0
:1045F00051450000FFFF00007564702E637070006D
:104600002047000010B582B0904C9149200008303E
:10461000FDF7DAFE002060608E4800900023C24A59
:1046200001216420FDF73CFA206013BD10B50400A1
:104630006160A261A3660298206403986064049894
:10464000A064FA200001206780086067FDF76CFA1B
:104650002200103203C2FDF767FA2200203203C2A3
:10466000002000212200283203C20022D24322600F
:10467000A06020656165E066A065E0652066606613
:10468000200010BD38B505000C00FBF741FD0028E7
:1046900001D0CA2108E028680021C943884206D019
:1046A000A248FDF769FED121A148FCF73DFF2C602F
:1046B00031BD8068012800D00020704780B50168B6
:1046C0000022D243914203D1E7219948FCF72CFF05
:1046D000283002BD10B54469210005D0436A026A42
:1046E000C169806900F026FC10BD70B504000E00A1
:1046F000FBF70EFD002801D0FE212DE00025A0686B
:10470000012808D17068002805D0E16A002901D08D
:10471000884200D2012503CE083E2200283203C27F
:10472000FDF702FA2200203203C2A068002803D05D
:10473000022801D007D30DE0200000F0EEF92000A0
:1047400000F08FF970BD002DFCD00021200000F09A
:1047500029FAF1E7FF2138317548FCF7E5FEC0463C
:10476000FFB587B0FBF7D4FC002802D0FF2142310F
:104770002CE0089908784A781206120C1043009031
:104780000026324D2F0008373C00201D09F04CFC5C
:10479000079988420CD1A0788007800F032807D1A1
:1047A000207A617A0906090C08430099884203D0EF
:1047B000761C2637322EE7D3322E43D020000E301F
:1047C00009F032FC002804D1BB2149005848FCF70D
:1047D000ABFEA078000702D5FF217831F6E7200074
:1047E0000E3009F021FC059020001A3009F01CFC65
:1047F00004900898801C09F017FC01000F260A9805
:10480000039009980290002001900498009023786A
:1048100022001E32314007980068059FFDF7BEFD5B
:10482000A1780820084306400F2E00D10020A07078
:10483000012060706868002802D1FF218831C5E737
:10484000401E68600BB0F0BD000000008C350040D9
:104850006C070000FC4E0000F0B589B00400A668AB
:10486000B06801285ED125001C35A81C09F0DCFBCE
:104870008106C90F39D004A8002100220023002797
:104880008EC080210906049104AF2900381D0AF06A
:10489000A9FBA81C09F0C8FB0390A81C09F0C4FBE5
:1048A00002A9019108370097A16909030B0F203471
:1048B000220003990907090F4005400F746C00F0AE
:1048C00039FB0498B349014002980004F022120316
:1048D00002400A430492B04C0023220004A90020A5
:1048E000FCF728F92F281DD1F6E72978687800060B
:1048F000000C014368468180A81C09F095FB070065
:10490000A81C09F091FBA1690903090F009120344B
:10491000230069468A883907090F4005400F346C27
:1049200000F008FB09B0F0BDE14D0000184F000099
:10493000A44E0000F4B588B005000C0028680021E2
:10494000C943884202D1FF21D2310DE0201D0090E1
:10495000801C09F069FB0127C00A3840AA6EB91A09
:10496000884204D0FF21D8318C48FCF7DDFD009847
:10497000801C09F059FB0F26304010D100216A46F7
:1049800003C22068000C064032000834210068464B
:10499000FBF7CEFB69462800FFF7A7FE5FE0009813
:1049A000801C09F041FB3040022829D1A868012869
:1049B00055D16F6C380002D1F6214900D4E703AE1F
:1049C0000020F0800420B080A068039002A801902D
:1049D00005A80090082303AA06212868FDF7DEFC3D
:1049E0000720B080E068039002A8019005A800901D
:1049F000082303AA062128686C6C00F09BFA2EE0BD
:104A00000098801C09F010FB000907401DD12C20E4
:104A1000FCF71EFE060011D0614B2A00C549FCF7C9
:104A2000C1FD002070611022210030001830FDF718
:104A30004BFB0898B062FCF743FE10E0A86D401CE9
:104A4000A865E86D401CE86509E02068000C064098
:104A500033000834220000992800FFF781FE09B0D6
:104A6000F0BD30B585B00500FBF752FB002801D042
:104A70008A214DE028680021C943884201D1AE490E
:104A800047E001A800210022002300241EC0AB48FB
:104A9000019001AC0091AA6E2968201D0AF06EFAFF
:104AA000A748006820810120A17AFE220A40AB6954
:104AB000012119401143A17208406968490001436E
:104AC000A172FDF731F82A0010320CCA801A994100
:104AD00064220023FDF792FD401C0490E07A05213A
:104AE0000143E1722B00AD4A01A90020FCF722F836
:104AF000002808D0612808D1A868022803D0012125
:104B0000280000F04FF805B030BD2F28FBD09621CB
:104B100089002248FCF708FDC046F8B50400FBF701
:104B2000F7FA002802D09821890005E020680021CA
:104B3000C943884203D19A491848FCF7F5FCA0689C
:104B4000002803D0022801D09649F5E70126A66087
:104B50002700483700207861F8612820FCF74EFDD7
:104B6000050001D19049E7E7904B00229149FCF7FD
:104B700019FD386868612068A861EE612A20205C10
:104B8000400828622A34207806406E62FCF798FDBF
:104B9000F1BD0000FFFFF0FFC14D0000A44E00007A
:104BA000545C0000F0B587B005000C00FBF7B0FACC
:104BB000002801D080494DE0A868002803D00128D2
:104BC00001D0A02145E00220A860002C09D0FCF70C
:104BD000ABFF2A00103203C2280028300021002237
:104BE00006C00026754C201D09F01EFAA84237D1D8
:104BF000A078002834D00121C2080A4230D18208AE
:104C00000A4238D020000E3009F00EFA059020003C
:104C10001A3009F009FA049020000A3009F004FA69
:104C20000021039102919A21019104990091237826
:104C300022001E320107090F2868059FFDF7AEFB11
:104C40000020A070032060705E484068002804D1F6
:104C5000AB2189005648FCF767FC401E5949486063
:104C6000761C2634322EBED32820FCF7C7FC040065
:104C700048D15549EEE742080A4209D09A2221005C
:104C80000020FCF75BFAA0780028E9D04F49E1E763
:104C9000084231D00020A07002206070494840686E
:104CA000002801D14A49D5E7401E46494860200006
:104CB0000E3009F0B9F90028D2D020000E3009F0EA
:104CC000B3F9059020001A3009F0AEF904902000E5
:104CD0000A3009F0A9F90021039102919A2101916A
:104CE00004990091237822001E320107090F2868D9
:104CF000059FFDF753FBB3E701003648FDF73CFB8A
:104D0000B521A6E7294B00222A49FCF74BFCA86CE9
:104D100060612868A0610020E0612A20285C4008CA
:104D200020622A352878C107C90F6162FCF7C8FCE8
:104D300007B0F0BD594800002A02000000000880BA
:104D4000A85F004038B504000D00FBF7E1F900282A
:104D500003D021492148FCF7E7FBA068002801D0D7
:104D6000012812D1FCF7E0FE02000B0020002030E9
:104D700003C8121A8B41206F00218B4201D8824256
:104D800003D301212000FFF70DFF002D02D1A06801
:104D9000012802D12000FFF764FE31BDC34D0000A1
:104DA000620200006A02000071020000E45B000081
:104DB000A44E0000D54600007A0200009435004061
:104DC000704770478C350040DA020000B6020000E0
:104DD000C2020000B44E0000E5020000A44E000034
:104DE000F0B587B0FCF7A0FE06000F00002004908D
:104DF000284CA078400744D520001230FDF77CFAFB
:104E00006A4603C2201D09F00FF90500684603C871
:104E10003B00321A8B41686F00218B4201D88242DD
:104E20002FD3A170062060701B484068002803D172
:104E30001A491B48FCF778FB401E174948602000C0
:104E40000E3009F0F1F8069020001A3009F0ECF865
:104E5000059020000A3009F0E7F80500201D09F050
:104E6000E3F80021039102917621019105990091C7
:104E7000237822001E322907090F0068069DFDF7DE
:104E80003AFA0498401C049026343228B1D307B073
:104E9000F0BD0000943500408C35004093040000C4
:104EA000A44E000063616E5F736166652E6370706F
:104EB00000000000526563656976656420424F52C8
:104EC000445F444F574E2C747269656420746F20A0
:104ED00063616E63656C20726571756573742062C1
:104EE0007574207265717565737453746174653D72
:104EF0003078253032780D0A000000004F6E536381
:104F00006176656E67654167656452657175657345
:104F100074734972716C0000426F61726420706F2B
:104F2000736974696F6E20666C617070696E672159
:104F30000D0A000020470000F8B504000F0015001E
:104F40001E00FCF742FB8F4820602772A561E661D6
:104F50002000F2BDC16000210161002A08D020308C
:104F600000215156002905D00170521C401CF7E762
:104F70002030017000207047F8B582B004000F00A7
:104F8000150081498B4202D3FF20801D49E0E805CE
:104F900001D03A2131E008202056022801D17B4877
:104FA00004E0032801D17A4800E07A4840190090D3
:104FB0004E1E08F041FE00998919884202D28220D3
:104FC00040002EE0280503D12900200000F084F8DD
:104FD000009808F0C9FD05002069A84209D22900FF
:104FE000280008F043FD6C4A2900280008F066FDFF
:104FF0002561E069B04204D25921C04674A0FCF793
:1050000093FA029A3900A069FDF75EF8290028009A
:1050100008F02CFD604B3200A169009808F078FD83
:10502000002003B0F0BD000070B5A4B004000D0076
:10503000160009F0D4FA002D31D10820205603289B
:105040001CD1200020301FD0544800900420019033
:10505000029620222100203168460C30FBF768F8C8
:105060004F4D280008F080FD010008F0FFFC4A4B7E
:10507000802252006946280008F04AFD0820205688
:10508000002801D159A000E061A046490978002913
:1050900002D005F0CBF812E005F070FD0FE0C0463D
:1050A00060A040490978002903D0290005F0BEF826
:1050B00002E0290005F062FD802636062E43C04638
:1050C0005FA001900096384B220000213748FCF782
:1050D000B7FC606124B070BD38B50D0008214056A2
:1050E00034A43049097800290AD003F0E5FD69129B
:1050F000890D49198A120100200005F097F831BD89
:1051000003F0DAFD6912890D49198A1201002000A5
:1051100005F034FD31BD38B504000D006069FCF7C1
:10512000D7FCA86800280DD408216156002907D1B2
:10513000FDF7CCF8FDF734F8E269A16903F02CFE25
:10514000010001E0410049082000FCF7F4FD31BDF9
:1051500010B508214056C04616A412490978002906
:1051600007D003F0A9FD01000022200005F05EF841
:1051700010BD03F0A1FD00220100200005F0FEFC9F
:1051800010BD0000EC5C0000010200000070000097
:105190000001070000000100401901004641564D82
:1051A000000007004B62004017510000B80B0000E0
:1051B000704700000C5570646174696E672050611F
:1051C0006E656C0D0A25733A2025644B00000000C3
:1051D00073746174655F7570646174655F70616E2E
:1051E000656C5F746674702E637070000C57726922
:1051F00074696E6720626F6F746C64720D0A7468F4
:10520000656E2072657374617274696E672E00003A
:105210000C55706461746520636F6D706C657465A6
:105220002E0000000C557064617465206572726F09
:10523000722E0D0A5354415455532025642E0000FC
:1052400074656D70206D65737361676500000000A3
:10525000F8B504000D0017001E00FCF7B6F97848F9
:105260002060A560E6602761069860610798A061EC
:10527000002D05D17BA0E061724820622000F2BDC4
:10528000012D01D17AA0F6E7022D03D180A0E061C3
:105290006D48F2E7032D03D184A0E0616B48ECE791
:1052A0002A21C04689A0FCF73FF9C04630B583B03B
:1052B000040008F073FC032810D0C0468AA1684699
:1052C00009F004FBFCF7E2FC010002D060488142D7
:1052D00000D160492000FCF72EFD29E05E4D2878C2
:1052E000002802D004F0ECFE01E005F0C7F8E16907
:1052F0005AA02A78002A02D004F098FF01E005F0B5
:105300003DFCE2680021206903F03DFC20698069D2
:10531000002804D04A21C0466CA0FCF705F9606261
:10532000A062C04678A3002260212000FCF7E9F9C2
:1053300003B030BD70B586B004004868092806D1B6
:105340008D2149002000FCF7F6FC06B070BD6028F6
:10535000FBD1A069009001AB6269E168206903F0AC
:105360004BFB00280FD0C0466CA102A809F0AEFA92
:10537000FCF78CFC002802D03549884201D18E21EF
:10538000DFE70100DEE70198002823D0206A616A88
:10539000401808F0E9FB0500314EA06AA84209D286
:1053A0002900280008F062FB32002900280008F0DC
:1053B00085FBA5622900280008F058FB3300A2698C
:1053C0006169206A656A401908F0A2FB606A019968
:1053D000401860620198A169884206D14AA3002260
:1053E00060212000FCF78DF9AFE7A068002812D1FA
:1053F00052A019490978002902D004F017FF01E0F2
:1054000005F0BCFBFCF762FFFCF7CAFEA26961690C
:10541000606A03F0C1FC022803D0032801D00128F0
:1054200008D1C0464EA102A809F050FAFCF72EFCA4
:10543000010087E7A021C04624A0FCF775F8C0460C
:10544000045D000000000100007000000001070082
:1054500002080000030800004B62004025730000B2
:105460004019010052656164696E672E2E2E00009E
:105470005570646174696E67207468650D0A7061A7
:105480006E656C206669726D776172652E2E000004
:105490005570646174696E67207468650D0A706187
:1054A0006E656C20636F6E6669672E00557064616F
:1054B00074696E67207468650D0A70616E656C2092
:1054C000564D2066696C652E00000000737461748F
:1054D000655F7570646174655F70616E656C5F7542
:1054E00073622E63707000004C50433233383720A3
:1054F00072657175697265640D0A50726573732007
:1055000061206B65790000004556454E545F545943
:1055100050455F4348554E4B0000000046696C659E
:105520002072656164206572726F722E0D0A50726E
:105530006573732061206B65792E00000C577269CA
:1055400074696E6720626F6F746C64722074686532
:105550006E2072657374617274696E672E0000004C
:1055600055706461746520646F6E652E0D0A50720B
:105570006573732061206B65792E0000F8B5040017
:105580000F0015001E00FCF720F836482060A760C9
:10559000E56026612000F2BD38B50500E968491CC8
:1055A00033A0314C2278002A02D004F03FFE01E003
:1055B00005F0E4FAE86807F0D8F9002802D1C046FF
:1055C0002EA014E0286900281BD001680200583280
:1055D000101A001D814214D3E86807F0D0F9296938
:1055E000896D80784008C140C8070AD428A0217876
:1055F000002902D004F01AFE01E005F0BFFA0020F5
:1056000032BDA86828A52178002906D003F054FBF4
:105610000100280004F00AFE05E003F04DFB010044
:10562000280005F0ABFA012032BD10B50400FFF7E9
:10563000B3FF207510BD80B54A68092A02D18D21BB
:1056400049000CE0022A0CD18968002904D1017DAF
:10565000002906D0002102E0032902D10349FCF70A
:105660006AFB01BD8C5C00004B6200400208000038
:105670000C426F6172642025643A2000446F776E9B
:105680002E0D0A50726573732061206B65792E00B0
:10569000547970650D0A6E6F7420737570706F7237
:1056A0007465642E000000005570646174650D0A15
:1056B00025733F00F8B504000F0015001E00FBF72E
:1056C00084FF934820602772E5600798206108985E
:1056D00060610698A061E6612000F2BD30B583B03C
:1056E0001C006846111D0622FCF7EEFC6D46A81C46
:1056F00008F09AFC4005400FE168884201D01D2166
:1057000006E0A81C08F090FC0105C90F03D11E217A
:105710008AA0FBF709FFA81C08F086FC0007000F11
:10572000032801D01F21F3E78CA32A8866212000DB
:10573000FBF7E7FF03B030BD7CB5040025000C3556
:105740000020287568750026F6436E622968491C9A
:105750008DA0704A1278002A02D004F067FD01E0A3
:1057600005F00CFA90A00190002000906523220023
:1057700001210A20FCF780F9A86100200090330085
:10578000320031002000283009F0F8FB00200090A2
:1057900003230122296820002C3009F0EFFB00943C
:1057A0005D4B2A6AE9690020FBF700FC73BD00002D
:1057B000F0B585B005004868652822D108352C0071
:1057C000207E002800D0A0E02056042813D100201D
:1057D00001A900220023002500266CC180221206A8
:1057E0000192009004230022616801A8001D09F0C5
:1057F000C5FB002378E0052801D10320E8E77421E8
:105800003FE0662876D18F682C000834207E00287F
:1058100001D101202076607E002876D13F48874262
:105820000FD16168491CC04664A03A4A1278002A28
:1058300002D004F0FBFC01E005F0A0F90120607645
:1058400063E0FE00A06A0021C943884206D0864278
:1058500004D3802189004018864216D3710A490278
:10586000A1622269606903F08EF9E0680090343526
:105870002B00A2682169606903F0BEF8002804D0FB
:10588000AB21C0462DA0FBF74FFE01A8002100224E
:10589000002300252EC080210906019101AD00974B
:1058A00003236168281D09F069FBA16A701AE26A86
:1058B000824214D3921B5218092A00D3082201995C
:1058C000174B0B401104F02636030E401E43019681
:1058D000A168091808352800FCF7F6FB03E00198D9
:1058E0000F49014001910023002201A90020FBF78C
:1058F00021F90AE0022808D128000830407E00285B
:1059000003D000212800FCF716FA05B0F0BD000016
:10591000D45C00004B620040DD560000FFFF000039
:10592000FFFFF0FF10B50400E26AA16A0020FBF758
:1059300069FB606AFCF7CCF810BD000073746174F9
:10594000655F7570646174655F696F5F626F6172D6
:10595000645F7573622E6370700000004556454E9B
:10596000545F545950455F4348554E4B5F52455123
:10597000554553545F4D4553534147455F52454349
:1059800045495645440000000C426F617264202571
:10599000643A0D0A5374617274696E6720626F6FA6
:1059A000746C64720000000073656E64207374612F
:1059B000727420626F6F746C647200000C426F61CD
:1059C00072642025643A557064617465642E160211
:1059D0000150726573732061206B65792E000000A1
:1059E00000000FE11F00C0E3120080E300F021E19E
:1059F00034109FE507D0C1E31F00C0E3110080E32E
:105A000000F021E124109FE507D0C1E31F00C0E3AF
:105A10001F0080E300F021E114109FE507D0C1E3EF
:105A20000000A0E10000A0E10B0000EA506D004082
:105A3000506F0040506A004000C09FE51CFF2FE1FE
:105A4000895A000000C09FE51CFF2FE1E99100008A
:105A500000C09FE51CFF2FE1BB5A00000100A0E33E
:105A60000100B0E3000050E30000000AF1FFFFEB8B
:105A70000000A0E30000A0E1F1FFFFEBF3FFFFEB6C
:105A80000F0000EBFDFFFFEA10B509497944203112
:105A9000084C7C441E3405E00A68081D891800F093
:105AA0000BF80100A142F7D110BC08BC1847C04652
:105AB0001001000030010000084780B500F00CF82C
:105AC00009BC184708109FE51800A0E3563412EFF0
:105AD000FBFFFFEA260002007847C0460070B0E1F5
:105AE0000700B0E1F6FFFFEBFDFFFFEAF8B50D00A0
:105AF000140000940C4F08E0202005F0E3FC761C15
:105B000078688642F8D301203870002C0AD0641ED1
:105B10002E786D1C300005F0D5FC00200A2EF3D144
